{
  "contractName": "CompetencySystem",
  "abi": [
    {
      "inputs": [],
      "stateMutability": "nonpayable",
      "type": "constructor"
    },
    {
      "anonymous": false,
      "inputs": [
        {
          "indexed": true,
          "internalType": "address",
          "name": "account",
          "type": "address"
        },
        {
          "indexed": true,
          "internalType": "address",
          "name": "operator",
          "type": "address"
        },
        {
          "indexed": false,
          "internalType": "bool",
          "name": "approved",
          "type": "bool"
        }
      ],
      "name": "ApprovalForAll",
      "type": "event"
    },
    {
      "anonymous": false,
      "inputs": [
        {
          "indexed": true,
          "internalType": "address",
          "name": "operator",
          "type": "address"
        },
        {
          "indexed": true,
          "internalType": "address",
          "name": "from",
          "type": "address"
        },
        {
          "indexed": true,
          "internalType": "address",
          "name": "to",
          "type": "address"
        },
        {
          "indexed": false,
          "internalType": "uint256[]",
          "name": "ids",
          "type": "uint256[]"
        },
        {
          "indexed": false,
          "internalType": "uint256[]",
          "name": "values",
          "type": "uint256[]"
        }
      ],
      "name": "TransferBatch",
      "type": "event"
    },
    {
      "anonymous": false,
      "inputs": [
        {
          "indexed": true,
          "internalType": "address",
          "name": "operator",
          "type": "address"
        },
        {
          "indexed": true,
          "internalType": "address",
          "name": "from",
          "type": "address"
        },
        {
          "indexed": true,
          "internalType": "address",
          "name": "to",
          "type": "address"
        },
        {
          "indexed": false,
          "internalType": "uint256",
          "name": "id",
          "type": "uint256"
        },
        {
          "indexed": false,
          "internalType": "uint256",
          "name": "value",
          "type": "uint256"
        }
      ],
      "name": "TransferSingle",
      "type": "event"
    },
    {
      "anonymous": false,
      "inputs": [
        {
          "indexed": false,
          "internalType": "string",
          "name": "value",
          "type": "string"
        },
        {
          "indexed": true,
          "internalType": "uint256",
          "name": "id",
          "type": "uint256"
        }
      ],
      "name": "URI",
      "type": "event"
    },
    {
      "inputs": [
        {
          "internalType": "address",
          "name": "account",
          "type": "address"
        },
        {
          "internalType": "uint256",
          "name": "id",
          "type": "uint256"
        }
      ],
      "name": "balanceOf",
      "outputs": [
        {
          "internalType": "uint256",
          "name": "",
          "type": "uint256"
        }
      ],
      "stateMutability": "view",
      "type": "function",
      "constant": true
    },
    {
      "inputs": [
        {
          "internalType": "address[]",
          "name": "accounts",
          "type": "address[]"
        },
        {
          "internalType": "uint256[]",
          "name": "ids",
          "type": "uint256[]"
        }
      ],
      "name": "balanceOfBatch",
      "outputs": [
        {
          "internalType": "uint256[]",
          "name": "",
          "type": "uint256[]"
        }
      ],
      "stateMutability": "view",
      "type": "function",
      "constant": true
    },
    {
      "inputs": [
        {
          "internalType": "address",
          "name": "account",
          "type": "address"
        },
        {
          "internalType": "address",
          "name": "operator",
          "type": "address"
        }
      ],
      "name": "isApprovedForAll",
      "outputs": [
        {
          "internalType": "bool",
          "name": "",
          "type": "bool"
        }
      ],
      "stateMutability": "view",
      "type": "function",
      "constant": true
    },
    {
      "inputs": [
        {
          "internalType": "address",
          "name": "from",
          "type": "address"
        },
        {
          "internalType": "address",
          "name": "to",
          "type": "address"
        },
        {
          "internalType": "uint256[]",
          "name": "ids",
          "type": "uint256[]"
        },
        {
          "internalType": "uint256[]",
          "name": "amounts",
          "type": "uint256[]"
        },
        {
          "internalType": "bytes",
          "name": "data",
          "type": "bytes"
        }
      ],
      "name": "safeBatchTransferFrom",
      "outputs": [],
      "stateMutability": "nonpayable",
      "type": "function"
    },
    {
      "inputs": [
        {
          "internalType": "address",
          "name": "from",
          "type": "address"
        },
        {
          "internalType": "address",
          "name": "to",
          "type": "address"
        },
        {
          "internalType": "uint256",
          "name": "id",
          "type": "uint256"
        },
        {
          "internalType": "uint256",
          "name": "amount",
          "type": "uint256"
        },
        {
          "internalType": "bytes",
          "name": "data",
          "type": "bytes"
        }
      ],
      "name": "safeTransferFrom",
      "outputs": [],
      "stateMutability": "nonpayable",
      "type": "function"
    },
    {
      "inputs": [
        {
          "internalType": "address",
          "name": "operator",
          "type": "address"
        },
        {
          "internalType": "bool",
          "name": "approved",
          "type": "bool"
        }
      ],
      "name": "setApprovalForAll",
      "outputs": [],
      "stateMutability": "nonpayable",
      "type": "function"
    },
    {
      "inputs": [
        {
          "internalType": "bytes4",
          "name": "interfaceId",
          "type": "bytes4"
        }
      ],
      "name": "supportsInterface",
      "outputs": [
        {
          "internalType": "bool",
          "name": "",
          "type": "bool"
        }
      ],
      "stateMutability": "view",
      "type": "function",
      "constant": true
    },
    {
      "inputs": [
        {
          "internalType": "uint256",
          "name": "",
          "type": "uint256"
        }
      ],
      "name": "uri",
      "outputs": [
        {
          "internalType": "string",
          "name": "",
          "type": "string"
        }
      ],
      "stateMutability": "view",
      "type": "function",
      "constant": true
    },
    {
      "inputs": [
        {
          "internalType": "string",
          "name": "name",
          "type": "string"
        },
        {
          "internalType": "string",
          "name": "anotation",
          "type": "string"
        }
      ],
      "name": "createKnowledgeElement",
      "outputs": [
        {
          "internalType": "uint256",
          "name": "",
          "type": "uint256"
        }
      ],
      "stateMutability": "nonpayable",
      "type": "function"
    },
    {
      "inputs": [
        {
          "internalType": "uint256",
          "name": "pos",
          "type": "uint256"
        }
      ],
      "name": "getKnowledgeElement",
      "outputs": [
        {
          "components": [
            {
              "internalType": "string",
              "name": "name",
              "type": "string"
            },
            {
              "internalType": "string",
              "name": "anotation",
              "type": "string"
            }
          ],
          "internalType": "struct CompetencySystem.Registry",
          "name": "",
          "type": "tuple"
        }
      ],
      "stateMutability": "view",
      "type": "function",
      "constant": true
    },
    {
      "inputs": [],
      "name": "getKnowledgeElements",
      "outputs": [
        {
          "components": [
            {
              "internalType": "string",
              "name": "name",
              "type": "string"
            },
            {
              "internalType": "string",
              "name": "anotation",
              "type": "string"
            }
          ],
          "internalType": "struct CompetencySystem.Registry[]",
          "name": "",
          "type": "tuple[]"
        }
      ],
      "stateMutability": "view",
      "type": "function",
      "constant": true
    },
    {
      "inputs": [
        {
          "internalType": "string",
          "name": "name",
          "type": "string"
        },
        {
          "internalType": "string",
          "name": "anotation",
          "type": "string"
        }
      ],
      "name": "createDispositions",
      "outputs": [
        {
          "internalType": "uint256",
          "name": "",
          "type": "uint256"
        }
      ],
      "stateMutability": "nonpayable",
      "type": "function"
    },
    {
      "inputs": [
        {
          "internalType": "uint256",
          "name": "pos",
          "type": "uint256"
        }
      ],
      "name": "getDisposition",
      "outputs": [
        {
          "components": [
            {
              "internalType": "string",
              "name": "name",
              "type": "string"
            },
            {
              "internalType": "string",
              "name": "anotation",
              "type": "string"
            }
          ],
          "internalType": "struct CompetencySystem.Registry",
          "name": "",
          "type": "tuple"
        }
      ],
      "stateMutability": "view",
      "type": "function",
      "constant": true
    },
    {
      "inputs": [],
      "name": "getDispositions",
      "outputs": [
        {
          "components": [
            {
              "internalType": "string",
              "name": "name",
              "type": "string"
            },
            {
              "internalType": "string",
              "name": "anotation",
              "type": "string"
            }
          ],
          "internalType": "struct CompetencySystem.Registry[]",
          "name": "",
          "type": "tuple[]"
        }
      ],
      "stateMutability": "view",
      "type": "function",
      "constant": true
    },
    {
      "inputs": [
        {
          "internalType": "string",
          "name": "name",
          "type": "string"
        },
        {
          "internalType": "string",
          "name": "statement",
          "type": "string"
        },
        {
          "internalType": "uint256[]",
          "name": "knowledgeElement",
          "type": "uint256[]"
        },
        {
          "internalType": "uint256[]",
          "name": "dispositions",
          "type": "uint256[]"
        }
      ],
      "name": "createCompetency",
      "outputs": [
        {
          "internalType": "uint256",
          "name": "",
          "type": "uint256"
        }
      ],
      "stateMutability": "nonpayable",
      "type": "function"
    },
    {
      "inputs": [
        {
          "internalType": "uint256",
          "name": "pos",
          "type": "uint256"
        }
      ],
      "name": "getCompetency",
      "outputs": [
        {
          "components": [
            {
              "internalType": "string",
              "name": "name",
              "type": "string"
            },
            {
              "internalType": "string",
              "name": "statement",
              "type": "string"
            }
          ],
          "internalType": "struct CompetencySystem.Competency",
          "name": "",
          "type": "tuple"
        }
      ],
      "stateMutability": "view",
      "type": "function",
      "constant": true
    },
    {
      "inputs": [],
      "name": "getCompetencys",
      "outputs": [
        {
          "components": [
            {
              "internalType": "string",
              "name": "name",
              "type": "string"
            },
            {
              "internalType": "string",
              "name": "statement",
              "type": "string"
            }
          ],
          "internalType": "struct CompetencySystem.Competency[]",
          "name": "",
          "type": "tuple[]"
        }
      ],
      "stateMutability": "view",
      "type": "function",
      "constant": true
    }
  ],
  "bytecode": "0x60806040523480156200001157600080fd5b506040518060200160405280600081525062000033816200003a60201b60201c565b506200016b565b80600290805190602001906200005292919062000056565b5050565b828054620000649062000106565b90600052602060002090601f016020900481019282620000885760008555620000d4565b82601f10620000a357805160ff1916838001178555620000d4565b82800160010185558215620000d4579182015b82811115620000d3578251825591602001919060010190620000b6565b5b509050620000e39190620000e7565b5090565b5b8082111562000102576000816000905550600101620000e8565b5090565b600060028204905060018216806200011f57607f821691505b602082108114156200013657620001356200013c565b5b50919050565b7f4e487b7100000000000000000000000000000000000000000000000000000000600052602260045260246000fd5b613db6806200017b6000396000f3fe608060405234801561001057600080fd5b506004361061010a5760003560e01c806342501cf8116100a2578063c7125b0011610071578063c7125b00146102f1578063d9c8738214610321578063dddcfda514610351578063e985e9c514610381578063f242432a146103b15761010a565b806342501cf8146102575780634e1273f4146102875780636e21dee4146102b7578063a22cb465146102d55761010a565b80631218c74b116100de5780631218c74b146101cf5780631428aeb5146101ed57806322d127b31461020b5780632eb2c2d61461023b5761010a565b8062fdd58e1461010f57806301ffc9a71461013f5780630695afe91461016f5780630e89341c1461019f575b600080fd5b61012960048036038101906101249190612836565b6103cd565b60405161013691906137e7565b60405180910390f35b610159600480360381019061015491906128de565b610496565b6040516101669190613586565b60405180910390f35b61018960048036038101906101849190612a5f565b610578565b60405161019691906137c5565b60405180910390f35b6101b960048036038101906101b49190612a5f565b610747565b6040516101c691906135a1565b60405180910390f35b6101d76107db565b6040516101e4919061350b565b60405180910390f35b6101f561095e565b60405161020291906134e9565b60405180910390f35b61022560048036038101906102209190612930565b610ae1565b60405161023291906137e7565b60405180910390f35b610255600480360381019061025091906126ac565b610c0c565b005b610271600480360381019061026c9190612a5f565b610cad565b60405161027e91906137a3565b60405180910390f35b6102a1600480360381019061029c9190612872565b610e7c565b6040516102ae919061352d565b60405180910390f35b6102bf61102d565b6040516102cc919061350b565b60405180910390f35b6102ef60048036038101906102ea91906127fa565b6111b0565b005b61030b6004803603810190610306919061299c565b611331565b60405161031891906137e7565b60405180910390f35b61033b60048036038101906103369190612a5f565b611430565b60405161034891906137c5565b60405180910390f35b61036b60048036038101906103669190612930565b6115ff565b60405161037891906137e7565b60405180910390f35b61039b60048036038101906103969190612670565b61172a565b6040516103a89190613586565b60405180910390f35b6103cb60048036038101906103c6919061276b565b6117be565b005b60008073ffffffffffffffffffffffffffffffffffffffff168373ffffffffffffffffffffffffffffffffffffffff16141561043e576040517f08c379a000000000000000000000000000000000000000000000000000000000815260040161043590613603565b60405180910390fd5b60008083815260200190815260200160002060008473ffffffffffffffffffffffffffffffffffffffff1673ffffffffffffffffffffffffffffffffffffffff16815260200190815260200160002054905092915050565b60007fd9b67a26000000000000000000000000000000000000000000000000000000007bffffffffffffffffffffffffffffffffffffffffffffffffffffffff1916827bffffffffffffffffffffffffffffffffffffffffffffffffffffffff1916148061056157507f0e89341c000000000000000000000000000000000000000000000000000000007bffffffffffffffffffffffffffffffffffffffffffffffffffffffff1916827bffffffffffffffffffffffffffffffffffffffffffffffffffffffff1916145b8061057157506105708261185f565b5b9050919050565b610580612334565b8160048054905081106105c8576040517f08c379a00000000000000000000000000000000000000000000000000000000081526004016105bf90613623565b60405180910390fd5b60048381548110610602577f4e487b7100000000000000000000000000000000000000000000000000000000600052603260045260246000fd5b906000526020600020906002020160405180604001604052908160008201805461062b90613b48565b80601f016020809104026020016040519081016040528092919081815260200182805461065790613b48565b80156106a45780601f10610679576101008083540402835291602001916106a4565b820191906000526020600020905b81548152906001019060200180831161068757829003601f168201915b505050505081526020016001820180546106bd90613b48565b80601f01602080910402602001604051908101604052809291908181526020018280546106e990613b48565b80156107365780601f1061070b57610100808354040283529160200191610736565b820191906000526020600020905b81548152906001019060200180831161071957829003601f168201915b505050505081525050915050919050565b60606002805461075690613b48565b80601f016020809104026020016040519081016040528092919081815260200182805461078290613b48565b80156107cf5780601f106107a4576101008083540402835291602001916107cf565b820191906000526020600020905b8154815290600101906020018083116107b257829003601f168201915b50505050509050919050565b60606004805480602002602001604051908101604052809291908181526020016000905b82821015610955578382906000526020600020906002020160405180604001604052908160008201805461083290613b48565b80601f016020809104026020016040519081016040528092919081815260200182805461085e90613b48565b80156108ab5780601f10610880576101008083540402835291602001916108ab565b820191906000526020600020905b81548152906001019060200180831161088e57829003601f168201915b505050505081526020016001820180546108c490613b48565b80601f01602080910402602001604051908101604052809291908181526020018280546108f090613b48565b801561093d5780601f106109125761010080835404028352916020019161093d565b820191906000526020600020905b81548152906001019060200180831161092057829003601f168201915b505050505081525050815260200190600101906107ff565b50505050905090565b60606003805480602002602001604051908101604052809291908181526020016000905b82821015610ad857838290600052602060002090600202016040518060400160405290816000820180546109b590613b48565b80601f01602080910402602001604051908101604052809291908181526020018280546109e190613b48565b8015610a2e5780601f10610a0357610100808354040283529160200191610a2e565b820191906000526020600020905b815481529060010190602001808311610a1157829003601f168201915b50505050508152602001600182018054610a4790613b48565b80601f0160208091040260200160405190810160405280929190818152602001828054610a7390613b48565b8015610ac05780601f10610a9557610100808354040283529160200191610ac0565b820191906000526020600020905b815481529060010190602001808311610aa357829003601f168201915b50505050508152505081526020019060010190610982565b50505050905090565b600080835111610b26576040517f08c379a0000000000000000000000000000000000000000000000000000000008152600401610b1d90613743565b60405180910390fd5b6000825111610b6a576040517f08c379a0000000000000000000000000000000000000000000000000000000008152600401610b6190613663565b60405180910390fd5b6000604051806040016040528085815260200184815250905060058190806001815401808255809150506001900390600052602060002090600202016000909190919091506000820151816000019080519060200190610bcb92919061234e565b506020820151816001019080519060200190610be892919061234e565b50505060006001600580549050610bff9190613a5e565b9050809250505092915050565b610c146118c9565b73ffffffffffffffffffffffffffffffffffffffff168573ffffffffffffffffffffffffffffffffffffffff161480610c5a5750610c5985610c546118c9565b61172a565b5b610c99576040517f08c379a0000000000000000000000000000000000000000000000000000000008152600401610c90906136c3565b60405180910390fd5b610ca685858585856118d1565b5050505050565b610cb56123d4565b816003805490508110610cfd576040517f08c379a0000000000000000000000000000000000000000000000000000000008152600401610cf490613623565b60405180910390fd5b60038381548110610d37577f4e487b7100000000000000000000000000000000000000000000000000000000600052603260045260246000fd5b9060005260206000209060020201604051806040016040529081600082018054610d6090613b48565b80601f0160208091040260200160405190810160405280929190818152602001828054610d8c90613b48565b8015610dd95780601f10610dae57610100808354040283529160200191610dd9565b820191906000526020600020905b815481529060010190602001808311610dbc57829003601f168201915b50505050508152602001600182018054610df290613b48565b80601f0160208091040260200160405190810160405280929190818152602001828054610e1e90613b48565b8015610e6b5780601f10610e4057610100808354040283529160200191610e6b565b820191906000526020600020905b815481529060010190602001808311610e4e57829003601f168201915b505050505081525050915050919050565b60608151835114610ec2576040517f08c379a0000000000000000000000000000000000000000000000000000000008152600401610eb990613763565b60405180910390fd5b6000835167ffffffffffffffff811115610f05577f4e487b7100000000000000000000000000000000000000000000000000000000600052604160045260246000fd5b604051908082528060200260200182016040528015610f335781602001602082028036833780820191505090505b50905060005b845181101561102257610fcc858281518110610f7e577f4e487b7100000000000000000000000000000000000000000000000000000000600052603260045260246000fd5b6020026020010151858381518110610fbf577f4e487b7100000000000000000000000000000000000000000000000000000000600052603260045260246000fd5b60200260200101516103cd565b828281518110611005577f4e487b7100000000000000000000000000000000000000000000000000000000600052603260045260246000fd5b6020026020010181815250508061101b90613b7a565b9050610f39565b508091505092915050565b60606005805480602002602001604051908101604052809291908181526020016000905b828210156111a7578382906000526020600020906002020160405180604001604052908160008201805461108490613b48565b80601f01602080910402602001604051908101604052809291908181526020018280546110b090613b48565b80156110fd5780601f106110d2576101008083540402835291602001916110fd565b820191906000526020600020905b8154815290600101906020018083116110e057829003601f168201915b5050505050815260200160018201805461111690613b48565b80601f016020809104026020016040519081016040528092919081815260200182805461114290613b48565b801561118f5780601f106111645761010080835404028352916020019161118f565b820191906000526020600020905b81548152906001019060200180831161117257829003601f168201915b50505050508152505081526020019060010190611051565b50505050905090565b8173ffffffffffffffffffffffffffffffffffffffff166111cf6118c9565b73ffffffffffffffffffffffffffffffffffffffff161415611226576040517f08c379a000000000000000000000000000000000000000000000000000000000815260040161121d90613723565b60405180910390fd5b80600160006112336118c9565b73ffffffffffffffffffffffffffffffffffffffff1673ffffffffffffffffffffffffffffffffffffffff16815260200190815260200160002060008473ffffffffffffffffffffffffffffffffffffffff1673ffffffffffffffffffffffffffffffffffffffff16815260200190815260200160002060006101000a81548160ff0219169083151502179055508173ffffffffffffffffffffffffffffffffffffffff166112e06118c9565b73ffffffffffffffffffffffffffffffffffffffff167f17307eab39ab6107e8899845ad3d59bd9653f200f220920489ca2b5937696c31836040516113259190613586565b60405180910390a35050565b60008060405180604001604052808781526020018681525090506003819080600181540180825580915050600190039060005260206000209060020201600090919091909150600082015181600001908051906020019061139392919061234e565b5060208201518160010190805190602001906113b092919061234e565b505050600060016003805490506113c79190613a5e565b90506113d16118c9565b6008600083815260200190815260200160002060006101000a81548173ffffffffffffffffffffffffffffffffffffffff021916908373ffffffffffffffffffffffffffffffffffffffff160217905550600092505050949350505050565b611438612334565b816005805490508110611480576040517f08c379a000000000000000000000000000000000000000000000000000000000815260040161147790613623565b60405180910390fd5b600583815481106114ba577f4e487b7100000000000000000000000000000000000000000000000000000000600052603260045260246000fd5b90600052602060002090600202016040518060400160405290816000820180546114e390613b48565b80601f016020809104026020016040519081016040528092919081815260200182805461150f90613b48565b801561155c5780601f106115315761010080835404028352916020019161155c565b820191906000526020600020905b81548152906001019060200180831161153f57829003601f168201915b5050505050815260200160018201805461157590613b48565b80601f01602080910402602001604051908101604052809291908181526020018280546115a190613b48565b80156115ee5780601f106115c3576101008083540402835291602001916115ee565b820191906000526020600020905b8154815290600101906020018083116115d157829003601f168201915b505050505081525050915050919050565b600080835111611644576040517f08c379a000000000000000000000000000000000000000000000000000000000815260040161163b90613683565b60405180910390fd5b6000825111611688576040517f08c379a000000000000000000000000000000000000000000000000000000000815260040161167f90613703565b60405180910390fd5b60006040518060400160405280858152602001848152509050600481908060018154018082558091505060019003906000526020600020906002020160009091909190915060008201518160000190805190602001906116e992919061234e565b50602082015181600101908051906020019061170692919061234e565b5050506000600160048054905061171d9190613a5e565b9050809250505092915050565b6000600160008473ffffffffffffffffffffffffffffffffffffffff1673ffffffffffffffffffffffffffffffffffffffff16815260200190815260200160002060008373ffffffffffffffffffffffffffffffffffffffff1673ffffffffffffffffffffffffffffffffffffffff16815260200190815260200160002060009054906101000a900460ff16905092915050565b6117c66118c9565b73ffffffffffffffffffffffffffffffffffffffff168573ffffffffffffffffffffffffffffffffffffffff16148061180c575061180b856118066118c9565b61172a565b5b61184b576040517f08c379a000000000000000000000000000000000000000000000000000000000815260040161184290613643565b60405180910390fd5b6118588585858585611c31565b5050505050565b60007f01ffc9a7000000000000000000000000000000000000000000000000000000007bffffffffffffffffffffffffffffffffffffffffffffffffffffffff1916827bffffffffffffffffffffffffffffffffffffffffffffffffffffffff1916149050919050565b600033905090565b8151835114611915576040517f08c379a000000000000000000000000000000000000000000000000000000000815260040161190c90613783565b60405180910390fd5b600073ffffffffffffffffffffffffffffffffffffffff168473ffffffffffffffffffffffffffffffffffffffff161415611985576040517f08c379a000000000000000000000000000000000000000000000000000000000815260040161197c906136a3565b60405180910390fd5b600061198f6118c9565b905061199f818787878787611eb3565b60005b8451811015611b9c5760008582815181106119e6577f4e487b7100000000000000000000000000000000000000000000000000000000600052603260045260246000fd5b602002602001015190506000858381518110611a2b577f4e487b7100000000000000000000000000000000000000000000000000000000600052603260045260246000fd5b60200260200101519050600080600084815260200190815260200160002060008b73ffffffffffffffffffffffffffffffffffffffff1673ffffffffffffffffffffffffffffffffffffffff16815260200190815260200160002054905081811015611acc576040517f08c379a0000000000000000000000000000000000000000000000000000000008152600401611ac3906136e3565b60405180910390fd5b81810360008085815260200190815260200160002060008c73ffffffffffffffffffffffffffffffffffffffff1673ffffffffffffffffffffffffffffffffffffffff168152602001908152602001600020819055508160008085815260200190815260200160002060008b73ffffffffffffffffffffffffffffffffffffffff1673ffffffffffffffffffffffffffffffffffffffff1681526020019081526020016000206000828254611b819190613a08565b9250508190555050505080611b9590613b7a565b90506119a2565b508473ffffffffffffffffffffffffffffffffffffffff168673ffffffffffffffffffffffffffffffffffffffff168273ffffffffffffffffffffffffffffffffffffffff167f4a39dc06d4c0dbc64b70af90fd698a233a518aa5d07e595d983b8c0526c8f7fb8787604051611c1392919061354f565b60405180910390a4611c29818787878787611ebb565b505050505050565b600073ffffffffffffffffffffffffffffffffffffffff168473ffffffffffffffffffffffffffffffffffffffff161415611ca1576040517f08c379a0000000000000000000000000000000000000000000000000000000008152600401611c98906136a3565b60405180910390fd5b6000611cab6118c9565b9050611ccb818787611cbc8861208b565b611cc58861208b565b87611eb3565b600080600086815260200190815260200160002060008873ffffffffffffffffffffffffffffffffffffffff1673ffffffffffffffffffffffffffffffffffffffff16815260200190815260200160002054905083811015611d62576040517f08c379a0000000000000000000000000000000000000000000000000000000008152600401611d59906136e3565b60405180910390fd5b83810360008087815260200190815260200160002060008973ffffffffffffffffffffffffffffffffffffffff1673ffffffffffffffffffffffffffffffffffffffff168152602001908152602001600020819055508360008087815260200190815260200160002060008873ffffffffffffffffffffffffffffffffffffffff1673ffffffffffffffffffffffffffffffffffffffff1681526020019081526020016000206000828254611e179190613a08565b925050819055508573ffffffffffffffffffffffffffffffffffffffff168773ffffffffffffffffffffffffffffffffffffffff168373ffffffffffffffffffffffffffffffffffffffff167fc3d58168c5ae7397731d063d5bbf3d657854427343f4c083240f7aacaa2d0f628888604051611e94929190613802565b60405180910390a4611eaa828888888888612151565b50505050505050565b505050505050565b611eda8473ffffffffffffffffffffffffffffffffffffffff16612321565b15612083578373ffffffffffffffffffffffffffffffffffffffff1663bc197c8187878686866040518663ffffffff1660e01b8152600401611f20959493929190613427565b602060405180830381600087803b158015611f3a57600080fd5b505af1925050508015611f6b57506040513d601f19601f82011682018060405250810190611f689190612907565b60015b611ffa57611f77613c6e565b80611f825750611fbf565b806040517f08c379a0000000000000000000000000000000000000000000000000000000008152600401611fb691906135a1565b60405180910390fd5b6040517f08c379a0000000000000000000000000000000000000000000000000000000008152600401611ff1906135c3565b60405180910390fd5b63bc197c8160e01b7bffffffffffffffffffffffffffffffffffffffffffffffffffffffff1916817bffffffffffffffffffffffffffffffffffffffffffffffffffffffff191614612081576040517f08c379a0000000000000000000000000000000000000000000000000000000008152600401612078906135e3565b60405180910390fd5b505b505050505050565b60606000600167ffffffffffffffff8111156120d0577f4e487b7100000000000000000000000000000000000000000000000000000000600052604160045260246000fd5b6040519080825280602002602001820160405280156120fe5781602001602082028036833780820191505090505b509050828160008151811061213c577f4e487b7100000000000000000000000000000000000000000000000000000000600052603260045260246000fd5b60200260200101818152505080915050919050565b6121708473ffffffffffffffffffffffffffffffffffffffff16612321565b15612319578373ffffffffffffffffffffffffffffffffffffffff1663f23a6e6187878686866040518663ffffffff1660e01b81526004016121b695949392919061348f565b602060405180830381600087803b1580156121d057600080fd5b505af192505050801561220157506040513d601f19601f820116820180604052508101906121fe9190612907565b60015b6122905761220d613c6e565b806122185750612255565b806040517f08c379a000000000000000000000000000000000000000000000000000000000815260040161224c91906135a1565b60405180910390fd5b6040517f08c379a0000000000000000000000000000000000000000000000000000000008152600401612287906135c3565b60405180910390fd5b63f23a6e6160e01b7bffffffffffffffffffffffffffffffffffffffffffffffffffffffff1916817bffffffffffffffffffffffffffffffffffffffffffffffffffffffff191614612317576040517f08c379a000000000000000000000000000000000000000000000000000000000815260040161230e906135e3565b60405180910390fd5b505b505050505050565b600080823b905060008111915050919050565b604051806040016040528060608152602001606081525090565b82805461235a90613b48565b90600052602060002090601f01602090048101928261237c57600085556123c3565b82601f1061239557805160ff19168380011785556123c3565b828001600101855582156123c3579182015b828111156123c25782518255916020019190600101906123a7565b5b5090506123d091906123ee565b5090565b604051806040016040528060608152602001606081525090565b5b808211156124075760008160009055506001016123ef565b5090565b600061241e6124198461385c565b61382b565b9050808382526020820190508285602086028201111561243d57600080fd5b60005b8581101561246d5781612453888261255f565b845260208401935060208301925050600181019050612440565b5050509392505050565b600061248a61248584613888565b61382b565b905080838252602082019050828560208602820111156124a957600080fd5b60005b858110156124d957816124bf888261265b565b8452602084019350602083019250506001810190506124ac565b5050509392505050565b60006124f66124f1846138b4565b61382b565b90508281526020810184848401111561250e57600080fd5b612519848285613b06565b509392505050565b600061253461252f846138e4565b61382b565b90508281526020810184848401111561254c57600080fd5b612557848285613b06565b509392505050565b60008135905061256e81613d24565b92915050565b600082601f83011261258557600080fd5b813561259584826020860161240b565b91505092915050565b600082601f8301126125af57600080fd5b81356125bf848260208601612477565b91505092915050565b6000813590506125d781613d3b565b92915050565b6000813590506125ec81613d52565b92915050565b60008151905061260181613d52565b92915050565b600082601f83011261261857600080fd5b81356126288482602086016124e3565b91505092915050565b600082601f83011261264257600080fd5b8135612652848260208601612521565b91505092915050565b60008135905061266a81613d69565b92915050565b6000806040838503121561268357600080fd5b60006126918582860161255f565b92505060206126a28582860161255f565b9150509250929050565b600080600080600060a086880312156126c457600080fd5b60006126d28882890161255f565b95505060206126e38882890161255f565b945050604086013567ffffffffffffffff81111561270057600080fd5b61270c8882890161259e565b935050606086013567ffffffffffffffff81111561272957600080fd5b6127358882890161259e565b925050608086013567ffffffffffffffff81111561275257600080fd5b61275e88828901612607565b9150509295509295909350565b600080600080600060a0868803121561278357600080fd5b60006127918882890161255f565b95505060206127a28882890161255f565b94505060406127b38882890161265b565b93505060606127c48882890161265b565b925050608086013567ffffffffffffffff8111156127e157600080fd5b6127ed88828901612607565b9150509295509295909350565b6000806040838503121561280d57600080fd5b600061281b8582860161255f565b925050602061282c858286016125c8565b9150509250929050565b6000806040838503121561284957600080fd5b60006128578582860161255f565b92505060206128688582860161265b565b9150509250929050565b6000806040838503121561288557600080fd5b600083013567ffffffffffffffff81111561289f57600080fd5b6128ab85828601612574565b925050602083013567ffffffffffffffff8111156128c857600080fd5b6128d48582860161259e565b9150509250929050565b6000602082840312156128f057600080fd5b60006128fe848285016125dd565b91505092915050565b60006020828403121561291957600080fd5b6000612927848285016125f2565b91505092915050565b6000806040838503121561294357600080fd5b600083013567ffffffffffffffff81111561295d57600080fd5b61296985828601612631565b925050602083013567ffffffffffffffff81111561298657600080fd5b61299285828601612631565b9150509250929050565b600080600080608085870312156129b257600080fd5b600085013567ffffffffffffffff8111156129cc57600080fd5b6129d887828801612631565b945050602085013567ffffffffffffffff8111156129f557600080fd5b612a0187828801612631565b935050604085013567ffffffffffffffff811115612a1e57600080fd5b612a2a8782880161259e565b925050606085013567ffffffffffffffff811115612a4757600080fd5b612a538782880161259e565b91505092959194509250565b600060208284031215612a7157600080fd5b6000612a7f8482850161265b565b91505092915050565b6000612a9483836132f9565b905092915050565b6000612aa88383613381565b905092915050565b6000612abc8383613409565b60208301905092915050565b612ad181613a92565b82525050565b6000612ae282613944565b612aec81856139a2565b935083602082028501612afe85613914565b8060005b85811015612b3a5784840389528151612b1b8582612a88565b9450612b268361397b565b925060208a01995050600181019050612b02565b50829750879550505050505092915050565b6000612b578261394f565b612b6181856139b3565b935083602082028501612b7385613924565b8060005b85811015612baf5784840389528151612b908582612a9c565b9450612b9b83613988565b925060208a01995050600181019050612b77565b50829750879550505050505092915050565b6000612bcc8261395a565b612bd681856139c4565b9350612be183613934565b8060005b83811015612c12578151612bf98882612ab0565b9750612c0483613995565b925050600181019050612be5565b5085935050505092915050565b612c2881613aa4565b82525050565b6000612c3982613965565b612c4381856139d5565b9350612c53818560208601613b15565b612c5c81613c50565b840191505092915050565b6000612c7282613970565b612c7c81856139e6565b9350612c8c818560208601613b15565b612c9581613c50565b840191505092915050565b6000612cab82613970565b612cb581856139f7565b9350612cc5818560208601613b15565b612cce81613c50565b840191505092915050565b6000612ce66034836139f7565b91507f455243313135353a207472616e7366657220746f206e6f6e204552433131353560008301527f526563656976657220696d706c656d656e7465720000000000000000000000006020830152604082019050919050565b6000612d4c6028836139f7565b91507f455243313135353a204552433131353552656365697665722072656a6563746560008301527f6420746f6b656e730000000000000000000000000000000000000000000000006020830152604082019050919050565b6000612db2602b836139f7565b91507f455243313135353a2062616c616e636520717565727920666f7220746865207a60008301527f65726f20616464726573730000000000000000000000000000000000000000006020830152604082019050919050565b6000612e18602a836139f7565b91507f436f6d706574656e637953797374656d3a20436f6d706574656e637920646f6560008301527f73206e6f742065786974000000000000000000000000000000000000000000006020830152604082019050919050565b6000612e7e6029836139f7565b91507f455243313135353a2063616c6c6572206973206e6f74206f776e6572206e6f7260008301527f20617070726f76656400000000000000000000000000000000000000000000006020830152604082019050919050565b6000612ee4603c836139f7565b91507f436f6d706574656e637953797374656d3a20446973706f736974696f6e73206160008301527f6e6f746174696f6e2073686f756c64206e6f7420626520656d707479000000006020830152604082019050919050565b6000612f4a603d836139f7565b91507f436f6d706574656e637953797374656d3a204b6e6f776c6564676520656c656d60008301527f656e7473206e616d652073686f756c64206e6f7420626520656d7074790000006020830152604082019050919050565b6000612fb06025836139f7565b91507f455243313135353a207472616e7366657220746f20746865207a65726f20616460008301527f64726573730000000000000000000000000000000000000000000000000000006020830152604082019050919050565b60006130166032836139f7565b91507f455243313135353a207472616e736665722063616c6c6572206973206e6f742060008301527f6f776e6572206e6f7220617070726f76656400000000000000000000000000006020830152604082019050919050565b600061307c602a836139f7565b91507f455243313135353a20696e73756666696369656e742062616c616e636520666f60008301527f72207472616e73666572000000000000000000000000000000000000000000006020830152604082019050919050565b60006130e26042836139f7565b91507f436f6d706574656e637953797374656d3a204b6e6f776c6564676520656c656d60008301527f656e747320616e6f746174696f6e2073686f756c64206e6f7420626520656d7060208301527f74790000000000000000000000000000000000000000000000000000000000006040830152606082019050919050565b600061316e6029836139f7565b91507f455243313135353a2073657474696e6720617070726f76616c2073746174757360008301527f20666f722073656c6600000000000000000000000000000000000000000000006020830152604082019050919050565b60006131d46037836139f7565b91507f436f6d706574656e637953797374656d3a20446973706f736974696f6e73206e60008301527f616d652073686f756c64206e6f7420626520656d7074790000000000000000006020830152604082019050919050565b600061323a6029836139f7565b91507f455243313135353a206163636f756e747320616e6420696473206c656e67746860008301527f206d69736d6174636800000000000000000000000000000000000000000000006020830152604082019050919050565b60006132a06028836139f7565b91507f455243313135353a2069647320616e6420616d6f756e7473206c656e6774682060008301527f6d69736d617463680000000000000000000000000000000000000000000000006020830152604082019050919050565b600060408301600083015184820360008601526133168282612c67565b915050602083015184820360208601526133308282612c67565b9150508091505092915050565b6000604083016000830151848203600086015261335a8282612c67565b915050602083015184820360208601526133748282612c67565b9150508091505092915050565b6000604083016000830151848203600086015261339e8282612c67565b915050602083015184820360208601526133b88282612c67565b9150508091505092915050565b600060408301600083015184820360008601526133e28282612c67565b915050602083015184820360208601526133fc8282612c67565b9150508091505092915050565b61341281613afc565b82525050565b61342181613afc565b82525050565b600060a08201905061343c6000830188612ac8565b6134496020830187612ac8565b818103604083015261345b8186612bc1565b9050818103606083015261346f8185612bc1565b905081810360808301526134838184612c2e565b90509695505050505050565b600060a0820190506134a46000830188612ac8565b6134b16020830187612ac8565b6134be6040830186613418565b6134cb6060830185613418565b81810360808301526134dd8184612c2e565b90509695505050505050565b600060208201905081810360008301526135038184612ad7565b905092915050565b600060208201905081810360008301526135258184612b4c565b905092915050565b600060208201905081810360008301526135478184612bc1565b905092915050565b600060408201905081810360008301526135698185612bc1565b9050818103602083015261357d8184612bc1565b90509392505050565b600060208201905061359b6000830184612c1f565b92915050565b600060208201905081810360008301526135bb8184612ca0565b905092915050565b600060208201905081810360008301526135dc81612cd9565b9050919050565b600060208201905081810360008301526135fc81612d3f565b9050919050565b6000602082019050818103600083015261361c81612da5565b9050919050565b6000602082019050818103600083015261363c81612e0b565b9050919050565b6000602082019050818103600083015261365c81612e71565b9050919050565b6000602082019050818103600083015261367c81612ed7565b9050919050565b6000602082019050818103600083015261369c81612f3d565b9050919050565b600060208201905081810360008301526136bc81612fa3565b9050919050565b600060208201905081810360008301526136dc81613009565b9050919050565b600060208201905081810360008301526136fc8161306f565b9050919050565b6000602082019050818103600083015261371c816130d5565b9050919050565b6000602082019050818103600083015261373c81613161565b9050919050565b6000602082019050818103600083015261375c816131c7565b9050919050565b6000602082019050818103600083015261377c8161322d565b9050919050565b6000602082019050818103600083015261379c81613293565b9050919050565b600060208201905081810360008301526137bd818461333d565b905092915050565b600060208201905081810360008301526137df81846133c5565b905092915050565b60006020820190506137fc6000830184613418565b92915050565b60006040820190506138176000830185613418565b6138246020830184613418565b9392505050565b6000604051905081810181811067ffffffffffffffff8211171561385257613851613c21565b5b8060405250919050565b600067ffffffffffffffff82111561387757613876613c21565b5b602082029050602081019050919050565b600067ffffffffffffffff8211156138a3576138a2613c21565b5b602082029050602081019050919050565b600067ffffffffffffffff8211156138cf576138ce613c21565b5b601f19601f8301169050602081019050919050565b600067ffffffffffffffff8211156138ff576138fe613c21565b5b601f19601f8301169050602081019050919050565b6000819050602082019050919050565b6000819050602082019050919050565b6000819050602082019050919050565b600081519050919050565b600081519050919050565b600081519050919050565b600081519050919050565b600081519050919050565b6000602082019050919050565b6000602082019050919050565b6000602082019050919050565b600082825260208201905092915050565b600082825260208201905092915050565b600082825260208201905092915050565b600082825260208201905092915050565b600082825260208201905092915050565b600082825260208201905092915050565b6000613a1382613afc565b9150613a1e83613afc565b9250827fffffffffffffffffffffffffffffffffffffffffffffffffffffffffffffffff03821115613a5357613a52613bc3565b5b828201905092915050565b6000613a6982613afc565b9150613a7483613afc565b925082821015613a8757613a86613bc3565b5b828203905092915050565b6000613a9d82613adc565b9050919050565b60008115159050919050565b60007fffffffff0000000000000000000000000000000000000000000000000000000082169050919050565b600073ffffffffffffffffffffffffffffffffffffffff82169050919050565b6000819050919050565b82818337600083830152505050565b60005b83811015613b33578082015181840152602081019050613b18565b83811115613b42576000848401525b50505050565b60006002820490506001821680613b6057607f821691505b60208210811415613b7457613b73613bf2565b5b50919050565b6000613b8582613afc565b91507fffffffffffffffffffffffffffffffffffffffffffffffffffffffffffffffff821415613bb857613bb7613bc3565b5b600182019050919050565b7f4e487b7100000000000000000000000000000000000000000000000000000000600052601160045260246000fd5b7f4e487b7100000000000000000000000000000000000000000000000000000000600052602260045260246000fd5b7f4e487b7100000000000000000000000000000000000000000000000000000000600052604160045260246000fd5b6000601f19601f8301169050919050565b60008160e01c9050919050565b600060443d1015613c7e57613d21565b60046000803e613c8f600051613c61565b6308c379a08114613ca05750613d21565b60405160043d036004823e80513d602482011167ffffffffffffffff82111715613ccc57505050613d21565b808201805167ffffffffffffffff811115613ceb575050505050613d21565b8060208301013d8501811115613d0657505050505050613d21565b613d0f82613c50565b60208401016040528296505050505050505b90565b613d2d81613a92565b8114613d3857600080fd5b50565b613d4481613aa4565b8114613d4f57600080fd5b50565b613d5b81613ab0565b8114613d6657600080fd5b50565b613d7281613afc565b8114613d7d57600080fd5b5056fea2646970667358221220fbf4c5c0a764e95ce5c133ec50a1b96ba69649cf79a34784b7b9b0a3eec8c31264736f6c63430008000033",
  "immutableReferences": {},
  "source": "pragma solidity ^0.8.0;\r\n\r\n//import 'https://github.com/OpenZeppelin/openzeppelin-contracts/blob/master/contracts/token/ERC1155/ERC1155.sol';\r\nimport \"@openzeppelin/contracts/token/ERC1155/ERC1155.sol\";\r\n\r\ncontract CompetencySystem is ERC1155{\r\n    \r\n    /* Skill level, using Blooms taxonomi\r\n    0. Remembering\r\n    1. Understanding\r\n    2. Applying\r\n    3. Analyzing\r\n    4. Evaluating\r\n    5. Creating\r\n    */\r\n    \r\n    ////////////////////CompetencySystem////////////////////\r\n    \r\n    /*Competency*/\r\n    struct Registry {\r\n        string name; \r\n        string anotation;\r\n    }\r\n    \r\n    struct Competency {\r\n        string name; \r\n        string statement;\r\n        //uint[] knowledgeElement;\r\n        //uint[] dispositions;\r\n    }\r\n    \r\n    /* skill level*/\r\n    \r\n    struct SkillRecord {\r\n        uint256[] value;\r\n        bool byValidAccount;\r\n        address autor;\r\n    }\r\n    \r\n    Competency[] _competencys;\r\n    Registry[] _knowledgeElements;\r\n    Registry[] _dispositions;\r\n    \r\n    mapping(uint256 => mapping(address => uint[])) private _skillLevels; //Map to the array of records\r\n    SkillRecord[] _skillRecords;\r\n    \r\n    /////////////////////Permissions/////////////////////////\r\n    \r\n    mapping(uint256 => address) private _competencyCreator;\r\n    \r\n    mapping(uint256 => address) private _competencyRepresentative;\r\n    \r\n    mapping(uint256 => mapping(address => uint256)) private _canTransfer; \r\n    \r\n    mapping(bytes32 => mapping(address => bool)) private _canEditByCreator;\r\n    mapping(bytes32 => mapping(address => bool)) private _canEditByOwner;\r\n    \r\n\r\n    /////////////////////Modifiers/////////////////////////\r\n    \r\n    modifier isCompetencyCreator(address acount, uint256 competencyId) {\r\n        require( acount == _competencyCreator[competencyId], \"CompetencySystem: Only competency creator\");\r\n        _;\r\n    }\r\n    //check\r\n    modifier isCompetencysCreator(address acount, uint256[] memory competencyIds) {\r\n        for (uint i = 0; i < competencyIds.length; i++ ){\r\n            require( acount == _competencyCreator[competencyIds[i]], \r\n            \"CompetencySystem: Only competency creator\");\r\n        }\r\n        _;\r\n    }\r\n    modifier isCompetencyRepresentative(address acount, uint256 competencyId) {\r\n        require( acount == _competencyRepresentative[competencyId], \"CompetencySystem: Only competency creator\");\r\n        _;\r\n    }  \r\n    //check\r\n    modifier isCompetencysRepresentative(address acount, uint256[] memory competencyIds) {\r\n        for (uint i = 0; i < competencyIds.length; i++ ){\r\n            require( acount == _competencyRepresentative[competencyIds[i]], \r\n            \"CompetencySystem: Only competency creator\");\r\n        }\r\n        _;\r\n    } \r\n    modifier dispositionExist(uint256 dispositionId) {\r\n        require( dispositionId < _dispositions.length, \r\n        \"CompetencySystem: Competency does not exit\");\r\n        _;\r\n    }\r\n    modifier knowledgeElementExist(uint256 knowledgeElementId) {\r\n        require( knowledgeElementId < _knowledgeElements.length, \r\n        \"CompetencySystem: Competency does not exit\");\r\n        _;\r\n    }    \r\n    modifier competencyExist(uint256 competencyId) {\r\n        require( competencyId < _competencys.length, \r\n        \"CompetencySystem: Competency does not exit\");\r\n        _;\r\n    }    \r\n    modifier competencysExist(uint256[] memory competencyIds) {\r\n        for (uint i = 0; i < competencyIds.length; i++ ){\r\n            require( competencyIds[i] < _competencys.length,\r\n            \"CompetencySystem: Competency(s) does not exit\");\r\n        }\r\n        _;\r\n    }\r\n    modifier skillLevelRecordExist(uint pos){\r\n        require( pos < _skillRecords.length, \r\n        \"CompetencySystem: Competency does not exit\");\r\n        _;\r\n    }\r\n    modifier canTransfer(uint256 competencyId, uint256 amount ,  address sender) {\r\n        require(_canTransfer[competencyId][sender] - amount > 0, \"CompetencySystem: Doesn't have permission to transfer\");\r\n        _;\r\n    }\r\n    modifier canTransferBatch(uint256[] memory  competencyIds, uint256[] memory  amounts, address sender) {\r\n        for (uint i = 0; i < competencyIds.length; i++ ){\r\n            require(_canTransfer[competencyIds[i]][sender] - amounts[i] > 0 , \"CompetencySystem: Doesn't have permission(s) to transfer\");\r\n        }\r\n        _;\r\n    }\r\n    modifier hasCompetency(address acount, uint256 competencyId) {\r\n        require(balanceOf(acount, competencyId) > 0, \r\n        \"CompetencySystem: Doesn't have the competency\");\r\n        _;\r\n    }\r\n    modifier canEditByOwner(address acount, address owner, uint256 competencyId) {\r\n        require(_canEditByOwner[keccak256(abi.encodePacked(competencyId, owner))][acount],\r\n        \"CompetencySystem: Doesn't have owners permission to edit\");\r\n        _;\r\n    }\r\n    modifier canGivePermission(address acount, uint256 competencyId) {\r\n        require( (acount == _competencyCreator[competencyId]) || (acount == _competencyRepresentative[competencyId]) , \r\n        \"CompetencySystem: Can't give permission to edit\");\r\n        _;\r\n    }\r\n    modifier areSkillLevelsValid(uint256[] memory skillLevels) {\r\n        for (uint i = 0; i < skillLevels.length; i++ ){\r\n            require( (skillLevels[i] < 6), \"CompetencySystem: Invalid skill level\");\r\n        }\r\n        _;\r\n    }\r\n    \r\n    /////////////////////Methods/////////////////////////\r\n    constructor() ERC1155(\"\") {}\r\n    //Como UVG (ente creador de competencias), deseo poder crear competencias, para definir los saberes qu se pueden obtener en mi institucin.\r\n    function createKnowledgeElement(\r\n        string memory name,\r\n        string memory anotation\r\n    ) public returns (uint256) {\r\n        require (bytes(name).length > 0, \"CompetencySystem: Knowledge elements name should not be empty\");\r\n        require (bytes(anotation).length > 0, \"CompetencySystem: Knowledge elements anotation should not be empty\");\r\n        Registry memory _knowledgeElement = Registry(name, anotation);\r\n        //Add to the array of KnowledgeElement\r\n        _knowledgeElements.push(_knowledgeElement);\r\n        uint256 pos = _knowledgeElements.length - 1;\r\n        return pos;\r\n    }\r\n    \r\n    function getKnowledgeElement(uint pos) knowledgeElementExist(pos) public view returns (Registry memory){\r\n        return _knowledgeElements[pos];\r\n    }\r\n    \r\n    function getKnowledgeElements() public view returns (Registry[] memory){\r\n        return _knowledgeElements;\r\n    }\r\n    \r\n    function createDispositions(\r\n        string memory name,\r\n        string memory anotation\r\n    ) public returns (uint256) {\r\n        require (bytes(name).length > 0, \"CompetencySystem: Dispositions name should not be empty\");\r\n        require (bytes(anotation).length > 0, \"CompetencySystem: Dispositions anotation should not be empty\");\r\n        Registry memory _disposition = Registry(name, anotation);\r\n        //Add to the array of KnowledgeElement\r\n        _dispositions.push(_disposition);\r\n        uint256 pos = _dispositions.length - 1;\r\n        return pos;\r\n    }\r\n    \r\n    function getDisposition(uint pos) dispositionExist(pos) public view returns (Registry memory){\r\n        return _dispositions[pos];\r\n    }\r\n    \r\n    function getDispositions() public view returns (Registry[] memory){\r\n        return _dispositions;\r\n    }\r\n    \r\n    function createCompetency(\r\n        //address from,\r\n        string memory name,\r\n        string memory statement,\r\n        uint256[] memory knowledgeElement,\r\n        uint256[] memory dispositions\r\n    ) public returns (uint256) {\r\n        //Create competency\r\n        \r\n        Competency memory _competencyDescription = Competency(name, statement); //, dispositions);\r\n        //Add to the array of competencys\r\n        _competencys.push(_competencyDescription);\r\n        uint256 pos = _competencys.length - 1;\r\n        //Set owner\r\n        _competencyCreator[pos] = _msgSender();\r\n        return 0;\r\n    }\r\n    \r\n    function getCompetency(uint pos) competencyExist(pos) public view returns (Competency memory){\r\n        return _competencys[pos];\r\n    }\r\n    \r\n    function getCompetencys() public view returns (Competency[] memory){\r\n        return _competencys;\r\n    }\r\n    \r\n    /*\r\n    function _setSkillLevel(\r\n        address from, //Who is updating the skill Values\r\n        address owner,\r\n        uint256[] memory skillValues,\r\n        uint256 competencyId,\r\n        bool hasPermission\r\n    ) private  {\r\n        bool _hasPermission = hasPermission;\r\n        SkillRecord memory _skillLevel = SkillRecord(skillValues, _hasPermission, from);\r\n        _skillRecords.push(_skillLevel);\r\n        uint pos = _skillRecords.length - 1;\r\n        uint[] storage tempArray = _skillLevels[competencyId][owner];\r\n        tempArray.push(pos);\r\n        _skillLevels[competencyId][owner] = tempArray;\r\n    }\r\n    \r\n    //Add validation\r\n    function getSkillLevel(address owner, uint256 skillId) public view returns (uint[] memory){\r\n        return _skillLevels[skillId][owner];\r\n    }\r\n    \r\n    function getSkillLevelRecord(uint256 pos) skillLevelRecordExist(pos) public view returns (SkillRecord memory){\r\n        return _skillRecords[pos];\r\n    }\r\n    \r\n    function safeTransferFrom( //Award competency\r\n        address from,\r\n        address to,\r\n        uint256 id,\r\n        uint256 amount,\r\n        bytes memory data\r\n    ) public virtual override {\r\n        (from); (to); (id); (amount); (data);\r\n        require( false, \"CompetencySystem: Method is not allowed\" );\r\n    }\r\n\r\n    function safeBatchTransferFrom( //Award competencys\r\n        address from,\r\n        address to,\r\n        uint256[] memory ids,\r\n        uint256[] memory amounts,\r\n        bytes memory data\r\n    ) public virtual override {\r\n        (from); (to); (ids); (amounts); (data);\r\n        require( false, \"CompetencySystem: Method is not allowed\" );\r\n    }\r\n    \r\n    function awardCompetency(\r\n        address from,\r\n        address to,\r\n        uint256 competencyId,\r\n        uint256[] memory skillLevels,\r\n        bytes memory data\r\n    ) public competencyExist(competencyId) canTransfer(competencyId, 1 ,from) areSkillLevelsValid(skillLevels) {\r\n        require(\r\n            from == _msgSender() || isApprovedForAll(from, _msgSender()),\r\n            \"ERC1155: caller is not owner nor approved\"\r\n        );\r\n        _safeTransferFrom(from, to, competencyId, 1, data);\r\n        _canTransfer[competencyId][from] = _canTransfer[competencyId][from] - 1;\r\n        _setSkillLevel(from, to ,skillLevels, competencyId, true);\r\n    }\r\n    \r\n    function givePermissionFromOwner(\r\n        address from,\r\n        address to,\r\n        uint256 competencyId\r\n    ) public competencyExist(competencyId) hasCompetency(from ,competencyId) {\r\n        _canEditByOwner[keccak256(abi.encodePacked(competencyId, from))][to] = true;\r\n    }\r\n    \r\n    \r\n    function givePermissionFromCreator(\r\n        address from, // who is granting the permission\r\n        address owner, // who is the competency owner\r\n        address to, // to whom the permission is been granted\r\n        uint256 competencyId \r\n    ) public competencyExist(competencyId) canGivePermission(from, competencyId){\r\n        require(\r\n            from == _msgSender() || isApprovedForAll(from, _msgSender()),\r\n            \"ERC1155: transfer caller is not owner nor approved\"\r\n        );\r\n        _canEditByCreator[keccak256(abi.encodePacked(competencyId, owner))][to] = true;\r\n    }\r\n    \r\n    //Dosent allow operator\r\n    function updateSkillValues(\r\n        address from, //Who is updating the skill Values\r\n        address owner, //Who is the competecyOwner\r\n        uint256 competencyId,\r\n        uint256[] memory skillValues\r\n    ) public competencyExist(competencyId) canEditByOwner(from, owner, competencyId) {\r\n        bool hasPermission = _canEditByCreator[keccak256(abi.encodePacked(competencyId, owner))][_msgSender()];\r\n        _setSkillLevel(from, owner,skillValues, competencyId, hasPermission);\r\n    }\r\n    \r\n    function asignTransferRights(\r\n        address from,\r\n        address to,\r\n        uint256 competencyId,\r\n        uint256 amount\r\n    ) public canGivePermission(from, competencyId) competencyExist(competencyId) {\r\n        require(\r\n            from == _msgSender() || isApprovedForAll(from, _msgSender()),\r\n            \"ERC1155: caller is not owner nor approved\"\r\n        );\r\n       _canTransfer[competencyId][to] = amount;\r\n    }*/\r\n}",
  "sourcePath": "/home/paul/Documents/tesisApi/Truffle/contracts/CompetencySystem.sol",
  "compiler": {
    "name": "solc",
    "version": "0.8.0+commit.c7dfd78e.Emscripten.clang"
  },
  "schemaVersion": "3.4.3",
  "updatedAt": "2021-10-06T20:09:11.479Z",
  "networkType": "ethereum",
  "devdoc": {
    "kind": "dev",
    "methods": {
      "balanceOf(address,uint256)": {
        "details": "See {IERC1155-balanceOf}. Requirements: - `account` cannot be the zero address."
      },
      "balanceOfBatch(address[],uint256[])": {
        "details": "See {IERC1155-balanceOfBatch}. Requirements: - `accounts` and `ids` must have the same length."
      },
      "isApprovedForAll(address,address)": {
        "details": "See {IERC1155-isApprovedForAll}."
      },
      "safeBatchTransferFrom(address,address,uint256[],uint256[],bytes)": {
        "details": "See {IERC1155-safeBatchTransferFrom}."
      },
      "safeTransferFrom(address,address,uint256,uint256,bytes)": {
        "details": "See {IERC1155-safeTransferFrom}."
      },
      "setApprovalForAll(address,bool)": {
        "details": "See {IERC1155-setApprovalForAll}."
      },
      "supportsInterface(bytes4)": {
        "details": "See {IERC165-supportsInterface}."
      },
      "uri(uint256)": {
        "details": "See {IERC1155MetadataURI-uri}. This implementation returns the same URI for *all* token types. It relies on the token type ID substitution mechanism https://eips.ethereum.org/EIPS/eip-1155#metadata[defined in the EIP]. Clients calling this function must replace the `\\{id\\}` substring with the actual token type ID."
      }
    },
    "version": 1
  },
  "userdoc": {
    "kind": "user",
    "methods": {},
    "version": 1
  }
}