{
  "contractName": "CompetencySystem",
  "abi": [
    {
      "inputs": [],
      "stateMutability": "nonpayable",
      "type": "constructor"
    },
    {
      "anonymous": false,
      "inputs": [
        {
          "indexed": true,
          "internalType": "address",
          "name": "account",
          "type": "address"
        },
        {
          "indexed": true,
          "internalType": "address",
          "name": "operator",
          "type": "address"
        },
        {
          "indexed": false,
          "internalType": "bool",
          "name": "approved",
          "type": "bool"
        }
      ],
      "name": "ApprovalForAll",
      "type": "event"
    },
    {
      "anonymous": false,
      "inputs": [
        {
          "indexed": true,
          "internalType": "address",
          "name": "operator",
          "type": "address"
        },
        {
          "indexed": true,
          "internalType": "address",
          "name": "from",
          "type": "address"
        },
        {
          "indexed": true,
          "internalType": "address",
          "name": "to",
          "type": "address"
        },
        {
          "indexed": false,
          "internalType": "uint256[]",
          "name": "ids",
          "type": "uint256[]"
        },
        {
          "indexed": false,
          "internalType": "uint256[]",
          "name": "values",
          "type": "uint256[]"
        }
      ],
      "name": "TransferBatch",
      "type": "event"
    },
    {
      "anonymous": false,
      "inputs": [
        {
          "indexed": true,
          "internalType": "address",
          "name": "operator",
          "type": "address"
        },
        {
          "indexed": true,
          "internalType": "address",
          "name": "from",
          "type": "address"
        },
        {
          "indexed": true,
          "internalType": "address",
          "name": "to",
          "type": "address"
        },
        {
          "indexed": false,
          "internalType": "uint256",
          "name": "id",
          "type": "uint256"
        },
        {
          "indexed": false,
          "internalType": "uint256",
          "name": "value",
          "type": "uint256"
        }
      ],
      "name": "TransferSingle",
      "type": "event"
    },
    {
      "anonymous": false,
      "inputs": [
        {
          "indexed": false,
          "internalType": "string",
          "name": "value",
          "type": "string"
        },
        {
          "indexed": true,
          "internalType": "uint256",
          "name": "id",
          "type": "uint256"
        }
      ],
      "name": "URI",
      "type": "event"
    },
    {
      "inputs": [
        {
          "internalType": "address",
          "name": "account",
          "type": "address"
        },
        {
          "internalType": "uint256",
          "name": "id",
          "type": "uint256"
        }
      ],
      "name": "balanceOf",
      "outputs": [
        {
          "internalType": "uint256",
          "name": "",
          "type": "uint256"
        }
      ],
      "stateMutability": "view",
      "type": "function",
      "constant": true
    },
    {
      "inputs": [
        {
          "internalType": "address[]",
          "name": "accounts",
          "type": "address[]"
        },
        {
          "internalType": "uint256[]",
          "name": "ids",
          "type": "uint256[]"
        }
      ],
      "name": "balanceOfBatch",
      "outputs": [
        {
          "internalType": "uint256[]",
          "name": "",
          "type": "uint256[]"
        }
      ],
      "stateMutability": "view",
      "type": "function",
      "constant": true
    },
    {
      "inputs": [
        {
          "internalType": "address",
          "name": "account",
          "type": "address"
        },
        {
          "internalType": "address",
          "name": "operator",
          "type": "address"
        }
      ],
      "name": "isApprovedForAll",
      "outputs": [
        {
          "internalType": "bool",
          "name": "",
          "type": "bool"
        }
      ],
      "stateMutability": "view",
      "type": "function",
      "constant": true
    },
    {
      "inputs": [
        {
          "internalType": "address",
          "name": "operator",
          "type": "address"
        },
        {
          "internalType": "bool",
          "name": "approved",
          "type": "bool"
        }
      ],
      "name": "setApprovalForAll",
      "outputs": [],
      "stateMutability": "nonpayable",
      "type": "function"
    },
    {
      "inputs": [
        {
          "internalType": "bytes4",
          "name": "interfaceId",
          "type": "bytes4"
        }
      ],
      "name": "supportsInterface",
      "outputs": [
        {
          "internalType": "bool",
          "name": "",
          "type": "bool"
        }
      ],
      "stateMutability": "view",
      "type": "function",
      "constant": true
    },
    {
      "inputs": [
        {
          "internalType": "uint256",
          "name": "",
          "type": "uint256"
        }
      ],
      "name": "uri",
      "outputs": [
        {
          "internalType": "string",
          "name": "",
          "type": "string"
        }
      ],
      "stateMutability": "view",
      "type": "function",
      "constant": true
    },
    {
      "inputs": [
        {
          "internalType": "string",
          "name": "name",
          "type": "string"
        },
        {
          "internalType": "string",
          "name": "anotation",
          "type": "string"
        }
      ],
      "name": "createKnowledgeElement",
      "outputs": [
        {
          "internalType": "uint256",
          "name": "",
          "type": "uint256"
        }
      ],
      "stateMutability": "nonpayable",
      "type": "function"
    },
    {
      "inputs": [
        {
          "internalType": "uint256",
          "name": "pos",
          "type": "uint256"
        }
      ],
      "name": "getKnowledgeElement",
      "outputs": [
        {
          "components": [
            {
              "internalType": "string",
              "name": "name",
              "type": "string"
            },
            {
              "internalType": "string",
              "name": "anotation",
              "type": "string"
            }
          ],
          "internalType": "struct CompetencySystem.Registry",
          "name": "",
          "type": "tuple"
        }
      ],
      "stateMutability": "view",
      "type": "function",
      "constant": true
    },
    {
      "inputs": [],
      "name": "getKnowledgeElements",
      "outputs": [
        {
          "components": [
            {
              "internalType": "string",
              "name": "name",
              "type": "string"
            },
            {
              "internalType": "string",
              "name": "anotation",
              "type": "string"
            }
          ],
          "internalType": "struct CompetencySystem.Registry[]",
          "name": "",
          "type": "tuple[]"
        }
      ],
      "stateMutability": "view",
      "type": "function",
      "constant": true
    },
    {
      "inputs": [
        {
          "internalType": "string",
          "name": "name",
          "type": "string"
        },
        {
          "internalType": "string",
          "name": "anotation",
          "type": "string"
        }
      ],
      "name": "createDispositions",
      "outputs": [
        {
          "internalType": "uint256",
          "name": "",
          "type": "uint256"
        }
      ],
      "stateMutability": "nonpayable",
      "type": "function"
    },
    {
      "inputs": [
        {
          "internalType": "uint256",
          "name": "pos",
          "type": "uint256"
        }
      ],
      "name": "getDisposition",
      "outputs": [
        {
          "components": [
            {
              "internalType": "string",
              "name": "name",
              "type": "string"
            },
            {
              "internalType": "string",
              "name": "anotation",
              "type": "string"
            }
          ],
          "internalType": "struct CompetencySystem.Registry",
          "name": "",
          "type": "tuple"
        }
      ],
      "stateMutability": "view",
      "type": "function",
      "constant": true
    },
    {
      "inputs": [],
      "name": "getDispositions",
      "outputs": [
        {
          "components": [
            {
              "internalType": "string",
              "name": "name",
              "type": "string"
            },
            {
              "internalType": "string",
              "name": "anotation",
              "type": "string"
            }
          ],
          "internalType": "struct CompetencySystem.Registry[]",
          "name": "",
          "type": "tuple[]"
        }
      ],
      "stateMutability": "view",
      "type": "function",
      "constant": true
    },
    {
      "inputs": [
        {
          "internalType": "string",
          "name": "statement",
          "type": "string"
        },
        {
          "internalType": "uint256[]",
          "name": "knowledgeElement",
          "type": "uint256[]"
        },
        {
          "internalType": "uint256[]",
          "name": "dispositions",
          "type": "uint256[]"
        }
      ],
      "name": "createCompetency",
      "outputs": [
        {
          "internalType": "uint256",
          "name": "",
          "type": "uint256"
        }
      ],
      "stateMutability": "nonpayable",
      "type": "function"
    },
    {
      "inputs": [
        {
          "internalType": "uint256",
          "name": "pos",
          "type": "uint256"
        }
      ],
      "name": "getCompetency",
      "outputs": [
        {
          "components": [
            {
              "internalType": "string",
              "name": "statement",
              "type": "string"
            },
            {
              "internalType": "uint256[]",
              "name": "knowledgeElement",
              "type": "uint256[]"
            },
            {
              "internalType": "uint256[]",
              "name": "dispositions",
              "type": "uint256[]"
            }
          ],
          "internalType": "struct CompetencySystem.CompetencyDescription",
          "name": "",
          "type": "tuple"
        }
      ],
      "stateMutability": "view",
      "type": "function",
      "constant": true
    },
    {
      "inputs": [],
      "name": "getCompetencys",
      "outputs": [
        {
          "components": [
            {
              "internalType": "string",
              "name": "statement",
              "type": "string"
            },
            {
              "internalType": "uint256[]",
              "name": "knowledgeElement",
              "type": "uint256[]"
            },
            {
              "internalType": "uint256[]",
              "name": "dispositions",
              "type": "uint256[]"
            }
          ],
          "internalType": "struct CompetencySystem.CompetencyDescription[]",
          "name": "",
          "type": "tuple[]"
        }
      ],
      "stateMutability": "view",
      "type": "function",
      "constant": true
    },
    {
      "inputs": [
        {
          "internalType": "address",
          "name": "owner",
          "type": "address"
        },
        {
          "internalType": "uint256",
          "name": "skillId",
          "type": "uint256"
        }
      ],
      "name": "getSkillLevel",
      "outputs": [
        {
          "internalType": "uint256[]",
          "name": "",
          "type": "uint256[]"
        }
      ],
      "stateMutability": "view",
      "type": "function",
      "constant": true
    },
    {
      "inputs": [
        {
          "internalType": "uint256",
          "name": "pos",
          "type": "uint256"
        }
      ],
      "name": "getSkillLevelRecord",
      "outputs": [
        {
          "components": [
            {
              "internalType": "uint256[]",
              "name": "value",
              "type": "uint256[]"
            },
            {
              "internalType": "bool",
              "name": "byValidAccount",
              "type": "bool"
            },
            {
              "internalType": "address",
              "name": "autor",
              "type": "address"
            }
          ],
          "internalType": "struct CompetencySystem.SkillRecord",
          "name": "",
          "type": "tuple"
        }
      ],
      "stateMutability": "view",
      "type": "function",
      "constant": true
    },
    {
      "inputs": [
        {
          "internalType": "address",
          "name": "from",
          "type": "address"
        },
        {
          "internalType": "address",
          "name": "to",
          "type": "address"
        },
        {
          "internalType": "uint256",
          "name": "id",
          "type": "uint256"
        },
        {
          "internalType": "uint256",
          "name": "amount",
          "type": "uint256"
        },
        {
          "internalType": "bytes",
          "name": "data",
          "type": "bytes"
        }
      ],
      "name": "safeTransferFrom",
      "outputs": [],
      "stateMutability": "nonpayable",
      "type": "function"
    },
    {
      "inputs": [
        {
          "internalType": "address",
          "name": "from",
          "type": "address"
        },
        {
          "internalType": "address",
          "name": "to",
          "type": "address"
        },
        {
          "internalType": "uint256[]",
          "name": "ids",
          "type": "uint256[]"
        },
        {
          "internalType": "uint256[]",
          "name": "amounts",
          "type": "uint256[]"
        },
        {
          "internalType": "bytes",
          "name": "data",
          "type": "bytes"
        }
      ],
      "name": "safeBatchTransferFrom",
      "outputs": [],
      "stateMutability": "nonpayable",
      "type": "function"
    },
    {
      "inputs": [
        {
          "internalType": "address",
          "name": "from",
          "type": "address"
        },
        {
          "internalType": "address",
          "name": "to",
          "type": "address"
        },
        {
          "internalType": "uint256",
          "name": "competencyId",
          "type": "uint256"
        },
        {
          "internalType": "uint256[]",
          "name": "skillLevels",
          "type": "uint256[]"
        },
        {
          "internalType": "bytes",
          "name": "data",
          "type": "bytes"
        }
      ],
      "name": "awardCompetency",
      "outputs": [],
      "stateMutability": "nonpayable",
      "type": "function"
    },
    {
      "inputs": [
        {
          "internalType": "address",
          "name": "from",
          "type": "address"
        },
        {
          "internalType": "address",
          "name": "to",
          "type": "address"
        },
        {
          "internalType": "uint256",
          "name": "competencyId",
          "type": "uint256"
        },
        {
          "internalType": "uint256",
          "name": "amount",
          "type": "uint256"
        }
      ],
      "name": "asignTransferRights",
      "outputs": [],
      "stateMutability": "nonpayable",
      "type": "function"
    },
    {
      "inputs": [
        {
          "internalType": "address",
          "name": "from",
          "type": "address"
        },
        {
          "internalType": "address",
          "name": "to",
          "type": "address"
        },
        {
          "internalType": "uint256",
          "name": "competencyId",
          "type": "uint256"
        }
      ],
      "name": "givePermissionFromOwner",
      "outputs": [],
      "stateMutability": "nonpayable",
      "type": "function"
    },
    {
      "inputs": [
        {
          "internalType": "address",
          "name": "from",
          "type": "address"
        },
        {
          "internalType": "address",
          "name": "owner",
          "type": "address"
        },
        {
          "internalType": "address",
          "name": "to",
          "type": "address"
        },
        {
          "internalType": "uint256",
          "name": "competencyId",
          "type": "uint256"
        }
      ],
      "name": "givePermissionFromCreator",
      "outputs": [],
      "stateMutability": "nonpayable",
      "type": "function"
    },
    {
      "inputs": [
        {
          "internalType": "address",
          "name": "from",
          "type": "address"
        },
        {
          "internalType": "address",
          "name": "owner",
          "type": "address"
        },
        {
          "internalType": "uint256",
          "name": "competencyId",
          "type": "uint256"
        },
        {
          "internalType": "uint256[]",
          "name": "skillValues",
          "type": "uint256[]"
        }
      ],
      "name": "updateSkillValues",
      "outputs": [],
      "stateMutability": "nonpayable",
      "type": "function"
    }
  ],
  "bytecode": "0x60806040523480156200001157600080fd5b506040518060200160405280600081525062000033816200003a60201b60201c565b506200016b565b80600290805190602001906200005292919062000056565b5050565b828054620000649062000106565b90600052602060002090601f016020900481019282620000885760008555620000d4565b82601f10620000a357805160ff1916838001178555620000d4565b82800160010185558215620000d4579182015b82811115620000d3578251825591602001919060010190620000b6565b5b509050620000e39190620000e7565b5090565b5b8082111562000102576000816000905550600101620000e8565b5090565b600060028204905060018216806200011f57607f821691505b602082108114156200013657620001356200013c565b5b50919050565b7f4e487b7100000000000000000000000000000000000000000000000000000000600052602260045260246000fd5b614a07806200017b6000396000f3fe608060405234801561001057600080fd5b50600436106101575760003560e01c80634e1273f4116100c3578063e06a1e041161007c578063e06a1e0414610436578063e91fba9e14610466578063e93af96714610482578063e985e9c51461049e578063f242432a146104ce578063fcccd9cc146104ea57610157565b80634e1273f41461033c5780634ef2ebb31461036c5780636e21dee41461039c578063a22cb465146103ba578063d9c87382146103d6578063dddcfda51461040657610157565b806318e128c71161011557806318e128c71461025857806322d127b3146102745780632eb2c2d6146102a45780633a5c655d146102c057806342501cf8146102dc57806344098d271461030c57610157565b8062fdd58e1461015c57806301ffc9a71461018c5780630695afe9146101bc5780630e89341c146101ec5780631218c74b1461021c5780631428aeb51461023a575b600080fd5b610176600480360381019061017191906132a4565b610506565b60405161018391906143ec565b60405180910390f35b6101a660048036038101906101a1919061334c565b6105cf565b6040516101b39190614129565b60405180910390f35b6101d660048036038101906101d191906134a1565b6106b1565b6040516101e391906143a8565b60405180910390f35b610206600480360381019061020191906134a1565b610837565b6040516102139190614144565b60405180910390f35b6102246108cb565b60405161023191906140e5565b60405180910390f35b610242610a4e565b60405161024f91906140c3565b60405180910390f35b610272600480360381019061026d9190613176565b610bef565b005b61028e60048036038101906102899190613435565b610dc5565b60405161029b91906143ec565b60405180910390f35b6102be60048036038101906102b99190612f46565b610e68565b005b6102da60048036038101906102d59190613005565b610eb0565b005b6102f660048036038101906102f191906134a1565b610fdf565b6040516103039190614386565b60405180910390f35b610326600480360381019061032191906132a4565b6111cc565b6040516103339190614107565b60405180910390f35b610356600480360381019061035191906132e0565b611275565b6040516103639190614107565b60405180910390f35b610386600480360381019061038191906134a1565b611426565b60405161039391906143ca565b60405180910390f35b6103a4611551565b6040516103b191906140e5565b60405180910390f35b6103d460048036038101906103cf9190613268565b6116d4565b005b6103f060048036038101906103eb91906134a1565b611855565b6040516103fd91906143a8565b60405180910390f35b610420600480360381019061041b9190613435565b6119db565b60405161042d91906143ec565b60405180910390f35b610450600480360381019061044b919061339e565b611a7e565b60405161045d91906143ec565b60405180910390f35b610480600480360381019061047b91906130cf565b611b45565b005b61049c60048036038101906104979190613054565b611df0565b005b6104b860048036038101906104b39190612ea7565b611fa9565b6040516104c59190614129565b60405180910390f35b6104e860048036038101906104e391906131d9565b61203d565b005b61050460048036038101906104ff9190612ee3565b612085565b005b60008073ffffffffffffffffffffffffffffffffffffffff168373ffffffffffffffffffffffffffffffffffffffff161415610577576040517f08c379a000000000000000000000000000000000000000000000000000000000815260040161056e906141c6565b60405180910390fd5b60008083815260200190815260200160002060008473ffffffffffffffffffffffffffffffffffffffff1673ffffffffffffffffffffffffffffffffffffffff16815260200190815260200160002054905092915050565b60007fd9b67a26000000000000000000000000000000000000000000000000000000007bffffffffffffffffffffffffffffffffffffffffffffffffffffffff1916827bffffffffffffffffffffffffffffffffffffffffffffffffffffffff1916148061069a57507f0e89341c000000000000000000000000000000000000000000000000000000007bffffffffffffffffffffffffffffffffffffffffffffffffffffffff1916827bffffffffffffffffffffffffffffffffffffffffffffffffffffffff1916145b806106aa57506106a9826122fc565b5b9050919050565b6106b9612a8c565b600482815481106106f3577f4e487b7100000000000000000000000000000000000000000000000000000000600052603260045260246000fd5b906000526020600020906002020160405180604001604052908160008201805461071c9061475e565b80601f01602080910402602001604051908101604052809291908181526020018280546107489061475e565b80156107955780601f1061076a57610100808354040283529160200191610795565b820191906000526020600020905b81548152906001019060200180831161077857829003601f168201915b505050505081526020016001820180546107ae9061475e565b80601f01602080910402602001604051908101604052809291908181526020018280546107da9061475e565b80156108275780601f106107fc57610100808354040283529160200191610827565b820191906000526020600020905b81548152906001019060200180831161080a57829003601f168201915b5050505050815250509050919050565b6060600280546108469061475e565b80601f01602080910402602001604051908101604052809291908181526020018280546108729061475e565b80156108bf5780601f10610894576101008083540402835291602001916108bf565b820191906000526020600020905b8154815290600101906020018083116108a257829003601f168201915b50505050509050919050565b60606004805480602002602001604051908101604052809291908181526020016000905b82821015610a4557838290600052602060002090600202016040518060400160405290816000820180546109229061475e565b80601f016020809104026020016040519081016040528092919081815260200182805461094e9061475e565b801561099b5780601f106109705761010080835404028352916020019161099b565b820191906000526020600020905b81548152906001019060200180831161097e57829003601f168201915b505050505081526020016001820180546109b49061475e565b80601f01602080910402602001604051908101604052809291908181526020018280546109e09061475e565b8015610a2d5780601f10610a0257610100808354040283529160200191610a2d565b820191906000526020600020905b815481529060010190602001808311610a1057829003601f168201915b505050505081525050815260200190600101906108ef565b50505050905090565b60606003805480602002602001604051908101604052809291908181526020016000905b82821015610be65783829060005260206000209060030201604051806060016040529081600082018054610aa59061475e565b80601f0160208091040260200160405190810160405280929190818152602001828054610ad19061475e565b8015610b1e5780601f10610af357610100808354040283529160200191610b1e565b820191906000526020600020905b815481529060010190602001808311610b0157829003601f168201915b5050505050815260200160018201805480602002602001604051908101604052809291908181526020018280548015610b7657602002820191906000526020600020905b815481526020019060010190808311610b62575b5050505050815260200160028201805480602002602001604051908101604052809291908181526020018280548015610bce57602002820191906000526020600020905b815481526020019060010190808311610bba575b50505050508152505081526020019060010190610a72565b50505050905090565b83826008600082815260200190815260200160002060009054906101000a900473ffffffffffffffffffffffffffffffffffffffff1673ffffffffffffffffffffffffffffffffffffffff168273ffffffffffffffffffffffffffffffffffffffff1614610c92576040517f08c379a0000000000000000000000000000000000000000000000000000000008152600401610c8990614346565b60405180910390fd5b836003805490508110610cda576040517f08c379a0000000000000000000000000000000000000000000000000000000008152600401610cd1906141e6565b60405180910390fd5b610ce2612366565b73ffffffffffffffffffffffffffffffffffffffff168773ffffffffffffffffffffffffffffffffffffffff161480610d285750610d2787610d22612366565b611fa9565b5b610d67576040517f08c379a0000000000000000000000000000000000000000000000000000000008152600401610d5e90614206565b60405180910390fd5b836009600087815260200190815260200160002060008873ffffffffffffffffffffffffffffffffffffffff1673ffffffffffffffffffffffffffffffffffffffff1681526020019081526020016000208190555050505050505050565b600080604051806040016040528085815260200184815250905060058190806001815401808255809150506001900390600052602060002090600202016000909190919091506000820151816000019080519060200190610e27929190612aa6565b506020820151816001019080519060200190610e44929190612aa6565b50505060006001600580549050610e5b9190614674565b9050809250505092915050565b6000610ea9576040517f08c379a0000000000000000000000000000000000000000000000000000000008152600401610ea090614286565b60405180910390fd5b5050505050565b806003805490508110610ef8576040517f08c379a0000000000000000000000000000000000000000000000000000000008152600401610eef906141e6565b60405180910390fd5b83826000610f068383610506565b11610f46576040517f08c379a0000000000000000000000000000000000000000000000000000000008152600401610f3d906141a6565b60405180910390fd5b6001600b60008689604051602001610f5f92919061403d565b60405160208183030381529060405280519060200120815260200190815260200160002060008773ffffffffffffffffffffffffffffffffffffffff1673ffffffffffffffffffffffffffffffffffffffff16815260200190815260200160002060006101000a81548160ff021916908315150217905550505050505050565b610fe7612b2c565b81600380549050811061102f576040517f08c379a0000000000000000000000000000000000000000000000000000000008152600401611026906141e6565b60405180910390fd5b60038381548110611069577f4e487b7100000000000000000000000000000000000000000000000000000000600052603260045260246000fd5b90600052602060002090600302016040518060600160405290816000820180546110929061475e565b80601f01602080910402602001604051908101604052809291908181526020018280546110be9061475e565b801561110b5780601f106110e05761010080835404028352916020019161110b565b820191906000526020600020905b8154815290600101906020018083116110ee57829003601f168201915b505050505081526020016001820180548060200260200160405190810160405280929190818152602001828054801561116357602002820191906000526020600020905b81548152602001906001019080831161114f575b50505050508152602001600282018054806020026020016040519081016040528092919081815260200182805480156111bb57602002820191906000526020600020905b8154815260200190600101908083116111a7575b505050505081525050915050919050565b60606006600083815260200190815260200160002060008473ffffffffffffffffffffffffffffffffffffffff1673ffffffffffffffffffffffffffffffffffffffff16815260200190815260200160002080548060200260200160405190810160405280929190818152602001828054801561126857602002820191906000526020600020905b815481526020019060010190808311611254575b5050505050905092915050565b606081518351146112bb576040517f08c379a00000000000000000000000000000000000000000000000000000000081526004016112b290614326565b60405180910390fd5b6000835167ffffffffffffffff8111156112fe577f4e487b7100000000000000000000000000000000000000000000000000000000600052604160045260246000fd5b60405190808252806020026020018201604052801561132c5781602001602082028036833780820191505090505b50905060005b845181101561141b576113c5858281518110611377577f4e487b7100000000000000000000000000000000000000000000000000000000600052603260045260246000fd5b60200260200101518583815181106113b8577f4e487b7100000000000000000000000000000000000000000000000000000000600052603260045260246000fd5b6020026020010151610506565b8282815181106113fe577f4e487b7100000000000000000000000000000000000000000000000000000000600052603260045260246000fd5b6020026020010181815250508061141490614790565b9050611332565b508091505092915050565b61142e612b4d565b60078281548110611468577f4e487b7100000000000000000000000000000000000000000000000000000000600052603260045260246000fd5b9060005260206000209060020201604051806060016040529081600082018054806020026020016040519081016040528092919081815260200182805480156114d057602002820191906000526020600020905b8154815260200190600101908083116114bc575b505050505081526020016001820160009054906101000a900460ff161515151581526020016001820160019054906101000a900473ffffffffffffffffffffffffffffffffffffffff1673ffffffffffffffffffffffffffffffffffffffff1673ffffffffffffffffffffffffffffffffffffffff16815250509050919050565b60606005805480602002602001604051908101604052809291908181526020016000905b828210156116cb57838290600052602060002090600202016040518060400160405290816000820180546115a89061475e565b80601f01602080910402602001604051908101604052809291908181526020018280546115d49061475e565b80156116215780601f106115f657610100808354040283529160200191611621565b820191906000526020600020905b81548152906001019060200180831161160457829003601f168201915b5050505050815260200160018201805461163a9061475e565b80601f01602080910402602001604051908101604052809291908181526020018280546116669061475e565b80156116b35780601f10611688576101008083540402835291602001916116b3565b820191906000526020600020905b81548152906001019060200180831161169657829003601f168201915b50505050508152505081526020019060010190611575565b50505050905090565b8173ffffffffffffffffffffffffffffffffffffffff166116f3612366565b73ffffffffffffffffffffffffffffffffffffffff16141561174a576040517f08c379a000000000000000000000000000000000000000000000000000000000815260040161174190614306565b60405180910390fd5b8060016000611757612366565b73ffffffffffffffffffffffffffffffffffffffff1673ffffffffffffffffffffffffffffffffffffffff16815260200190815260200160002060008473ffffffffffffffffffffffffffffffffffffffff1673ffffffffffffffffffffffffffffffffffffffff16815260200190815260200160002060006101000a81548160ff0219169083151502179055508173ffffffffffffffffffffffffffffffffffffffff16611804612366565b73ffffffffffffffffffffffffffffffffffffffff167f17307eab39ab6107e8899845ad3d59bd9653f200f220920489ca2b5937696c31836040516118499190614129565b60405180910390a35050565b61185d612a8c565b60058281548110611897577f4e487b7100000000000000000000000000000000000000000000000000000000600052603260045260246000fd5b90600052602060002090600202016040518060400160405290816000820180546118c09061475e565b80601f01602080910402602001604051908101604052809291908181526020018280546118ec9061475e565b80156119395780601f1061190e57610100808354040283529160200191611939565b820191906000526020600020905b81548152906001019060200180831161191c57829003601f168201915b505050505081526020016001820180546119529061475e565b80601f016020809104026020016040519081016040528092919081815260200182805461197e9061475e565b80156119cb5780601f106119a0576101008083540402835291602001916119cb565b820191906000526020600020905b8154815290600101906020018083116119ae57829003601f168201915b5050505050815250509050919050565b600080604051806040016040528085815260200184815250905060048190806001815401808255809150506001900390600052602060002090600202016000909190919091506000820151816000019080519060200190611a3d929190612aa6565b506020820151816001019080519060200190611a5a929190612aa6565b50505060006001600480549050611a719190614674565b9050809250505092915050565b600080604051806060016040528086815260200185815260200184815250905060038190806001815401808255809150506001900390600052602060002090600302016000909190919091506000820151816000019080519060200190611ae6929190612aa6565b506020820151816001019080519060200190611b03929190612b86565b506040820151816002019080519060200190611b20929190612b86565b50505060006001600380549050611b379190614674565b905080925050509392505050565b826001866000826009600086815260200190815260200160002060008473ffffffffffffffffffffffffffffffffffffffff1673ffffffffffffffffffffffffffffffffffffffff16815260200190815260200160002054611ba79190614674565b11611be7576040517f08c379a0000000000000000000000000000000000000000000000000000000008152600401611bde906142e6565b60405180910390fd5b8460005b8151811015611c8a576006828281518110611c2f577f4e487b7100000000000000000000000000000000000000000000000000000000600052603260045260246000fd5b602002602001015110611c77576040517f08c379a0000000000000000000000000000000000000000000000000000000008152600401611c6e906142c6565b60405180910390fd5b8080611c8290614790565b915050611beb565b50611c93612366565b73ffffffffffffffffffffffffffffffffffffffff168973ffffffffffffffffffffffffffffffffffffffff161480611cd95750611cd889611cd3612366565b611fa9565b5b611d18576040517f08c379a0000000000000000000000000000000000000000000000000000000008152600401611d0f90614206565b60405180910390fd5b611d2689898960018961236e565b60016009600089815260200190815260200160002060008b73ffffffffffffffffffffffffffffffffffffffff1673ffffffffffffffffffffffffffffffffffffffff16815260200190815260200160002054611d839190614674565b6009600089815260200190815260200160002060008b73ffffffffffffffffffffffffffffffffffffffff1673ffffffffffffffffffffffffffffffffffffffff16815260200190815260200160002081905550611de58989888a60016125f0565b505050505050505050565b816003805490508110611e38576040517f08c379a0000000000000000000000000000000000000000000000000000000008152600401611e2f906141e6565b60405180910390fd5b848484600b60008284604051602001611e5292919061403d565b60405160208183030381529060405280519060200120815260200190815260200160002060008473ffffffffffffffffffffffffffffffffffffffff1673ffffffffffffffffffffffffffffffffffffffff16815260200190815260200160002060009054906101000a900460ff16611f00576040517f08c379a0000000000000000000000000000000000000000000000000000000008152600401611ef790614226565b60405180910390fd5b6000600a6000888a604051602001611f1992919061403d565b6040516020818303038152906040528051906020012081526020019081526020016000206000611f47612366565b73ffffffffffffffffffffffffffffffffffffffff1673ffffffffffffffffffffffffffffffffffffffff16815260200190815260200160002060009054906101000a900460ff169050611f9e8989888a856125f0565b505050505050505050565b6000600160008473ffffffffffffffffffffffffffffffffffffffff1673ffffffffffffffffffffffffffffffffffffffff16815260200190815260200160002060008373ffffffffffffffffffffffffffffffffffffffff1673ffffffffffffffffffffffffffffffffffffffff16815260200190815260200160002060009054906101000a900460ff16905092915050565b600061207e576040517f08c379a000000000000000000000000000000000000000000000000000000000815260040161207590614286565b60405180910390fd5b5050505050565b8060038054905081106120cd576040517f08c379a00000000000000000000000000000000000000000000000000000000081526004016120c4906141e6565b60405180910390fd5b8482600c600082815260200190815260200160002060008373ffffffffffffffffffffffffffffffffffffffff1673ffffffffffffffffffffffffffffffffffffffff16815260200190815260200160002060009054906101000a900460ff168061219657506008600082815260200190815260200160002060009054906101000a900473ffffffffffffffffffffffffffffffffffffffff1673ffffffffffffffffffffffffffffffffffffffff168273ffffffffffffffffffffffffffffffffffffffff16145b6121d5576040517f08c379a00000000000000000000000000000000000000000000000000000000081526004016121cc90614366565b60405180910390fd5b6121dd612366565b73ffffffffffffffffffffffffffffffffffffffff168773ffffffffffffffffffffffffffffffffffffffff16148061222357506122228761221d612366565b611fa9565b5b612262576040517f08c379a000000000000000000000000000000000000000000000000000000000815260040161225990614266565b60405180910390fd5b6001600a6000868960405160200161227b92919061403d565b60405160208183030381529060405280519060200120815260200190815260200160002060008773ffffffffffffffffffffffffffffffffffffffff1673ffffffffffffffffffffffffffffffffffffffff16815260200190815260200160002060006101000a81548160ff02191690831515021790555050505050505050565b60007f01ffc9a7000000000000000000000000000000000000000000000000000000007bffffffffffffffffffffffffffffffffffffffffffffffffffffffff1916827bffffffffffffffffffffffffffffffffffffffffffffffffffffffff1916149050919050565b600033905090565b600073ffffffffffffffffffffffffffffffffffffffff168473ffffffffffffffffffffffffffffffffffffffff1614156123de576040517f08c379a00000000000000000000000000000000000000000000000000000000081526004016123d590614246565b60405180910390fd5b60006123e8612366565b90506124088187876123f9886127db565b612402886127db565b876128a1565b600080600086815260200190815260200160002060008873ffffffffffffffffffffffffffffffffffffffff1673ffffffffffffffffffffffffffffffffffffffff1681526020019081526020016000205490508381101561249f576040517f08c379a0000000000000000000000000000000000000000000000000000000008152600401612496906142a6565b60405180910390fd5b83810360008087815260200190815260200160002060008973ffffffffffffffffffffffffffffffffffffffff1673ffffffffffffffffffffffffffffffffffffffff168152602001908152602001600020819055508360008087815260200190815260200160002060008873ffffffffffffffffffffffffffffffffffffffff1673ffffffffffffffffffffffffffffffffffffffff1681526020019081526020016000206000828254612554919061461e565b925050819055508573ffffffffffffffffffffffffffffffffffffffff168773ffffffffffffffffffffffffffffffffffffffff168373ffffffffffffffffffffffffffffffffffffffff167fc3d58168c5ae7397731d063d5bbf3d657854427343f4c083240f7aacaa2d0f6288886040516125d1929190614407565b60405180910390a46125e78288888888886128a9565b50505050505050565b60008190506000604051806060016040528086815260200183151581526020018873ffffffffffffffffffffffffffffffffffffffff16815250905060078190806001815401808255809150506001900390600052602060002090600202016000909190919091506000820151816000019080519060200190612674929190612b86565b5060208201518160010160006101000a81548160ff02191690831515021790555060408201518160010160016101000a81548173ffffffffffffffffffffffffffffffffffffffff021916908373ffffffffffffffffffffffffffffffffffffffff1602179055505050600060016007805490506126f29190614674565b905060006006600087815260200190815260200160002060008973ffffffffffffffffffffffffffffffffffffffff1673ffffffffffffffffffffffffffffffffffffffff168152602001908152602001600020905080829080600181540180825580915050600190039060005260206000200160009091909190915055806006600088815260200190815260200160002060008a73ffffffffffffffffffffffffffffffffffffffff1673ffffffffffffffffffffffffffffffffffffffff1681526020019081526020016000209080546127cf929190612bd3565b50505050505050505050565b60606000600167ffffffffffffffff811115612820577f4e487b7100000000000000000000000000000000000000000000000000000000600052604160045260246000fd5b60405190808252806020026020018201604052801561284e5781602001602082028036833780820191505090505b509050828160008151811061288c577f4e487b7100000000000000000000000000000000000000000000000000000000600052603260045260246000fd5b60200260200101818152505080915050919050565b505050505050565b6128c88473ffffffffffffffffffffffffffffffffffffffff16612a79565b15612a71578373ffffffffffffffffffffffffffffffffffffffff1663f23a6e6187878686866040518663ffffffff1660e01b815260040161290e959493929190614069565b602060405180830381600087803b15801561292857600080fd5b505af192505050801561295957506040513d601f19601f820116820180604052508101906129569190613375565b60015b6129e8576129656148bf565b8061297057506129ad565b806040517f08c379a00000000000000000000000000000000000000000000000000000000081526004016129a49190614144565b60405180910390fd5b6040517f08c379a00000000000000000000000000000000000000000000000000000000081526004016129df90614166565b60405180910390fd5b63f23a6e6160e01b7bffffffffffffffffffffffffffffffffffffffffffffffffffffffff1916817bffffffffffffffffffffffffffffffffffffffffffffffffffffffff191614612a6f576040517f08c379a0000000000000000000000000000000000000000000000000000000008152600401612a6690614186565b60405180910390fd5b505b505050505050565b600080823b905060008111915050919050565b604051806040016040528060608152602001606081525090565b828054612ab29061475e565b90600052602060002090601f016020900481019282612ad45760008555612b1b565b82601f10612aed57805160ff1916838001178555612b1b565b82800160010185558215612b1b579182015b82811115612b1a578251825591602001919060010190612aff565b5b509050612b289190612c25565b5090565b60405180606001604052806060815260200160608152602001606081525090565b604051806060016040528060608152602001600015158152602001600073ffffffffffffffffffffffffffffffffffffffff1681525090565b828054828255906000526020600020908101928215612bc2579160200282015b82811115612bc1578251825591602001919060010190612ba6565b5b509050612bcf9190612c25565b5090565b828054828255906000526020600020908101928215612c145760005260206000209182015b82811115612c13578254825591600101919060010190612bf8565b5b509050612c219190612c25565b5090565b5b80821115612c3e576000816000905550600101612c26565b5090565b6000612c55612c5084614461565b614430565b90508083825260208201905082856020860282011115612c7457600080fd5b60005b85811015612ca45781612c8a8882612d96565b845260208401935060208301925050600181019050612c77565b5050509392505050565b6000612cc1612cbc8461448d565b614430565b90508083825260208201905082856020860282011115612ce057600080fd5b60005b85811015612d105781612cf68882612e92565b845260208401935060208301925050600181019050612ce3565b5050509392505050565b6000612d2d612d28846144b9565b614430565b905082815260208101848484011115612d4557600080fd5b612d5084828561471c565b509392505050565b6000612d6b612d66846144e9565b614430565b905082815260208101848484011115612d8357600080fd5b612d8e84828561471c565b509392505050565b600081359050612da581614975565b92915050565b600082601f830112612dbc57600080fd5b8135612dcc848260208601612c42565b91505092915050565b600082601f830112612de657600080fd5b8135612df6848260208601612cae565b91505092915050565b600081359050612e0e8161498c565b92915050565b600081359050612e23816149a3565b92915050565b600081519050612e38816149a3565b92915050565b600082601f830112612e4f57600080fd5b8135612e5f848260208601612d1a565b91505092915050565b600082601f830112612e7957600080fd5b8135612e89848260208601612d58565b91505092915050565b600081359050612ea1816149ba565b92915050565b60008060408385031215612eba57600080fd5b6000612ec885828601612d96565b9250506020612ed985828601612d96565b9150509250929050565b60008060008060808587031215612ef957600080fd5b6000612f0787828801612d96565b9450506020612f1887828801612d96565b9350506040612f2987828801612d96565b9250506060612f3a87828801612e92565b91505092959194509250565b600080600080600060a08688031215612f5e57600080fd5b6000612f6c88828901612d96565b9550506020612f7d88828901612d96565b945050604086013567ffffffffffffffff811115612f9a57600080fd5b612fa688828901612dd5565b935050606086013567ffffffffffffffff811115612fc357600080fd5b612fcf88828901612dd5565b925050608086013567ffffffffffffffff811115612fec57600080fd5b612ff888828901612e3e565b9150509295509295909350565b60008060006060848603121561301a57600080fd5b600061302886828701612d96565b935050602061303986828701612d96565b925050604061304a86828701612e92565b9150509250925092565b6000806000806080858703121561306a57600080fd5b600061307887828801612d96565b945050602061308987828801612d96565b935050604061309a87828801612e92565b925050606085013567ffffffffffffffff8111156130b757600080fd5b6130c387828801612dd5565b91505092959194509250565b600080600080600060a086880312156130e757600080fd5b60006130f588828901612d96565b955050602061310688828901612d96565b945050604061311788828901612e92565b935050606086013567ffffffffffffffff81111561313457600080fd5b61314088828901612dd5565b925050608086013567ffffffffffffffff81111561315d57600080fd5b61316988828901612e3e565b9150509295509295909350565b6000806000806080858703121561318c57600080fd5b600061319a87828801612d96565b94505060206131ab87828801612d96565b93505060406131bc87828801612e92565b92505060606131cd87828801612e92565b91505092959194509250565b600080600080600060a086880312156131f157600080fd5b60006131ff88828901612d96565b955050602061321088828901612d96565b945050604061322188828901612e92565b935050606061323288828901612e92565b925050608086013567ffffffffffffffff81111561324f57600080fd5b61325b88828901612e3e565b9150509295509295909350565b6000806040838503121561327b57600080fd5b600061328985828601612d96565b925050602061329a85828601612dff565b9150509250929050565b600080604083850312156132b757600080fd5b60006132c585828601612d96565b92505060206132d685828601612e92565b9150509250929050565b600080604083850312156132f357600080fd5b600083013567ffffffffffffffff81111561330d57600080fd5b61331985828601612dab565b925050602083013567ffffffffffffffff81111561333657600080fd5b61334285828601612dd5565b9150509250929050565b60006020828403121561335e57600080fd5b600061336c84828501612e14565b91505092915050565b60006020828403121561338757600080fd5b600061339584828501612e29565b91505092915050565b6000806000606084860312156133b357600080fd5b600084013567ffffffffffffffff8111156133cd57600080fd5b6133d986828701612e68565b935050602084013567ffffffffffffffff8111156133f657600080fd5b61340286828701612dd5565b925050604084013567ffffffffffffffff81111561341f57600080fd5b61342b86828701612dd5565b9150509250925092565b6000806040838503121561344857600080fd5b600083013567ffffffffffffffff81111561346257600080fd5b61346e85828601612e68565b925050602083013567ffffffffffffffff81111561348b57600080fd5b61349785828601612e68565b9150509250929050565b6000602082840312156134b357600080fd5b60006134c184828501612e92565b91505092915050565b60006134d68383613e74565b905092915050565b60006134ea8383613f30565b905092915050565b60006134fe8383614008565b60208301905092915050565b613513816146a8565b82525050565b613522816146a8565b82525050565b613539613534826146a8565b6147d9565b82525050565b600061354a82614549565b61355481856145a7565b93508360208202850161356685614519565b8060005b858110156135a2578484038952815161358385826134ca565b945061358e83614580565b925060208a0199505060018101905061356a565b50829750879550505050505092915050565b60006135bf82614554565b6135c981856145b8565b9350836020820285016135db85614529565b8060005b8581101561361757848403895281516135f885826134de565b94506136038361458d565b925060208a019950506001810190506135df565b50829750879550505050505092915050565b60006136348261455f565b61363e81856145c9565b935061364983614539565b8060005b8381101561367a57815161366188826134f2565b975061366c8361459a565b92505060018101905061364d565b5085935050505092915050565b60006136928261455f565b61369c81856145da565b93506136a783614539565b8060005b838110156136d85781516136bf88826134f2565b97506136ca8361459a565b9250506001810190506136ab565b5085935050505092915050565b6136ee816146ba565b82525050565b6136fd816146ba565b82525050565b600061370e8261456a565b61371881856145eb565b935061372881856020860161472b565b61373181614894565b840191505092915050565b600061374782614575565b61375181856145fc565b935061376181856020860161472b565b61376a81614894565b840191505092915050565b600061378082614575565b61378a818561460d565b935061379a81856020860161472b565b6137a381614894565b840191505092915050565b60006137bb60348361460d565b91507f455243313135353a207472616e7366657220746f206e6f6e204552433131353560008301527f526563656976657220696d706c656d656e7465720000000000000000000000006020830152604082019050919050565b600061382160288361460d565b91507f455243313135353a204552433131353552656365697665722072656a6563746560008301527f6420746f6b656e730000000000000000000000000000000000000000000000006020830152604082019050919050565b6000613887602d8361460d565b91507f436f6d706574656e637953797374656d3a20446f65736e27742068617665207460008301527f686520636f6d706574656e6379000000000000000000000000000000000000006020830152604082019050919050565b60006138ed602b8361460d565b91507f455243313135353a2062616c616e636520717565727920666f7220746865207a60008301527f65726f20616464726573730000000000000000000000000000000000000000006020830152604082019050919050565b6000613953602a8361460d565b91507f436f6d706574656e637953797374656d3a20436f6d706574656e637920646f6560008301527f73206e6f742065786974000000000000000000000000000000000000000000006020830152604082019050919050565b60006139b960298361460d565b91507f455243313135353a2063616c6c6572206973206e6f74206f776e6572206e6f7260008301527f20617070726f76656400000000000000000000000000000000000000000000006020830152604082019050919050565b6000613a1f60388361460d565b91507f436f6d706574656e637953797374656d3a20446f65736e27742068617665206f60008301527f776e657273207065726d697373696f6e20746f206564697400000000000000006020830152604082019050919050565b6000613a8560258361460d565b91507f455243313135353a207472616e7366657220746f20746865207a65726f20616460008301527f64726573730000000000000000000000000000000000000000000000000000006020830152604082019050919050565b6000613aeb60328361460d565b91507f455243313135353a207472616e736665722063616c6c6572206973206e6f742060008301527f6f776e6572206e6f7220617070726f76656400000000000000000000000000006020830152604082019050919050565b6000613b5160278361460d565b91507f436f6d706574656e637953797374656d3a204d6574686f64206973206e6f742060008301527f616c6c6f776564000000000000000000000000000000000000000000000000006020830152604082019050919050565b6000613bb7602a8361460d565b91507f455243313135353a20696e73756666696369656e742062616c616e636520666f60008301527f72207472616e73666572000000000000000000000000000000000000000000006020830152604082019050919050565b6000613c1d60258361460d565b91507f436f6d706574656e637953797374656d3a20496e76616c696420736b696c6c2060008301527f6c6576656c0000000000000000000000000000000000000000000000000000006020830152604082019050919050565b6000613c8360358361460d565b91507f436f6d706574656e637953797374656d3a20446f65736e27742068617665207060008301527f65726d697373696f6e20746f207472616e7366657200000000000000000000006020830152604082019050919050565b6000613ce960298361460d565b91507f455243313135353a2073657474696e6720617070726f76616c2073746174757360008301527f20666f722073656c6600000000000000000000000000000000000000000000006020830152604082019050919050565b6000613d4f60298361460d565b91507f455243313135353a206163636f756e747320616e6420696473206c656e67746860008301527f206d69736d6174636800000000000000000000000000000000000000000000006020830152604082019050919050565b6000613db560298361460d565b91507f436f6d706574656e637953797374656d3a204f6e6c7920636f6d706574656e6360008301527f792063726561746f7200000000000000000000000000000000000000000000006020830152604082019050919050565b6000613e1b602f8361460d565b91507f436f6d706574656e637953797374656d3a2043616e277420676976652070657260008301527f6d697373696f6e20746f206564697400000000000000000000000000000000006020830152604082019050919050565b60006060830160008301518482036000860152613e91828261373c565b91505060208301518482036020860152613eab8282613629565b91505060408301518482036040860152613ec58282613629565b9150508091505092915050565b60006060830160008301518482036000860152613eef828261373c565b91505060208301518482036020860152613f098282613629565b91505060408301518482036040860152613f238282613629565b9150508091505092915050565b60006040830160008301518482036000860152613f4d828261373c565b91505060208301518482036020860152613f67828261373c565b9150508091505092915050565b60006040830160008301518482036000860152613f91828261373c565b91505060208301518482036020860152613fab828261373c565b9150508091505092915050565b60006060830160008301518482036000860152613fd58282613629565b9150506020830151613fea60208601826136e5565b506040830151613ffd604086018261350a565b508091505092915050565b61401181614712565b82525050565b61402081614712565b82525050565b61403761403282614712565b6147fd565b82525050565b60006140498285614026565b6020820191506140598284613528565b6014820191508190509392505050565b600060a08201905061407e6000830188613519565b61408b6020830187613519565b6140986040830186614017565b6140a56060830185614017565b81810360808301526140b78184613703565b90509695505050505050565b600060208201905081810360008301526140dd818461353f565b905092915050565b600060208201905081810360008301526140ff81846135b4565b905092915050565b600060208201905081810360008301526141218184613687565b905092915050565b600060208201905061413e60008301846136f4565b92915050565b6000602082019050818103600083015261415e8184613775565b905092915050565b6000602082019050818103600083015261417f816137ae565b9050919050565b6000602082019050818103600083015261419f81613814565b9050919050565b600060208201905081810360008301526141bf8161387a565b9050919050565b600060208201905081810360008301526141df816138e0565b9050919050565b600060208201905081810360008301526141ff81613946565b9050919050565b6000602082019050818103600083015261421f816139ac565b9050919050565b6000602082019050818103600083015261423f81613a12565b9050919050565b6000602082019050818103600083015261425f81613a78565b9050919050565b6000602082019050818103600083015261427f81613ade565b9050919050565b6000602082019050818103600083015261429f81613b44565b9050919050565b600060208201905081810360008301526142bf81613baa565b9050919050565b600060208201905081810360008301526142df81613c10565b9050919050565b600060208201905081810360008301526142ff81613c76565b9050919050565b6000602082019050818103600083015261431f81613cdc565b9050919050565b6000602082019050818103600083015261433f81613d42565b9050919050565b6000602082019050818103600083015261435f81613da8565b9050919050565b6000602082019050818103600083015261437f81613e0e565b9050919050565b600060208201905081810360008301526143a08184613ed2565b905092915050565b600060208201905081810360008301526143c28184613f74565b905092915050565b600060208201905081810360008301526143e48184613fb8565b905092915050565b60006020820190506144016000830184614017565b92915050565b600060408201905061441c6000830185614017565b6144296020830184614017565b9392505050565b6000604051905081810181811067ffffffffffffffff8211171561445757614456614865565b5b8060405250919050565b600067ffffffffffffffff82111561447c5761447b614865565b5b602082029050602081019050919050565b600067ffffffffffffffff8211156144a8576144a7614865565b5b602082029050602081019050919050565b600067ffffffffffffffff8211156144d4576144d3614865565b5b601f19601f8301169050602081019050919050565b600067ffffffffffffffff82111561450457614503614865565b5b601f19601f8301169050602081019050919050565b6000819050602082019050919050565b6000819050602082019050919050565b6000819050602082019050919050565b600081519050919050565b600081519050919050565b600081519050919050565b600081519050919050565b600081519050919050565b6000602082019050919050565b6000602082019050919050565b6000602082019050919050565b600082825260208201905092915050565b600082825260208201905092915050565b600082825260208201905092915050565b600082825260208201905092915050565b600082825260208201905092915050565b600082825260208201905092915050565b600082825260208201905092915050565b600061462982614712565b915061463483614712565b9250827fffffffffffffffffffffffffffffffffffffffffffffffffffffffffffffffff0382111561466957614668614807565b5b828201905092915050565b600061467f82614712565b915061468a83614712565b92508282101561469d5761469c614807565b5b828203905092915050565b60006146b3826146f2565b9050919050565b60008115159050919050565b60007fffffffff0000000000000000000000000000000000000000000000000000000082169050919050565b600073ffffffffffffffffffffffffffffffffffffffff82169050919050565b6000819050919050565b82818337600083830152505050565b60005b8381101561474957808201518184015260208101905061472e565b83811115614758576000848401525b50505050565b6000600282049050600182168061477657607f821691505b6020821081141561478a57614789614836565b5b50919050565b600061479b82614712565b91507fffffffffffffffffffffffffffffffffffffffffffffffffffffffffffffffff8214156147ce576147cd614807565b5b600182019050919050565b60006147e4826147eb565b9050919050565b60006147f6826148a5565b9050919050565b6000819050919050565b7f4e487b7100000000000000000000000000000000000000000000000000000000600052601160045260246000fd5b7f4e487b7100000000000000000000000000000000000000000000000000000000600052602260045260246000fd5b7f4e487b7100000000000000000000000000000000000000000000000000000000600052604160045260246000fd5b6000601f19601f8301169050919050565b60008160601b9050919050565b60008160e01c9050919050565b600060443d10156148cf57614972565b60046000803e6148e06000516148b2565b6308c379a081146148f15750614972565b60405160043d036004823e80513d602482011167ffffffffffffffff8211171561491d57505050614972565b808201805167ffffffffffffffff81111561493c575050505050614972565b8060208301013d850181111561495757505050505050614972565b61496082614894565b60208401016040528296505050505050505b90565b61497e816146a8565b811461498957600080fd5b50565b614995816146ba565b81146149a057600080fd5b50565b6149ac816146c6565b81146149b757600080fd5b50565b6149c381614712565b81146149ce57600080fd5b5056fea2646970667358221220546b7f1f72b664541ae66d1deb0ef2770897b060969e0a04654d0e45fdeb728264736f6c63430008000033",
  "immutableReferences": {},
  "source": "pragma solidity ^0.8.0;\r\n\r\n//import 'https://github.com/OpenZeppelin/openzeppelin-contracts/blob/master/contracts/token/ERC1155/ERC1155.sol';\r\nimport \"@openzeppelin/contracts/token/ERC1155/ERC1155.sol\";\r\n\r\ncontract CompetencySystem is ERC1155{\r\n    \r\n    /* Skill level, using Blooms taxonomi\r\n    0. Remembering\r\n    1. Understanding\r\n    2. Applying\r\n    3. Analyzing\r\n    4. Evaluating\r\n    5. Creating\r\n    */\r\n    \r\n    ////////////////////CompetencySystem////////////////////\r\n    \r\n    /*Competency*/\r\n    struct Registry {\r\n        string name; \r\n        string anotation;\r\n    }\r\n    \r\n    struct CompetencyDescription {\r\n        string statement;\r\n        uint[] knowledgeElement;\r\n        uint[] dispositions;\r\n    }\r\n    \r\n    /* skill level*/\r\n    \r\n    struct SkillRecord {\r\n        uint256[] value;\r\n        bool byValidAccount;\r\n        address autor;\r\n    }\r\n    \r\n    CompetencyDescription[] _competencys;\r\n    Registry[] _knowledgeElements;\r\n    Registry[] _dispositions;\r\n    \r\n    mapping(uint256 => mapping(address => uint[])) private _skillLevels; //Map to the array of records\r\n    SkillRecord[] _skillRecords;\r\n    \r\n    /////////////////////Permissions/////////////////////////\r\n    \r\n    mapping(uint256 => address) private _competencyCreator;\r\n    \r\n    mapping(uint256 => mapping(address => uint256)) private _canTransfer; \r\n    \r\n    mapping(bytes32 => mapping(address => bool)) private _canEditByCreator;\r\n    mapping(bytes32 => mapping(address => bool)) private _canEditByOwner;\r\n    \r\n    mapping(uint256 => mapping(address => bool)) private _canGivePermissionToEdit;\r\n    \r\n    //Still working on them\r\n    mapping(uint256 => mapping(address => bool)) private _canGivePermissionToGivePermissionToEdit;\r\n    mapping(uint256 => mapping(address => bool)) private _canGiveTransferRights;\r\n\r\n    /////////////////////Modifiers/////////////////////////\r\n    \r\n    modifier isCompetencyCreator(address acount, uint256 competencyId) {\r\n        require( acount == _competencyCreator[competencyId], \"CompetencySystem: Only competency creator\");\r\n        _;\r\n    }\r\n    \r\n    //check\r\n    modifier isCompetencysCreator(address acount, uint256[] memory competencyIds) {\r\n        for (uint i = 0; i < competencyIds.length; i++ ){\r\n            require( acount == _competencyCreator[competencyIds[i]], \r\n            \"CompetencySystem: Only competency creator\");\r\n        }\r\n        _;\r\n    }\r\n    \r\n    modifier competencyExist(uint256 competencyId) {\r\n        require( competencyId < _competencys.length, \r\n        \"CompetencySystem: Competency does not exit\");\r\n        _;\r\n    }\r\n    \r\n    modifier competencysExist(uint256[] memory competencyIds) {\r\n        for (uint i = 0; i < competencyIds.length; i++ ){\r\n            require( competencyIds[i] < _competencys.length,\r\n            \"CompetencySystem: Competency(s) does not exit\");\r\n        }\r\n        _;\r\n    }\r\n    \r\n    modifier canTransfer(uint256 competencyId, uint256 amount ,  address sender) {\r\n        require(_canTransfer[competencyId][sender] - amount > 0, \"CompetencySystem: Doesn't have permission to transfer\");\r\n        _;\r\n    }\r\n    \r\n    modifier canTransferBatch(uint256[] memory  competencyIds, uint256[] memory  amounts, address sender) {\r\n        for (uint i = 0; i < competencyIds.length; i++ ){\r\n            require(_canTransfer[competencyIds[i]][sender] - amounts[i] > 0 , \"CompetencySystem: Doesn't have permission(s) to transfer\");\r\n        }\r\n        _;\r\n    }\r\n    \r\n    modifier hasCompetency(address acount, uint256 competencyId) {\r\n        require(balanceOf(acount, competencyId) > 0, \r\n        \"CompetencySystem: Doesn't have the competency\");\r\n        _;\r\n    }\r\n    \r\n    modifier canEditByOwner(address acount, address owner, uint256 competencyId) {\r\n        require(_canEditByOwner[keccak256(abi.encodePacked(competencyId, owner))][acount],\r\n        \"CompetencySystem: Doesn't have owners permission to edit\");\r\n        _;\r\n    }\r\n    \r\n    modifier canGivePermissionToEdit(address acount, uint256 competencyId) {\r\n        require( (_canGivePermissionToEdit[competencyId][acount] || (acount == _competencyCreator[competencyId]) ), \r\n        \"CompetencySystem: Can't give permission to edit\");\r\n        _;\r\n    }\r\n    \r\n    modifier canGivePermissionToGivePermissionToEdit(address acount, uint256 competencyId) {\r\n        require( (_canGivePermissionToGivePermissionToEdit[competencyId][acount] || (acount == _competencyCreator[competencyId]) ), \r\n        \"CompetencySystem: Can't give permission to give permission to edit\");\r\n        _;\r\n    }\r\n    \r\n    modifier areSkillLevelsValid(uint256[] memory skillLevels) {\r\n        for (uint i = 0; i < skillLevels.length; i++ ){\r\n            require( (skillLevels[i] < 6), \"CompetencySystem: Invalid skill level\");\r\n        }\r\n        _;\r\n    }\r\n    \r\n    /////////////////////Methods/////////////////////////\r\n    constructor() ERC1155(\"\") {}\r\n    //Como UVG (ente creador de competencias), deseo poder crear competencias, para definir los saberes qu se pueden obtener en mi institucin.\r\n    function createKnowledgeElement(\r\n        string memory name,\r\n        string memory anotation\r\n    ) public returns (uint256) {\r\n        Registry memory _knowledgeElement = Registry(name, anotation);\r\n        //Add to the array of KnowledgeElement\r\n        _knowledgeElements.push(_knowledgeElement);\r\n        uint256 pos = _knowledgeElements.length - 1;\r\n        return pos;\r\n    }\r\n    \r\n    function getKnowledgeElement(uint pos) public view returns (Registry memory){\r\n        return _knowledgeElements[pos];\r\n    }\r\n    \r\n\r\n    \r\n    function getKnowledgeElements() public view returns (Registry[] memory){\r\n        return _knowledgeElements;\r\n    }\r\n    \r\n    function createDispositions(\r\n        string memory name,\r\n        string memory anotation\r\n    ) public returns (uint256) {\r\n        Registry memory _disposition = Registry(name, anotation);\r\n        //Add to the array of KnowledgeElement\r\n        _dispositions.push(_disposition);\r\n        uint256 pos = _dispositions.length - 1;\r\n        return pos;\r\n    }\r\n    \r\n    function getDisposition(uint pos) public view returns (Registry memory){\r\n        return _dispositions[pos];\r\n    }\r\n    \r\n    function getDispositions() public view returns (Registry[] memory){\r\n        return _dispositions;\r\n    }\r\n    \r\n    function createCompetency(\r\n        string memory statement, \r\n        uint[] memory knowledgeElement, \r\n        uint[] memory dispositions\r\n    ) public returns (uint256) {\r\n        /* Add Validations */\r\n        //Create competency\r\n        CompetencyDescription memory _competencyDescription = CompetencyDescription(statement, knowledgeElement, dispositions);\r\n        //Add to the array of competencys\r\n        _competencys.push(_competencyDescription);\r\n        uint256 pos = _competencys.length - 1;\r\n        //Set owner\r\n        //_competencyCreator[pos] = _msgSender();\r\n        return pos;\r\n    }\r\n    \r\n    function getCompetency(uint pos) competencyExist(pos) public view returns (CompetencyDescription memory){\r\n        return _competencys[pos];\r\n    }\r\n    \r\n    function getCompetencys() public view returns (CompetencyDescription[] memory){\r\n        return _competencys;\r\n    }\r\n    \r\n    function _setSkillLevel(\r\n        address from, //Who is updating the skill Values\r\n        address owner,\r\n        uint256[] memory skillValues,\r\n        uint256 competencyId,\r\n        bool hasPermission\r\n    ) private  {\r\n        bool _hasPermission = hasPermission;\r\n        SkillRecord memory _skillLevel = SkillRecord(skillValues, _hasPermission, from);\r\n        _skillRecords.push(_skillLevel);\r\n        uint pos = _skillRecords.length - 1;\r\n        uint[] storage tempArray = _skillLevels[competencyId][owner];\r\n        tempArray.push(pos);\r\n        _skillLevels[competencyId][owner] = tempArray;\r\n    }\r\n    \r\n    function getSkillLevel(address owner, uint256 skillId) public view returns (uint[] memory){\r\n        return _skillLevels[skillId][owner];\r\n    }\r\n    \r\n    function getSkillLevelRecord(uint256 pos) public view returns (SkillRecord memory){\r\n        return _skillRecords[pos];\r\n    }\r\n    \r\n    function safeTransferFrom( //Award competency\r\n        address from,\r\n        address to,\r\n        uint256 id,\r\n        uint256 amount,\r\n        bytes memory data\r\n    ) public virtual override {\r\n        require( false, \"CompetencySystem: Method is not allowed\" );\r\n    }\r\n\r\n    function safeBatchTransferFrom( //Award competencys\r\n        address from,\r\n        address to,\r\n        uint256[] memory ids,\r\n        uint256[] memory amounts,\r\n        bytes memory data\r\n    ) public virtual override {\r\n        require( false, \"CompetencySystem: Method is not allowed\" );\r\n    }\r\n    \r\n    function awardCompetency(\r\n        address from,\r\n        address to,\r\n        uint256 competencyId,\r\n        uint256[] memory skillLevels,\r\n        bytes memory data\r\n    ) public canTransfer(competencyId, 1 ,from) areSkillLevelsValid(skillLevels) {\r\n        require(\r\n            from == _msgSender() || isApprovedForAll(from, _msgSender()),\r\n            \"ERC1155: caller is not owner nor approved\"\r\n        );\r\n        _safeTransferFrom(from, to, competencyId, 1, data);\r\n        _canTransfer[competencyId][from] = _canTransfer[competencyId][from] - 1;\r\n        _setSkillLevel(from, to ,skillLevels, competencyId, true);\r\n    }\r\n    \r\n    function asignTransferRights(\r\n        address from,\r\n        address to,\r\n        uint256 competencyId,\r\n        uint256 amount\r\n    ) public isCompetencyCreator(from, competencyId) competencyExist(competencyId) {\r\n        require(\r\n            from == _msgSender() || isApprovedForAll(from, _msgSender()),\r\n            \"ERC1155: caller is not owner nor approved\"\r\n        );\r\n       _canTransfer[competencyId][to] = amount;\r\n    }\r\n    \r\n    /**/\r\n    function givePermissionFromOwner(\r\n        address from,\r\n        address to,\r\n        uint256 competencyId\r\n    ) public competencyExist(competencyId) hasCompetency(from ,competencyId) {\r\n        /*require(\r\n            from == _msgSender() || isApprovedForAll(from, _msgSender()),\r\n            \"ERC1155: transfer caller is not owner nor approved\"\r\n        );*/\r\n        _canEditByOwner[keccak256(abi.encodePacked(competencyId, from))][to] = true;\r\n    }\r\n    \r\n    \r\n    function givePermissionFromCreator(\r\n        address from, // who is granting the permission\r\n        address owner, // who is the competency owner\r\n        address to, // to whom the permission is been granted\r\n        uint256 competencyId \r\n    ) public competencyExist(competencyId) canGivePermissionToEdit(from, competencyId){\r\n        require(\r\n            from == _msgSender() || isApprovedForAll(from, _msgSender()),\r\n            \"ERC1155: transfer caller is not owner nor approved\"\r\n        );\r\n        _canEditByCreator[keccak256(abi.encodePacked(competencyId, owner))][to] = true;\r\n    }\r\n    \r\n    //Dosent allow operator\r\n    function updateSkillValues(\r\n        address from, //Who is updating the skill Values\r\n        address owner, //Who is the competecyOwner\r\n        uint256 competencyId,\r\n        uint256[] memory skillValues\r\n    ) public competencyExist(competencyId) canEditByOwner(from, owner, competencyId) {\r\n        bool hasPermission = _canEditByCreator[keccak256(abi.encodePacked(competencyId, owner))][_msgSender()];\r\n        _setSkillLevel(from, owner,skillValues, competencyId, hasPermission);\r\n    }\r\n    \r\n    /*\r\n    function givePermissionToGivePermissionToEdit(\r\n        address from,\r\n        address to,\r\n        uint256 competencyId,\r\n    ) public canGivePermissionToGivePermissionToEdit(from, competencyId){\r\n        _canGivePermissionToGivePermissionToEdit[competencyId][to] = true;\r\n    }*/  \r\n}\r\n\r\n",
  "sourcePath": "/home/paul/Documents/tesisApi/Truffle/contracts/CompetencySystem.sol",
  "compiler": {
    "name": "solc",
    "version": "0.8.0+commit.c7dfd78e.Emscripten.clang"
  },
  "schemaVersion": "3.4.3",
  "updatedAt": "2021-09-28T23:06:45.251Z",
  "networkType": "ethereum",
  "devdoc": {
    "kind": "dev",
    "methods": {
      "balanceOf(address,uint256)": {
        "details": "See {IERC1155-balanceOf}. Requirements: - `account` cannot be the zero address."
      },
      "balanceOfBatch(address[],uint256[])": {
        "details": "See {IERC1155-balanceOfBatch}. Requirements: - `accounts` and `ids` must have the same length."
      },
      "isApprovedForAll(address,address)": {
        "details": "See {IERC1155-isApprovedForAll}."
      },
      "safeBatchTransferFrom(address,address,uint256[],uint256[],bytes)": {
        "details": "See {IERC1155-safeBatchTransferFrom}."
      },
      "safeTransferFrom(address,address,uint256,uint256,bytes)": {
        "details": "See {IERC1155-safeTransferFrom}."
      },
      "setApprovalForAll(address,bool)": {
        "details": "See {IERC1155-setApprovalForAll}."
      },
      "supportsInterface(bytes4)": {
        "details": "See {IERC165-supportsInterface}."
      },
      "uri(uint256)": {
        "details": "See {IERC1155MetadataURI-uri}. This implementation returns the same URI for *all* token types. It relies on the token type ID substitution mechanism https://eips.ethereum.org/EIPS/eip-1155#metadata[defined in the EIP]. Clients calling this function must replace the `\\{id\\}` substring with the actual token type ID."
      }
    },
    "version": 1
  },
  "userdoc": {
    "kind": "user",
    "methods": {},
    "version": 1
  }
}