{
  "contractName": "CompetencySystem",
  "abi": [
    {
      "inputs": [],
      "stateMutability": "nonpayable",
      "type": "constructor"
    },
    {
      "anonymous": false,
      "inputs": [
        {
          "indexed": true,
          "internalType": "address",
          "name": "account",
          "type": "address"
        },
        {
          "indexed": true,
          "internalType": "address",
          "name": "operator",
          "type": "address"
        },
        {
          "indexed": false,
          "internalType": "bool",
          "name": "approved",
          "type": "bool"
        }
      ],
      "name": "ApprovalForAll",
      "type": "event"
    },
    {
      "anonymous": false,
      "inputs": [
        {
          "indexed": true,
          "internalType": "address",
          "name": "operator",
          "type": "address"
        },
        {
          "indexed": true,
          "internalType": "address",
          "name": "from",
          "type": "address"
        },
        {
          "indexed": true,
          "internalType": "address",
          "name": "to",
          "type": "address"
        },
        {
          "indexed": false,
          "internalType": "uint256[]",
          "name": "ids",
          "type": "uint256[]"
        },
        {
          "indexed": false,
          "internalType": "uint256[]",
          "name": "values",
          "type": "uint256[]"
        }
      ],
      "name": "TransferBatch",
      "type": "event"
    },
    {
      "anonymous": false,
      "inputs": [
        {
          "indexed": true,
          "internalType": "address",
          "name": "operator",
          "type": "address"
        },
        {
          "indexed": true,
          "internalType": "address",
          "name": "from",
          "type": "address"
        },
        {
          "indexed": true,
          "internalType": "address",
          "name": "to",
          "type": "address"
        },
        {
          "indexed": false,
          "internalType": "uint256",
          "name": "id",
          "type": "uint256"
        },
        {
          "indexed": false,
          "internalType": "uint256",
          "name": "value",
          "type": "uint256"
        }
      ],
      "name": "TransferSingle",
      "type": "event"
    },
    {
      "anonymous": false,
      "inputs": [
        {
          "indexed": false,
          "internalType": "string",
          "name": "value",
          "type": "string"
        },
        {
          "indexed": true,
          "internalType": "uint256",
          "name": "id",
          "type": "uint256"
        }
      ],
      "name": "URI",
      "type": "event"
    },
    {
      "inputs": [
        {
          "internalType": "address",
          "name": "account",
          "type": "address"
        },
        {
          "internalType": "uint256",
          "name": "id",
          "type": "uint256"
        }
      ],
      "name": "balanceOf",
      "outputs": [
        {
          "internalType": "uint256",
          "name": "",
          "type": "uint256"
        }
      ],
      "stateMutability": "view",
      "type": "function",
      "constant": true
    },
    {
      "inputs": [
        {
          "internalType": "address[]",
          "name": "accounts",
          "type": "address[]"
        },
        {
          "internalType": "uint256[]",
          "name": "ids",
          "type": "uint256[]"
        }
      ],
      "name": "balanceOfBatch",
      "outputs": [
        {
          "internalType": "uint256[]",
          "name": "",
          "type": "uint256[]"
        }
      ],
      "stateMutability": "view",
      "type": "function",
      "constant": true
    },
    {
      "inputs": [
        {
          "internalType": "address",
          "name": "account",
          "type": "address"
        },
        {
          "internalType": "address",
          "name": "operator",
          "type": "address"
        }
      ],
      "name": "isApprovedForAll",
      "outputs": [
        {
          "internalType": "bool",
          "name": "",
          "type": "bool"
        }
      ],
      "stateMutability": "view",
      "type": "function",
      "constant": true
    },
    {
      "inputs": [
        {
          "internalType": "address",
          "name": "operator",
          "type": "address"
        },
        {
          "internalType": "bool",
          "name": "approved",
          "type": "bool"
        }
      ],
      "name": "setApprovalForAll",
      "outputs": [],
      "stateMutability": "nonpayable",
      "type": "function"
    },
    {
      "inputs": [
        {
          "internalType": "bytes4",
          "name": "interfaceId",
          "type": "bytes4"
        }
      ],
      "name": "supportsInterface",
      "outputs": [
        {
          "internalType": "bool",
          "name": "",
          "type": "bool"
        }
      ],
      "stateMutability": "view",
      "type": "function",
      "constant": true
    },
    {
      "inputs": [
        {
          "internalType": "uint256",
          "name": "",
          "type": "uint256"
        }
      ],
      "name": "uri",
      "outputs": [
        {
          "internalType": "string",
          "name": "",
          "type": "string"
        }
      ],
      "stateMutability": "view",
      "type": "function",
      "constant": true
    },
    {
      "inputs": [],
      "name": "_getId",
      "outputs": [
        {
          "internalType": "uint24",
          "name": "",
          "type": "uint24"
        }
      ],
      "stateMutability": "nonpayable",
      "type": "function"
    },
    {
      "inputs": [],
      "name": "lastId",
      "outputs": [
        {
          "internalType": "uint24",
          "name": "",
          "type": "uint24"
        }
      ],
      "stateMutability": "view",
      "type": "function",
      "constant": true
    },
    {
      "inputs": [],
      "name": "_getSkillId",
      "outputs": [
        {
          "internalType": "uint24",
          "name": "",
          "type": "uint24"
        }
      ],
      "stateMutability": "nonpayable",
      "type": "function"
    },
    {
      "inputs": [],
      "name": "lastSkillId",
      "outputs": [
        {
          "internalType": "uint24",
          "name": "",
          "type": "uint24"
        }
      ],
      "stateMutability": "view",
      "type": "function",
      "constant": true
    },
    {
      "inputs": [
        {
          "internalType": "address",
          "name": "from",
          "type": "address"
        },
        {
          "internalType": "uint24",
          "name": "id",
          "type": "uint24"
        },
        {
          "internalType": "uint8",
          "name": "KEamount",
          "type": "uint8"
        }
      ],
      "name": "createCompetency",
      "outputs": [],
      "stateMutability": "nonpayable",
      "type": "function"
    },
    {
      "inputs": [],
      "name": "getCompetencys",
      "outputs": [
        {
          "components": [
            {
              "internalType": "uint24",
              "name": "id",
              "type": "uint24"
            },
            {
              "internalType": "uint8",
              "name": "KEamount",
              "type": "uint8"
            }
          ],
          "internalType": "struct CompetencySystem.Competency[]",
          "name": "",
          "type": "tuple[]"
        }
      ],
      "stateMutability": "view",
      "type": "function",
      "constant": true
    },
    {
      "inputs": [
        {
          "internalType": "uint24",
          "name": "pos",
          "type": "uint24"
        }
      ],
      "name": "getCompetency",
      "outputs": [
        {
          "components": [
            {
              "internalType": "uint24",
              "name": "id",
              "type": "uint24"
            },
            {
              "internalType": "uint8",
              "name": "KEamount",
              "type": "uint8"
            }
          ],
          "internalType": "struct CompetencySystem.Competency",
          "name": "",
          "type": "tuple"
        }
      ],
      "stateMutability": "view",
      "type": "function",
      "constant": true
    },
    {
      "inputs": [
        {
          "internalType": "address",
          "name": "owner",
          "type": "address"
        },
        {
          "internalType": "uint24",
          "name": "competencyId",
          "type": "uint24"
        }
      ],
      "name": "getSkillLevel",
      "outputs": [
        {
          "internalType": "uint24",
          "name": "",
          "type": "uint24"
        }
      ],
      "stateMutability": "view",
      "type": "function",
      "constant": true
    },
    {
      "inputs": [
        {
          "internalType": "address",
          "name": "from",
          "type": "address"
        },
        {
          "internalType": "address",
          "name": "to",
          "type": "address"
        },
        {
          "internalType": "uint256",
          "name": "id",
          "type": "uint256"
        },
        {
          "internalType": "uint256",
          "name": "amount",
          "type": "uint256"
        },
        {
          "internalType": "bytes",
          "name": "data",
          "type": "bytes"
        }
      ],
      "name": "safeTransferFrom",
      "outputs": [],
      "stateMutability": "nonpayable",
      "type": "function"
    },
    {
      "inputs": [
        {
          "internalType": "address",
          "name": "from",
          "type": "address"
        },
        {
          "internalType": "address",
          "name": "to",
          "type": "address"
        },
        {
          "internalType": "uint256[]",
          "name": "ids",
          "type": "uint256[]"
        },
        {
          "internalType": "uint256[]",
          "name": "amounts",
          "type": "uint256[]"
        },
        {
          "internalType": "bytes",
          "name": "data",
          "type": "bytes"
        }
      ],
      "name": "safeBatchTransferFrom",
      "outputs": [],
      "stateMutability": "nonpayable",
      "type": "function"
    },
    {
      "inputs": [
        {
          "internalType": "address",
          "name": "from",
          "type": "address"
        },
        {
          "internalType": "uint24",
          "name": "competencyId",
          "type": "uint24"
        },
        {
          "internalType": "uint24",
          "name": "amount",
          "type": "uint24"
        }
      ],
      "name": "mintCompentecy",
      "outputs": [],
      "stateMutability": "nonpayable",
      "type": "function"
    },
    {
      "inputs": [
        {
          "internalType": "address",
          "name": "from",
          "type": "address"
        },
        {
          "internalType": "address",
          "name": "to",
          "type": "address"
        },
        {
          "internalType": "uint24",
          "name": "competencyId",
          "type": "uint24"
        },
        {
          "internalType": "uint24",
          "name": "skillValuesId",
          "type": "uint24"
        }
      ],
      "name": "awardCompetency",
      "outputs": [],
      "stateMutability": "nonpayable",
      "type": "function"
    },
    {
      "inputs": [
        {
          "internalType": "address",
          "name": "from",
          "type": "address"
        },
        {
          "internalType": "address",
          "name": "to",
          "type": "address"
        },
        {
          "internalType": "uint24",
          "name": "competencyId",
          "type": "uint24"
        },
        {
          "internalType": "bool",
          "name": "permission",
          "type": "bool"
        }
      ],
      "name": "givePermissionFromOwner",
      "outputs": [],
      "stateMutability": "nonpayable",
      "type": "function"
    },
    {
      "inputs": [
        {
          "internalType": "address",
          "name": "from",
          "type": "address"
        },
        {
          "internalType": "address",
          "name": "owner",
          "type": "address"
        },
        {
          "internalType": "address",
          "name": "to",
          "type": "address"
        },
        {
          "internalType": "uint24",
          "name": "competencyId",
          "type": "uint24"
        },
        {
          "internalType": "bool",
          "name": "permission",
          "type": "bool"
        }
      ],
      "name": "givePermissionFromCreator",
      "outputs": [],
      "stateMutability": "nonpayable",
      "type": "function"
    },
    {
      "inputs": [
        {
          "internalType": "address",
          "name": "from",
          "type": "address"
        },
        {
          "internalType": "address",
          "name": "owner",
          "type": "address"
        },
        {
          "internalType": "uint24",
          "name": "competencyId",
          "type": "uint24"
        }
      ],
      "name": "hasPermissionFromCreator",
      "outputs": [
        {
          "internalType": "bool",
          "name": "",
          "type": "bool"
        }
      ],
      "stateMutability": "view",
      "type": "function",
      "constant": true
    },
    {
      "inputs": [
        {
          "internalType": "address",
          "name": "from",
          "type": "address"
        },
        {
          "internalType": "address",
          "name": "owner",
          "type": "address"
        },
        {
          "internalType": "uint24",
          "name": "competencyId",
          "type": "uint24"
        }
      ],
      "name": "hasPermissionFromOwner",
      "outputs": [
        {
          "internalType": "bool",
          "name": "",
          "type": "bool"
        }
      ],
      "stateMutability": "view",
      "type": "function",
      "constant": true
    },
    {
      "inputs": [
        {
          "internalType": "address",
          "name": "from",
          "type": "address"
        },
        {
          "internalType": "address",
          "name": "to",
          "type": "address"
        },
        {
          "internalType": "uint24",
          "name": "competencyId",
          "type": "uint24"
        },
        {
          "internalType": "uint256",
          "name": "amount",
          "type": "uint256"
        }
      ],
      "name": "asignTransferRights",
      "outputs": [],
      "stateMutability": "nonpayable",
      "type": "function"
    },
    {
      "inputs": [
        {
          "internalType": "address",
          "name": "from",
          "type": "address"
        },
        {
          "internalType": "uint24",
          "name": "competencyId",
          "type": "uint24"
        }
      ],
      "name": "getTransferRights",
      "outputs": [
        {
          "internalType": "uint256",
          "name": "",
          "type": "uint256"
        }
      ],
      "stateMutability": "view",
      "type": "function",
      "constant": true
    },
    {
      "inputs": [
        {
          "internalType": "address",
          "name": "from",
          "type": "address"
        },
        {
          "internalType": "address",
          "name": "to",
          "type": "address"
        },
        {
          "internalType": "uint24",
          "name": "competencyId",
          "type": "uint24"
        },
        {
          "internalType": "bool",
          "name": "permission",
          "type": "bool"
        }
      ],
      "name": "makeComptencyRepresentative",
      "outputs": [],
      "stateMutability": "nonpayable",
      "type": "function"
    },
    {
      "inputs": [
        {
          "internalType": "address",
          "name": "from",
          "type": "address"
        },
        {
          "internalType": "uint24",
          "name": "competencyId",
          "type": "uint24"
        }
      ],
      "name": "isComptencyRepresentative",
      "outputs": [
        {
          "internalType": "bool",
          "name": "",
          "type": "bool"
        }
      ],
      "stateMutability": "view",
      "type": "function",
      "constant": true
    }
  ],
  "bytecode": "0x60806040523480156200001157600080fd5b506040518060200160405280600081525062000033816200007960201b60201c565b506000600360006101000a81548162ffffff021916908362ffffff16021790555060006003806101000a81548162ffffff021916908362ffffff160217905550620001aa565b80600290805190602001906200009192919062000095565b5050565b828054620000a39062000145565b90600052602060002090601f016020900481019282620000c7576000855562000113565b82601f10620000e257805160ff191683800117855562000113565b8280016001018555821562000113579182015b8281111562000112578251825591602001919060010190620000f5565b5b50905062000122919062000126565b5090565b5b808211156200014157600081600090555060010162000127565b5090565b600060028204905060018216806200015e57607f821691505b602082108114156200017557620001746200017b565b5b50919050565b7f4e487b7100000000000000000000000000000000000000000000000000000000600052602260045260246000fd5b61404d80620001ba6000396000f3fe608060405234801561001057600080fd5b506004361061018d5760003560e01c806352ee9b37116100de578063b6fbac8911610097578063d6463ca611610071578063d6463ca6146104b8578063e985e9c5146104d4578063ee82c97c14610504578063f242432a146105345761018d565b8063b6fbac891461044e578063c1292cc31461046a578063c35ebf3d146104885761018d565b806352ee9b37146103685780639a97f075146103985780639d8ccec7146103b4578063a22cb465146103d2578063a601bb5f146103ee578063b2d2aa861461041e5761018d565b80632eb2c2d61161014b57806336c8af5d1161012557806336c8af5d146102ce5780634bdb8d6e146102ec5780634e1273f4146103085780634f7214a8146103385761018d565b80632eb2c2d6146102785780633187236a1461029457806335e4d50d146102b25761018d565b8062fdd58e1461019257806301ffc9a7146101c25780630e89341c146101f25780631428aeb51461022257806314ed14ef146102405780632081d8601461025c575b600080fd5b6101ac60048036038101906101a79190612dcb565b610550565b6040516101b991906139fb565b60405180910390f35b6101dc60048036038101906101d79190612e73565b610619565b6040516101e991906137c8565b60405180910390f35b61020c60048036038101906102079190612eee565b6106fb565b60405161021991906137e3565b60405180910390f35b61022a61078f565b6040516102379190613784565b60405180910390f35b61025a60048036038101906102559190612b60565b61082a565b005b61027660048036038101906102719190612d7c565b610a7c565b005b610292600480360381019061028d91906129ef565b610c4a565b005b61029c610c92565b6040516102a991906139e0565b60405180910390f35b6102cc60048036038101906102c79190612afd565b610ce5565b005b6102d6610e55565b6040516102e391906139e0565b60405180910390f35b61030660048036038101906103019190612d2d565b610eab565b005b610322600480360381019061031d9190612e07565b61103c565b60405161032f91906137a6565b60405180910390f35b610352600480360381019061034d9190612cf1565b6111ed565b60405161035f91906139fb565b60405180910390f35b610382600480360381019061037d9190612aae565b611281565b60405161038f91906137c8565b60405180910390f35b6103b260048036038101906103ad9190612afd565b61143d565b005b6103bc611521565b6040516103c991906139e0565b60405180910390f35b6103ec60048036038101906103e79190612cb5565b611538565b005b61040860048036038101906104039190612cf1565b6116b9565b60405161041591906137c8565b60405180910390f35b61043860048036038101906104339190612cf1565b6117e7565b60405161044591906139e0565b60405180910390f35b61046860048036038101906104639190612bc3565b61188a565b005b610472611af5565b60405161047f91906139e0565b60405180910390f35b6104a2600480360381019061049d9190612ec5565b611b0e565b6040516104af91906139c5565b60405180910390f35b6104d260048036038101906104cd9190612978565b611bff565b005b6104ee60048036038101906104e9919061293c565b611dfd565b6040516104fb91906137c8565b60405180910390f35b61051e60048036038101906105199190612aae565b611e91565b60405161052b91906137c8565b60405180910390f35b61054e60048036038101906105499190612c26565b611f70565b005b60008073ffffffffffffffffffffffffffffffffffffffff168373ffffffffffffffffffffffffffffffffffffffff1614156105c1576040517f08c379a00000000000000000000000000000000000000000000000000000000081526004016105b890613845565b60405180910390fd5b60008083815260200190815260200160002060008473ffffffffffffffffffffffffffffffffffffffff1673ffffffffffffffffffffffffffffffffffffffff16815260200190815260200160002054905092915050565b60007fd9b67a26000000000000000000000000000000000000000000000000000000007bffffffffffffffffffffffffffffffffffffffffffffffffffffffff1916827bffffffffffffffffffffffffffffffffffffffffffffffffffffffff191614806106e457507f0e89341c000000000000000000000000000000000000000000000000000000007bffffffffffffffffffffffffffffffffffffffffffffffffffffffff1916827bffffffffffffffffffffffffffffffffffffffffffffffffffffffff1916145b806106f457506106f382611fb8565b5b9050919050565b60606002805461070a90613d61565b80601f016020809104026020016040519081016040528092919081815260200182805461073690613d61565b80156107835780601f1061075857610100808354040283529160200191610783565b820191906000526020600020905b81548152906001019060200180831161076657829003601f168201915b50505050509050919050565b60606004805480602002602001604051908101604052809291908181526020016000905b82821015610821578382906000526020600020016040518060400160405290816000820160009054906101000a900462ffffff1662ffffff1662ffffff1681526020016000820160039054906101000a900460ff1660ff1660ff1681525050815260200190600101906107b3565b50505050905090565b816004805490508162ffffff1610610877576040517f08c379a000000000000000000000000000000000000000000000000000000000815260040161086e90613865565b60405180910390fd5b848362ffffff1660018061088b8484610550565b10156108cc576040517f08c379a00000000000000000000000000000000000000000000000000000000081526004016108c390613905565b60405180910390fd5b6108ee88888862ffffff16600160405180602001604052806000815250612022565b600760008762ffffff1662ffffff16815260200190815260200160002060008973ffffffffffffffffffffffffffffffffffffffff1673ffffffffffffffffffffffffffffffffffffffff16815260200190815260200160002060009054906101000a900460ff16806109c45750600660008762ffffff16815260200190815260200160002060009054906101000a900473ffffffffffffffffffffffffffffffffffffffff1673ffffffffffffffffffffffffffffffffffffffff168873ffffffffffffffffffffffffffffffffffffffff16145b610a1a5760086000878a6040516020016109df9291906136fe565b6040516020818303038152906040528051906020012081526020019081526020016000206000815480929190610a1490613d37565b91905055505b8460056000888a604051602001610a329291906136fe565b60405160208183030381529060405280519060200120815260200190815260200160002060006101000a81548162ffffff021916908362ffffff1602179055505050505050505050565b60018160ff161015610ac3576040517f08c379a0000000000000000000000000000000000000000000000000000000008152600401610aba90613925565b60405180910390fd5b610acb6122a4565b73ffffffffffffffffffffffffffffffffffffffff168373ffffffffffffffffffffffffffffffffffffffff161480610b115750610b1083610b0b6122a4565b611dfd565b5b610b50576040517f08c379a0000000000000000000000000000000000000000000000000000000008152600401610b4790613885565b60405180910390fd5b600060405180604001604052808462ffffff1681526020018360ff1681525090506004819080600181540180825580915050600190039060005260206000200160009091909190915060008201518160000160006101000a81548162ffffff021916908362ffffff16021790555060208201518160000160036101000a81548160ff021916908360ff160217905550505083600660006001600480549050610bf89190613c31565b815260200190815260200160002060006101000a81548173ffffffffffffffffffffffffffffffffffffffff021916908373ffffffffffffffffffffffffffffffffffffffff16021790555050505050565b6000610c8b576040517f08c379a0000000000000000000000000000000000000000000000000000000008152600401610c82906138c5565b60405180910390fd5b5050505050565b600060016003808282829054906101000a900462ffffff16610cb49190613ba2565b92506101000a81548162ffffff021916908362ffffff16021790555060038054906101000a900462ffffff16905090565b816004805490508162ffffff1610610d32576040517f08c379a0000000000000000000000000000000000000000000000000000000008152600401610d2990613865565b60405180910390fd5b8483600660008262ffffff16815260200190815260200160002060009054906101000a900473ffffffffffffffffffffffffffffffffffffffff1673ffffffffffffffffffffffffffffffffffffffff168273ffffffffffffffffffffffffffffffffffffffff1614610dda576040517f08c379a0000000000000000000000000000000000000000000000000000000008152600401610dd1906139a5565b60405180910390fd5b83600760008762ffffff1662ffffff16815260200190815260200160002060008873ffffffffffffffffffffffffffffffffffffffff1673ffffffffffffffffffffffffffffffffffffffff16815260200190815260200160002060006101000a81548160ff02191690831515021790555050505050505050565b60006001600360008282829054906101000a900462ffffff16610e789190613ba2565b92506101000a81548162ffffff021916908362ffffff160217905550600360009054906101000a900462ffffff16905090565b816004805490508162ffffff1610610ef8576040517f08c379a0000000000000000000000000000000000000000000000000000000008152600401610eef90613865565b60405180910390fd5b8383600760008262ffffff1662ffffff16815260200190815260200160002060008373ffffffffffffffffffffffffffffffffffffffff1673ffffffffffffffffffffffffffffffffffffffff16815260200190815260200160002060009054906101000a900460ff1680610fd05750600660008262ffffff16815260200190815260200160002060009054906101000a900473ffffffffffffffffffffffffffffffffffffffff1673ffffffffffffffffffffffffffffffffffffffff168273ffffffffffffffffffffffffffffffffffffffff16145b61100f576040517f08c379a0000000000000000000000000000000000000000000000000000000008152600401611006906139a5565b60405180910390fd5b611034868662ffffff168662ffffff16604051806020016040528060008152506122ac565b505050505050565b60608151835114611082576040517f08c379a000000000000000000000000000000000000000000000000000000000815260040161107990613965565b60405180910390fd5b6000835167ffffffffffffffff8111156110c5577f4e487b7100000000000000000000000000000000000000000000000000000000600052604160045260246000fd5b6040519080825280602002602001820160405280156110f35781602001602082028036833780820191505090505b50905060005b84518110156111e25761118c85828151811061113e577f4e487b7100000000000000000000000000000000000000000000000000000000600052603260045260246000fd5b602002602001015185838151811061117f577f4e487b7100000000000000000000000000000000000000000000000000000000600052603260045260246000fd5b6020026020010151610550565b8282815181106111c5577f4e487b7100000000000000000000000000000000000000000000000000000000600052603260045260246000fd5b602002602001018181525050806111db90613d93565b90506110f9565b508091505092915050565b6000816004805490508162ffffff161061123c576040517f08c379a000000000000000000000000000000000000000000000000000000000815260040161123390613865565b60405180910390fd5b6008600084866040516020016112539291906136fe565b6040516020818303038152906040528051906020012081526020019081526020016000205491505092915050565b6000816004805490508162ffffff16106112d0576040517f08c379a00000000000000000000000000000000000000000000000000000000081526004016112c790613865565b60405180910390fd5b6009600084866040516020016112e79291906136fe565b60405160208183030381529060405280519060200120815260200190815260200160002060008673ffffffffffffffffffffffffffffffffffffffff1673ffffffffffffffffffffffffffffffffffffffff16815260200190815260200160002060009054906101000a900460ff16806113c55750600760008462ffffff1662ffffff16815260200190815260200160002060008673ffffffffffffffffffffffffffffffffffffffff1673ffffffffffffffffffffffffffffffffffffffff16815260200190815260200160002060009054906101000a900460ff165b806114335750600660008462ffffff16815260200190815260200160002060009054906101000a900473ffffffffffffffffffffffffffffffffffffffff1673ffffffffffffffffffffffffffffffffffffffff168573ffffffffffffffffffffffffffffffffffffffff16145b9150509392505050565b816004805490508162ffffff161061148a576040517f08c379a000000000000000000000000000000000000000000000000000000000815260040161148190613865565b60405180910390fd5b81600a600085886040516020016114a29291906136fe565b60405160208183030381529060405280519060200120815260200190815260200160002060008673ffffffffffffffffffffffffffffffffffffffff1673ffffffffffffffffffffffffffffffffffffffff16815260200190815260200160002060006101000a81548160ff0219169083151502179055505050505050565b600060038054906101000a900462ffffff16905090565b8173ffffffffffffffffffffffffffffffffffffffff166115576122a4565b73ffffffffffffffffffffffffffffffffffffffff1614156115ae576040517f08c379a00000000000000000000000000000000000000000000000000000000081526004016115a590613945565b60405180910390fd5b80600160006115bb6122a4565b73ffffffffffffffffffffffffffffffffffffffff1673ffffffffffffffffffffffffffffffffffffffff16815260200190815260200160002060008473ffffffffffffffffffffffffffffffffffffffff1673ffffffffffffffffffffffffffffffffffffffff16815260200190815260200160002060006101000a81548160ff0219169083151502179055508173ffffffffffffffffffffffffffffffffffffffff166116686122a4565b73ffffffffffffffffffffffffffffffffffffffff167f17307eab39ab6107e8899845ad3d59bd9653f200f220920489ca2b5937696c31836040516116ad91906137c8565b60405180910390a35050565b6000816004805490508162ffffff1610611708576040517f08c379a00000000000000000000000000000000000000000000000000000000081526004016116ff90613865565b60405180910390fd5b600760008462ffffff1662ffffff16815260200190815260200160002060008573ffffffffffffffffffffffffffffffffffffffff1673ffffffffffffffffffffffffffffffffffffffff16815260200190815260200160002060009054906101000a900460ff16806117de5750600660008462ffffff16815260200190815260200160002060009054906101000a900473ffffffffffffffffffffffffffffffffffffffff1673ffffffffffffffffffffffffffffffffffffffff168473ffffffffffffffffffffffffffffffffffffffff16145b91505092915050565b6000816004805490508162ffffff1610611836576040517f08c379a000000000000000000000000000000000000000000000000000000000815260040161182d90613865565b60405180910390fd5b60056000848660405160200161184d9291906136fe565b60405160208183030381529060405280519060200120815260200190815260200160002060009054906101000a900462ffffff1691505092915050565b816004805490508162ffffff16106118d7576040517f08c379a00000000000000000000000000000000000000000000000000000000081526004016118ce90613865565b60405180910390fd5b8483600760008262ffffff1662ffffff16815260200190815260200160002060008373ffffffffffffffffffffffffffffffffffffffff1673ffffffffffffffffffffffffffffffffffffffff16815260200190815260200160002060009054906101000a900460ff16806119af5750600660008262ffffff16815260200190815260200160002060009054906101000a900473ffffffffffffffffffffffffffffffffffffffff1673ffffffffffffffffffffffffffffffffffffffff168273ffffffffffffffffffffffffffffffffffffffff16145b6119ee576040517f08c379a00000000000000000000000000000000000000000000000000000000081526004016119e5906139a5565b60405180910390fd5b868562ffffff168580611a018484610550565b1015611a42576040517f08c379a0000000000000000000000000000000000000000000000000000000008152600401611a3990613905565b60405180910390fd5b611a638a8a8a62ffffff168a60405180602001604052806000815250612022565b86600860008a8c604051602001611a7b9291906136fe565b60405160208183030381529060405280519060200120815260200190815260200160002054611aaa9190613bdb565b600860008a8c604051602001611ac19291906136fe565b6040516020818303038152906040528051906020012081526020019081526020016000208190555050505050505050505050565b6000600360009054906101000a900462ffffff16905090565b611b166126f3565b816004805490508162ffffff1610611b63576040517f08c379a0000000000000000000000000000000000000000000000000000000008152600401611b5a90613865565b60405180910390fd5b60048362ffffff1681548110611ba2577f4e487b7100000000000000000000000000000000000000000000000000000000600052603260045260246000fd5b906000526020600020016040518060400160405290816000820160009054906101000a900462ffffff1662ffffff1662ffffff1681526020016000820160039054906101000a900460ff1660ff1660ff1681525050915050919050565b816004805490508162ffffff1610611c4c576040517f08c379a0000000000000000000000000000000000000000000000000000000008152600401611c4390613865565b60405180910390fd5b8583600760008262ffffff1662ffffff16815260200190815260200160002060008373ffffffffffffffffffffffffffffffffffffffff1673ffffffffffffffffffffffffffffffffffffffff16815260200190815260200160002060009054906101000a900460ff1680611d245750600660008262ffffff16815260200190815260200160002060009054906101000a900473ffffffffffffffffffffffffffffffffffffffff1673ffffffffffffffffffffffffffffffffffffffff168273ffffffffffffffffffffffffffffffffffffffff16145b611d63576040517f08c379a0000000000000000000000000000000000000000000000000000000008152600401611d5a906139a5565b60405180910390fd5b8360096000878a604051602001611d7b9291906136fe565b60405160208183030381529060405280519060200120815260200190815260200160002060008873ffffffffffffffffffffffffffffffffffffffff1673ffffffffffffffffffffffffffffffffffffffff16815260200190815260200160002060006101000a81548160ff0219169083151502179055505050505050505050565b6000600160008473ffffffffffffffffffffffffffffffffffffffff1673ffffffffffffffffffffffffffffffffffffffff16815260200190815260200160002060008373ffffffffffffffffffffffffffffffffffffffff1673ffffffffffffffffffffffffffffffffffffffff16815260200190815260200160002060009054906101000a900460ff16905092915050565b6000816004805490508162ffffff1610611ee0576040517f08c379a0000000000000000000000000000000000000000000000000000000008152600401611ed790613865565b60405180910390fd5b600a60008486604051602001611ef79291906136fe565b60405160208183030381529060405280519060200120815260200190815260200160002060008673ffffffffffffffffffffffffffffffffffffffff1673ffffffffffffffffffffffffffffffffffffffff16815260200190815260200160002060009054906101000a900460ff169150509392505050565b6000611fb1576040517f08c379a0000000000000000000000000000000000000000000000000000000008152600401611fa8906138c5565b60405180910390fd5b5050505050565b60007f01ffc9a7000000000000000000000000000000000000000000000000000000007bffffffffffffffffffffffffffffffffffffffffffffffffffffffff1916827bffffffffffffffffffffffffffffffffffffffffffffffffffffffff1916149050919050565b600073ffffffffffffffffffffffffffffffffffffffff168473ffffffffffffffffffffffffffffffffffffffff161415612092576040517f08c379a0000000000000000000000000000000000000000000000000000000008152600401612089906138a5565b60405180910390fd5b600061209c6122a4565b90506120bc8187876120ad88612442565b6120b688612442565b87612508565b600080600086815260200190815260200160002060008873ffffffffffffffffffffffffffffffffffffffff1673ffffffffffffffffffffffffffffffffffffffff16815260200190815260200160002054905083811015612153576040517f08c379a000000000000000000000000000000000000000000000000000000000815260040161214a906138e5565b60405180910390fd5b83810360008087815260200190815260200160002060008973ffffffffffffffffffffffffffffffffffffffff1673ffffffffffffffffffffffffffffffffffffffff168152602001908152602001600020819055508360008087815260200190815260200160002060008873ffffffffffffffffffffffffffffffffffffffff1673ffffffffffffffffffffffffffffffffffffffff16815260200190815260200160002060008282546122089190613bdb565b925050819055508573ffffffffffffffffffffffffffffffffffffffff168773ffffffffffffffffffffffffffffffffffffffff168373ffffffffffffffffffffffffffffffffffffffff167fc3d58168c5ae7397731d063d5bbf3d657854427343f4c083240f7aacaa2d0f628888604051612285929190613a16565b60405180910390a461229b828888888888612510565b50505050505050565b600033905090565b600073ffffffffffffffffffffffffffffffffffffffff168473ffffffffffffffffffffffffffffffffffffffff16141561231c576040517f08c379a000000000000000000000000000000000000000000000000000000000815260040161231390613985565b60405180910390fd5b60006123266122a4565b90506123478160008761233888612442565b61234188612442565b87612508565b8260008086815260200190815260200160002060008773ffffffffffffffffffffffffffffffffffffffff1673ffffffffffffffffffffffffffffffffffffffff16815260200190815260200160002060008282546123a69190613bdb565b925050819055508473ffffffffffffffffffffffffffffffffffffffff16600073ffffffffffffffffffffffffffffffffffffffff168273ffffffffffffffffffffffffffffffffffffffff167fc3d58168c5ae7397731d063d5bbf3d657854427343f4c083240f7aacaa2d0f628787604051612424929190613a16565b60405180910390a461243b81600087878787612510565b5050505050565b60606000600167ffffffffffffffff811115612487577f4e487b7100000000000000000000000000000000000000000000000000000000600052604160045260246000fd5b6040519080825280602002602001820160405280156124b55781602001602082028036833780820191505090505b50905082816000815181106124f3577f4e487b7100000000000000000000000000000000000000000000000000000000600052603260045260246000fd5b60200260200101818152505080915050919050565b505050505050565b61252f8473ffffffffffffffffffffffffffffffffffffffff166126e0565b156126d8578373ffffffffffffffffffffffffffffffffffffffff1663f23a6e6187878686866040518663ffffffff1660e01b815260040161257595949392919061372a565b602060405180830381600087803b15801561258f57600080fd5b505af19250505080156125c057506040513d601f19601f820116820180604052508101906125bd9190612e9c565b60015b61264f576125cc613ed7565b806125d75750612614565b806040517f08c379a000000000000000000000000000000000000000000000000000000000815260040161260b91906137e3565b60405180910390fd5b6040517f08c379a000000000000000000000000000000000000000000000000000000000815260040161264690613805565b60405180910390fd5b63f23a6e6160e01b7bffffffffffffffffffffffffffffffffffffffffffffffffffffffff1916817bffffffffffffffffffffffffffffffffffffffffffffffffffffffff1916146126d6576040517f08c379a00000000000000000000000000000000000000000000000000000000081526004016126cd90613825565b60405180910390fd5b505b505050505050565b600080823b905060008111915050919050565b6040518060400160405280600062ffffff168152602001600060ff1681525090565b600061272861272384613a70565b613a3f565b9050808382526020820190508285602086028201111561274757600080fd5b60005b85811015612777578161275d888261282b565b84526020840193506020830192505060018101905061274a565b5050509392505050565b600061279461278f84613a9c565b613a3f565b905080838252602082019050828560208602820111156127b357600080fd5b60005b858110156127e357816127c98882612912565b8452602084019350602083019250506001810190506127b6565b5050509392505050565b60006128006127fb84613ac8565b613a3f565b90508281526020810184848401111561281857600080fd5b612823848285613cf5565b509392505050565b60008135905061283a81613f8d565b92915050565b600082601f83011261285157600080fd5b8135612861848260208601612715565b91505092915050565b600082601f83011261287b57600080fd5b813561288b848260208601612781565b91505092915050565b6000813590506128a381613fa4565b92915050565b6000813590506128b881613fbb565b92915050565b6000815190506128cd81613fbb565b92915050565b600082601f8301126128e457600080fd5b81356128f48482602086016127ed565b91505092915050565b60008135905061290c81613fd2565b92915050565b60008135905061292181613fe9565b92915050565b60008135905061293681614000565b92915050565b6000806040838503121561294f57600080fd5b600061295d8582860161282b565b925050602061296e8582860161282b565b9150509250929050565b600080600080600060a0868803121561299057600080fd5b600061299e8882890161282b565b95505060206129af8882890161282b565b94505060406129c08882890161282b565b93505060606129d1888289016128fd565b92505060806129e288828901612894565b9150509295509295909350565b600080600080600060a08688031215612a0757600080fd5b6000612a158882890161282b565b9550506020612a268882890161282b565b945050604086013567ffffffffffffffff811115612a4357600080fd5b612a4f8882890161286a565b935050606086013567ffffffffffffffff811115612a6c57600080fd5b612a788882890161286a565b925050608086013567ffffffffffffffff811115612a9557600080fd5b612aa1888289016128d3565b9150509295509295909350565b600080600060608486031215612ac357600080fd5b6000612ad18682870161282b565b9350506020612ae28682870161282b565b9250506040612af3868287016128fd565b9150509250925092565b60008060008060808587031215612b1357600080fd5b6000612b218782880161282b565b9450506020612b328782880161282b565b9350506040612b43878288016128fd565b9250506060612b5487828801612894565b91505092959194509250565b60008060008060808587031215612b7657600080fd5b6000612b848782880161282b565b9450506020612b958782880161282b565b9350506040612ba6878288016128fd565b9250506060612bb7878288016128fd565b91505092959194509250565b60008060008060808587031215612bd957600080fd5b6000612be78782880161282b565b9450506020612bf88782880161282b565b9350506040612c09878288016128fd565b9250506060612c1a87828801612912565b91505092959194509250565b600080600080600060a08688031215612c3e57600080fd5b6000612c4c8882890161282b565b9550506020612c5d8882890161282b565b9450506040612c6e88828901612912565b9350506060612c7f88828901612912565b925050608086013567ffffffffffffffff811115612c9c57600080fd5b612ca8888289016128d3565b9150509295509295909350565b60008060408385031215612cc857600080fd5b6000612cd68582860161282b565b9250506020612ce785828601612894565b9150509250929050565b60008060408385031215612d0457600080fd5b6000612d128582860161282b565b9250506020612d23858286016128fd565b9150509250929050565b600080600060608486031215612d4257600080fd5b6000612d508682870161282b565b9350506020612d61868287016128fd565b9250506040612d72868287016128fd565b9150509250925092565b600080600060608486031215612d9157600080fd5b6000612d9f8682870161282b565b9350506020612db0868287016128fd565b9250506040612dc186828701612927565b9150509250925092565b60008060408385031215612dde57600080fd5b6000612dec8582860161282b565b9250506020612dfd85828601612912565b9150509250929050565b60008060408385031215612e1a57600080fd5b600083013567ffffffffffffffff811115612e3457600080fd5b612e4085828601612840565b925050602083013567ffffffffffffffff811115612e5d57600080fd5b612e698582860161286a565b9150509250929050565b600060208284031215612e8557600080fd5b6000612e93848285016128a9565b91505092915050565b600060208284031215612eae57600080fd5b6000612ebc848285016128be565b91505092915050565b600060208284031215612ed757600080fd5b6000612ee5848285016128fd565b91505092915050565b600060208284031215612f0057600080fd5b6000612f0e84828501612912565b91505092915050565b6000612f23838361363e565b60408301905092915050565b6000612f3b83836136d1565b60208301905092915050565b612f5081613c65565b82525050565b612f67612f6282613c65565b613ddc565b82525050565b6000612f7882613b18565b612f828185613b5e565b9350612f8d83613af8565b8060005b83811015612fbe578151612fa58882612f17565b9750612fb083613b44565b925050600181019050612f91565b5085935050505092915050565b6000612fd682613b23565b612fe08185613b6f565b9350612feb83613b08565b8060005b8381101561301c5781516130038882612f2f565b975061300e83613b51565b925050600181019050612fef565b5085935050505092915050565b61303281613c77565b82525050565b600061304382613b2e565b61304d8185613b80565b935061305d818560208601613d04565b61306681613e9f565b840191505092915050565b600061307c82613b39565b6130868185613b91565b9350613096818560208601613d04565b61309f81613e9f565b840191505092915050565b60006130b7603483613b91565b91507f455243313135353a207472616e7366657220746f206e6f6e204552433131353560008301527f526563656976657220696d706c656d656e7465720000000000000000000000006020830152604082019050919050565b600061311d602883613b91565b91507f455243313135353a204552433131353552656365697665722072656a6563746560008301527f6420746f6b656e730000000000000000000000000000000000000000000000006020830152604082019050919050565b6000613183602b83613b91565b91507f455243313135353a2062616c616e636520717565727920666f7220746865207a60008301527f65726f20616464726573730000000000000000000000000000000000000000006020830152604082019050919050565b60006131e9602a83613b91565b91507f436f6d706574656e637953797374656d3a20436f6d706574656e637920646f6560008301527f73206e6f742065786974000000000000000000000000000000000000000000006020830152604082019050919050565b600061324f602983613b91565b91507f455243313135353a2063616c6c6572206973206e6f74206f776e6572206e6f7260008301527f20617070726f76656400000000000000000000000000000000000000000000006020830152604082019050919050565b60006132b5602583613b91565b91507f455243313135353a207472616e7366657220746f20746865207a65726f20616460008301527f64726573730000000000000000000000000000000000000000000000000000006020830152604082019050919050565b600061331b602783613b91565b91507f436f6d706574656e637953797374656d3a204d6574686f64206973206e6f742060008301527f616c6c6f776564000000000000000000000000000000000000000000000000006020830152604082019050919050565b6000613381602a83613b91565b91507f455243313135353a20696e73756666696369656e742062616c616e636520666f60008301527f72207472616e73666572000000000000000000000000000000000000000000006020830152604082019050919050565b60006133e7603483613b91565b91507f436f6d706574656e637953797374656d3a20446f65736e27742068617665207460008301527f686520616d6f756e7420696e2062616c616e63650000000000000000000000006020830152604082019050919050565b600061344d604083613b91565b91507f436f6d706574656e637953797374656d3a20416d6f756e74206f66204b6e6f7760008301527f6c6564676520456c656d656e74732073686f756c64206174206c6561737420316020830152604082019050919050565b60006134b3602983613b91565b91507f455243313135353a2073657474696e6720617070726f76616c2073746174757360008301527f20666f722073656c6600000000000000000000000000000000000000000000006020830152604082019050919050565b6000613519602983613b91565b91507f455243313135353a206163636f756e747320616e6420696473206c656e67746860008301527f206d69736d6174636800000000000000000000000000000000000000000000006020830152604082019050919050565b600061357f602183613b91565b91507f455243313135353a206d696e7420746f20746865207a65726f2061646472657360008301527f73000000000000000000000000000000000000000000000000000000000000006020830152604082019050919050565b60006135e5602983613b91565b91507f436f6d706574656e637953797374656d3a204f6e6c7920636f6d706574656e6360008301527f792063726561746f7200000000000000000000000000000000000000000000006020830152604082019050919050565b604082016000820151613654600085018261369c565b50602082015161366760208501826136ef565b50505050565b604082016000820151613683600085018261369c565b50602082015161369660208501826136ef565b50505050565b6136a581613ccf565b82525050565b6136b481613ccf565b82525050565b6136cb6136c682613ccf565b613e00565b82525050565b6136da81613cde565b82525050565b6136e981613cde565b82525050565b6136f881613ce8565b82525050565b600061370a82856136ba565b60038201915061371a8284612f56565b6014820191508190509392505050565b600060a08201905061373f6000830188612f47565b61374c6020830187612f47565b61375960408301866136e0565b61376660608301856136e0565b81810360808301526137788184613038565b90509695505050505050565b6000602082019050818103600083015261379e8184612f6d565b905092915050565b600060208201905081810360008301526137c08184612fcb565b905092915050565b60006020820190506137dd6000830184613029565b92915050565b600060208201905081810360008301526137fd8184613071565b905092915050565b6000602082019050818103600083015261381e816130aa565b9050919050565b6000602082019050818103600083015261383e81613110565b9050919050565b6000602082019050818103600083015261385e81613176565b9050919050565b6000602082019050818103600083015261387e816131dc565b9050919050565b6000602082019050818103600083015261389e81613242565b9050919050565b600060208201905081810360008301526138be816132a8565b9050919050565b600060208201905081810360008301526138de8161330e565b9050919050565b600060208201905081810360008301526138fe81613374565b9050919050565b6000602082019050818103600083015261391e816133da565b9050919050565b6000602082019050818103600083015261393e81613440565b9050919050565b6000602082019050818103600083015261395e816134a6565b9050919050565b6000602082019050818103600083015261397e8161350c565b9050919050565b6000602082019050818103600083015261399e81613572565b9050919050565b600060208201905081810360008301526139be816135d8565b9050919050565b60006040820190506139da600083018461366d565b92915050565b60006020820190506139f560008301846136ab565b92915050565b6000602082019050613a1060008301846136e0565b92915050565b6000604082019050613a2b60008301856136e0565b613a3860208301846136e0565b9392505050565b6000604051905081810181811067ffffffffffffffff82111715613a6657613a65613e70565b5b8060405250919050565b600067ffffffffffffffff821115613a8b57613a8a613e70565b5b602082029050602081019050919050565b600067ffffffffffffffff821115613ab757613ab6613e70565b5b602082029050602081019050919050565b600067ffffffffffffffff821115613ae357613ae2613e70565b5b601f19601f8301169050602081019050919050565b6000819050602082019050919050565b6000819050602082019050919050565b600081519050919050565b600081519050919050565b600081519050919050565b600081519050919050565b6000602082019050919050565b6000602082019050919050565b600082825260208201905092915050565b600082825260208201905092915050565b600082825260208201905092915050565b600082825260208201905092915050565b6000613bad82613ccf565b9150613bb883613ccf565b92508262ffffff03821115613bd057613bcf613e12565b5b828201905092915050565b6000613be682613cde565b9150613bf183613cde565b9250827fffffffffffffffffffffffffffffffffffffffffffffffffffffffffffffffff03821115613c2657613c25613e12565b5b828201905092915050565b6000613c3c82613cde565b9150613c4783613cde565b925082821015613c5a57613c59613e12565b5b828203905092915050565b6000613c7082613caf565b9050919050565b60008115159050919050565b60007fffffffff0000000000000000000000000000000000000000000000000000000082169050919050565b600073ffffffffffffffffffffffffffffffffffffffff82169050919050565b600062ffffff82169050919050565b6000819050919050565b600060ff82169050919050565b82818337600083830152505050565b60005b83811015613d22578082015181840152602081019050613d07565b83811115613d31576000848401525b50505050565b6000613d4282613cde565b91506000821415613d5657613d55613e12565b5b600182039050919050565b60006002820490506001821680613d7957607f821691505b60208210811415613d8d57613d8c613e41565b5b50919050565b6000613d9e82613cde565b91507fffffffffffffffffffffffffffffffffffffffffffffffffffffffffffffffff821415613dd157613dd0613e12565b5b600182019050919050565b6000613de782613dee565b9050919050565b6000613df982613ebd565b9050919050565b6000613e0b82613eb0565b9050919050565b7f4e487b7100000000000000000000000000000000000000000000000000000000600052601160045260246000fd5b7f4e487b7100000000000000000000000000000000000000000000000000000000600052602260045260246000fd5b7f4e487b7100000000000000000000000000000000000000000000000000000000600052604160045260246000fd5b6000601f19601f8301169050919050565b60008160e81b9050919050565b60008160601b9050919050565b60008160e01c9050919050565b600060443d1015613ee757613f8a565b60046000803e613ef8600051613eca565b6308c379a08114613f095750613f8a565b60405160043d036004823e80513d602482011167ffffffffffffffff82111715613f3557505050613f8a565b808201805167ffffffffffffffff811115613f54575050505050613f8a565b8060208301013d8501811115613f6f57505050505050613f8a565b613f7882613e9f565b60208401016040528296505050505050505b90565b613f9681613c65565b8114613fa157600080fd5b50565b613fad81613c77565b8114613fb857600080fd5b50565b613fc481613c83565b8114613fcf57600080fd5b50565b613fdb81613ccf565b8114613fe657600080fd5b50565b613ff281613cde565b8114613ffd57600080fd5b50565b61400981613ce8565b811461401457600080fd5b5056fea2646970667358221220112651d384a9cf36987664a135bfa63715eaaa971291ce673830caf9305afa8664736f6c63430008000033",
  "immutableReferences": {},
  "source": "pragma solidity ^0.8.0;\r\n\r\n//import 'https://github.com/OpenZeppelin/openzeppelin-contracts/blob/master/contracts/token/ERC1155/ERC1155.sol';\r\nimport \"@openzeppelin/contracts/token/ERC1155/ERC1155.sol\";\r\n\r\ncontract CompetencySystem is ERC1155{\r\n    \r\n    /* Skill level, using Blooms taxonomi\r\n    0. Remembering\r\n    1. Understanding\r\n    2. Applying\r\n    3. Analyzing\r\n    4. Evaluating\r\n    5. Creating\r\n    */\r\n    \r\n    ////////////////////CompetencySystem////////////////////\r\n    \r\n    uint24 competencyCounter;\r\n    uint24 skillLevelCounter;\r\n    \r\n    struct Competency {\r\n        uint24 id; \r\n        uint8 KEamount;\r\n    }\r\n    \r\n    //Competency[] _competencys;\r\n    \r\n    Competency[] private _competencys; \r\n    \r\n    mapping(bytes32 =>  uint24) private _skillLevels;\r\n    /////////////////////Permissions/////////////////////////\r\n    \r\n    mapping(uint256 => address) private _competencyCreator;\r\n    \r\n    mapping(uint24 => mapping(address => bool)) private _competencyRepresentative;\r\n    \r\n    mapping(bytes32 => uint256) private _canTransfer; \r\n    \r\n    mapping(bytes32 => mapping(address => bool)) private _canEditByCreator;\r\n    \r\n    mapping(bytes32 => mapping(address => bool)) private _canEditByOwner;\r\n    \r\n    /////////////////////Modifiers/////////////////////////\r\n    \r\n    modifier isCompetencyCreator(address acount, uint24 competencyId) {\r\n        require( acount == _competencyCreator[competencyId], \r\n        \"CompetencySystem: Only competency creator\");\r\n        _;\r\n    }\r\n    \r\n    modifier isCompetencyRepresentative(address acount, uint24 competencyId) {\r\n        require( _competencyRepresentative[competencyId][acount] || acount == _competencyCreator[competencyId] , \r\n        \"CompetencySystem: Only competency creator\");\r\n        _;\r\n    }\r\n\r\n    modifier competencyExist(uint24 competencyId) {\r\n        require( competencyId < _competencys.length, \r\n        \"CompetencySystem: Competency does not exit\");\r\n        _;\r\n    }\r\n    \r\n    modifier canEditByOwner(address acount, address owner, uint256 competencyId) {\r\n        require(_canEditByOwner[keccak256(abi.encodePacked(competencyId, owner))][acount],\r\n        \"CompetencySystem: Doesn't have owners permission to edit\");\r\n        _;\r\n    }\r\n    \r\n    modifier hasCompetency(address acount, uint256 competencyId) {\r\n        require(_skillLevels[keccak256(abi.encodePacked(competencyId, acount))] != 0, \r\n        \"CompetencySystem: Doesn't have the competency\");\r\n        _;\r\n    }\r\n    \r\n    modifier hasBalance(address acount, uint256 competencyId,uint256 amount) {\r\n        require(\r\n        balanceOf(acount, competencyId) >= amount, \r\n        \"CompetencySystem: Doesn't have the amount in balance\");\r\n        _;\r\n    }\r\n\r\n    modifier canTransfer(uint24 competencyId, uint256 amount ,  address sender) {\r\n        require(\r\n        (_canTransfer[keccak256(abi.encodePacked(competencyId, sender))] - amount > 0 || _competencyRepresentative[competencyId][sender] || sender == _competencyCreator[competencyId]) \r\n        , \"CompetencySystem: Doesn't have permission to transfer\");\r\n        _;\r\n    }\r\n\r\n    \r\n    /////////////////////Methods/////////////////////////\r\n    \r\n    constructor() ERC1155(\"\") {\r\n        competencyCounter = 0;\r\n        skillLevelCounter = 0;\r\n    }\r\n    //Como UVG (ente creador de competencias), deseo poder crear competencias, para definir los saberes qu se pueden obtener en mi institucin.\r\n\r\n    function _getId() public returns(uint24) {\r\n        competencyCounter += 1;\r\n        return competencyCounter;\r\n    }\r\n\r\n    function lastId() public view returns(uint24) {\r\n        return competencyCounter;\r\n    }\r\n    \r\n    function _getSkillId() public returns(uint24) {\r\n        skillLevelCounter += 1;\r\n        return skillLevelCounter;\r\n    }\r\n\r\n    function lastSkillId() public view returns(uint24) {\r\n        return skillLevelCounter;\r\n    }\r\n\r\n    function createCompetency(\r\n        address from,\r\n        uint24 id, \r\n        uint8 KEamount\r\n    ) public {\r\n        // Check id is not saved?\r\n        require (KEamount >= 1, \"CompetencySystem: Amount of Knowledge Elements should at least 1\");\r\n        require(\r\n            from == _msgSender() || isApprovedForAll(from, _msgSender()),\r\n            \"ERC1155: caller is not owner nor approved\"\r\n        );\r\n        //Create competency\r\n        Competency memory _competencyDescription = Competency(id, KEamount);\r\n        //Add to the array of competencys\r\n        _competencys.push(_competencyDescription);\r\n        //Set owner\r\n        _competencyCreator[_competencys.length - 1] = from;\r\n    }\r\n\r\n    function getCompetencys() public view returns (Competency[] memory){\r\n        return _competencys;\r\n    }\r\n    \r\n    function getCompetency(uint24 pos) competencyExist(pos) public view returns (Competency memory){\r\n        return _competencys[pos];\r\n    }\r\n    \r\n    function getSkillLevel(\r\n        address owner, \r\n        uint24 competencyId\r\n    ) competencyExist(competencyId) public view returns (uint24){\r\n        return _skillLevels[keccak256(abi.encodePacked(competencyId, owner))];\r\n    }\r\n    \r\n    function safeTransferFrom( //Award competency\r\n        address from,\r\n        address to,\r\n        uint256 id,\r\n        uint256 amount,\r\n        bytes memory data\r\n    ) public virtual override {\r\n        (from); (to); (id); (amount); (data);\r\n        require( false, \"CompetencySystem: Method is not allowed\" );\r\n    }\r\n\r\n    function safeBatchTransferFrom( //Award competencys\r\n        address from,\r\n        address to,\r\n        uint256[] memory ids,\r\n        uint256[] memory amounts,\r\n        bytes memory data\r\n    ) public virtual override {\r\n        (from); (to); (ids); (amounts); (data);\r\n        require( false, \"CompetencySystem: Method is not allowed\" );\r\n    }\r\n    \r\n    \r\n    function mintCompentecy(\r\n        address from,\r\n        uint24 competencyId, \r\n        uint24 amount\r\n    ) competencyExist(competencyId) isCompetencyRepresentative(from, competencyId) public {\r\n        _mint(from, competencyId, amount, \"\");\r\n    }\r\n    \r\n    function awardCompetency(\r\n        address from,\r\n        address to,\r\n        uint24 competencyId,\r\n        uint24 skillValuesId\r\n        //bytes memory data\r\n    ) competencyExist(competencyId) /*canTransfer(competencyId, 1, from)*/ hasBalance(from, competencyId, 1) public { \r\n        _safeTransferFrom(from, to, competencyId, 1, \"\");\r\n        if (!( _competencyRepresentative[competencyId][from] || from == _competencyCreator[competencyId])) {  \r\n            _canTransfer[keccak256(abi.encodePacked(competencyId, from))]--;   \r\n        }\r\n        _skillLevels[keccak256(abi.encodePacked(competencyId, to))] = skillValuesId;\r\n    }\r\n    \r\n\r\n    function givePermissionFromOwner(\r\n        address from, // who is granting the permission (the owner)\r\n        address to, // to whom the permission is been granted\r\n        uint24 competencyId,\r\n        bool permission\r\n    ) competencyExist(competencyId) /* hasCompetency(from, competencyId) */ public {\r\n        _canEditByOwner[keccak256(abi.encodePacked(competencyId, from))][to] = permission;\r\n    }\r\n    \r\n     \r\n    function givePermissionFromCreator(\r\n        address from, // who is granting the permission\r\n        address owner, // who is the competency owner\r\n        address to, // to whom the permission is been granted\r\n        uint24 competencyId,\r\n        bool permission\r\n    ) competencyExist(competencyId) isCompetencyRepresentative(from, competencyId) public {\r\n        /*\r\n        require(\r\n            from == _msgSender() || isApprovedForAll(from, _msgSender()),\r\n            \"ERC1155: transfer caller is not owner nor approved\"\r\n        );*/\r\n        _canEditByCreator[keccak256(abi.encodePacked(competencyId, owner))][to] = permission;\r\n    }\r\n    \r\n    \r\n    function hasPermissionFromCreator(\r\n        address from, //Who is updating the skill Values\r\n        address owner,\r\n        uint24 competencyId \r\n    ) competencyExist(competencyId) public view returns (bool){\r\n        return (_canEditByCreator[keccak256(abi.encodePacked(competencyId, owner))][from] || _competencyRepresentative[competencyId][from] || from == _competencyCreator[competencyId]) ;\r\n    }\r\n    \r\n    function hasPermissionFromOwner(\r\n        address from, //Who is updating the skill Values\r\n        address owner,\r\n        uint24 competencyId \r\n    ) competencyExist(competencyId) public view returns (bool){\r\n        return (_canEditByOwner[keccak256(abi.encodePacked(competencyId, owner))][from]) ;\r\n    }\r\n\r\n    function asignTransferRights(\r\n        address from,\r\n        address to,\r\n        uint24 competencyId,\r\n        uint256 amount\r\n    ) competencyExist(competencyId) isCompetencyRepresentative(from, competencyId) hasBalance(from, competencyId, amount) public  {\r\n        /*\r\n        require(\r\n            from == _msgSender() || isApprovedForAll(from, _msgSender()),\r\n            \"ERC1155: caller is not owner nor approved\"\r\n        );*/\r\n        _safeTransferFrom(from, to, competencyId, amount, \"\");\r\n        _canTransfer[keccak256(abi.encodePacked(competencyId, to))] = _canTransfer[keccak256(abi.encodePacked(competencyId, to))] + amount;\r\n    }\r\n\r\n    function getTransferRights(\r\n        address from,\r\n        uint24 competencyId\r\n    ) competencyExist(competencyId) view public returns (uint){\r\n        return _canTransfer[keccak256(abi.encodePacked(competencyId, from))];\r\n    }\r\n    \r\n    function makeComptencyRepresentative(\r\n        address from,\r\n        address to,\r\n        uint24 competencyId,\r\n        bool permission\r\n    ) competencyExist(competencyId) isCompetencyCreator(from, competencyId) public {\r\n        _competencyRepresentative[competencyId][to] = permission;\r\n    }\r\n\r\n    function isComptencyRepresentative(\r\n        address from,\r\n        uint24 competencyId\r\n    ) competencyExist(competencyId) view public returns (bool){\r\n        return  (_competencyRepresentative[competencyId][from] || from == _competencyCreator[competencyId]);\r\n    }   \r\n}",
  "sourcePath": "/home/paul/Documents/tesisApi/Truffle/contracts/CompetencySystem.sol",
  "compiler": {
    "name": "solc",
    "version": "0.8.0+commit.c7dfd78e.Emscripten.clang"
  },
  "schemaVersion": "3.4.3",
  "updatedAt": "2021-11-27T00:27:28.596Z",
  "networkType": "ethereum",
  "devdoc": {
    "kind": "dev",
    "methods": {
      "balanceOf(address,uint256)": {
        "details": "See {IERC1155-balanceOf}. Requirements: - `account` cannot be the zero address."
      },
      "balanceOfBatch(address[],uint256[])": {
        "details": "See {IERC1155-balanceOfBatch}. Requirements: - `accounts` and `ids` must have the same length."
      },
      "isApprovedForAll(address,address)": {
        "details": "See {IERC1155-isApprovedForAll}."
      },
      "safeBatchTransferFrom(address,address,uint256[],uint256[],bytes)": {
        "details": "See {IERC1155-safeBatchTransferFrom}."
      },
      "safeTransferFrom(address,address,uint256,uint256,bytes)": {
        "details": "See {IERC1155-safeTransferFrom}."
      },
      "setApprovalForAll(address,bool)": {
        "details": "See {IERC1155-setApprovalForAll}."
      },
      "supportsInterface(bytes4)": {
        "details": "See {IERC165-supportsInterface}."
      },
      "uri(uint256)": {
        "details": "See {IERC1155MetadataURI-uri}. This implementation returns the same URI for *all* token types. It relies on the token type ID substitution mechanism https://eips.ethereum.org/EIPS/eip-1155#metadata[defined in the EIP]. Clients calling this function must replace the `\\{id\\}` substring with the actual token type ID."
      }
    },
    "version": 1
  },
  "userdoc": {
    "kind": "user",
    "methods": {},
    "version": 1
  }
}