{
  "contractName": "CompetencySystem",
  "abi": [
    {
      "inputs": [],
      "stateMutability": "nonpayable",
      "type": "constructor"
    },
    {
      "anonymous": false,
      "inputs": [
        {
          "indexed": true,
          "internalType": "address",
          "name": "account",
          "type": "address"
        },
        {
          "indexed": true,
          "internalType": "address",
          "name": "operator",
          "type": "address"
        },
        {
          "indexed": false,
          "internalType": "bool",
          "name": "approved",
          "type": "bool"
        }
      ],
      "name": "ApprovalForAll",
      "type": "event"
    },
    {
      "anonymous": false,
      "inputs": [
        {
          "indexed": true,
          "internalType": "address",
          "name": "operator",
          "type": "address"
        },
        {
          "indexed": true,
          "internalType": "address",
          "name": "from",
          "type": "address"
        },
        {
          "indexed": true,
          "internalType": "address",
          "name": "to",
          "type": "address"
        },
        {
          "indexed": false,
          "internalType": "uint256[]",
          "name": "ids",
          "type": "uint256[]"
        },
        {
          "indexed": false,
          "internalType": "uint256[]",
          "name": "values",
          "type": "uint256[]"
        }
      ],
      "name": "TransferBatch",
      "type": "event"
    },
    {
      "anonymous": false,
      "inputs": [
        {
          "indexed": true,
          "internalType": "address",
          "name": "operator",
          "type": "address"
        },
        {
          "indexed": true,
          "internalType": "address",
          "name": "from",
          "type": "address"
        },
        {
          "indexed": true,
          "internalType": "address",
          "name": "to",
          "type": "address"
        },
        {
          "indexed": false,
          "internalType": "uint256",
          "name": "id",
          "type": "uint256"
        },
        {
          "indexed": false,
          "internalType": "uint256",
          "name": "value",
          "type": "uint256"
        }
      ],
      "name": "TransferSingle",
      "type": "event"
    },
    {
      "anonymous": false,
      "inputs": [
        {
          "indexed": false,
          "internalType": "string",
          "name": "value",
          "type": "string"
        },
        {
          "indexed": true,
          "internalType": "uint256",
          "name": "id",
          "type": "uint256"
        }
      ],
      "name": "URI",
      "type": "event"
    },
    {
      "inputs": [
        {
          "internalType": "address",
          "name": "account",
          "type": "address"
        },
        {
          "internalType": "uint256",
          "name": "id",
          "type": "uint256"
        }
      ],
      "name": "balanceOf",
      "outputs": [
        {
          "internalType": "uint256",
          "name": "",
          "type": "uint256"
        }
      ],
      "stateMutability": "view",
      "type": "function",
      "constant": true
    },
    {
      "inputs": [
        {
          "internalType": "address[]",
          "name": "accounts",
          "type": "address[]"
        },
        {
          "internalType": "uint256[]",
          "name": "ids",
          "type": "uint256[]"
        }
      ],
      "name": "balanceOfBatch",
      "outputs": [
        {
          "internalType": "uint256[]",
          "name": "",
          "type": "uint256[]"
        }
      ],
      "stateMutability": "view",
      "type": "function",
      "constant": true
    },
    {
      "inputs": [
        {
          "internalType": "address",
          "name": "account",
          "type": "address"
        },
        {
          "internalType": "address",
          "name": "operator",
          "type": "address"
        }
      ],
      "name": "isApprovedForAll",
      "outputs": [
        {
          "internalType": "bool",
          "name": "",
          "type": "bool"
        }
      ],
      "stateMutability": "view",
      "type": "function",
      "constant": true
    },
    {
      "inputs": [
        {
          "internalType": "address",
          "name": "operator",
          "type": "address"
        },
        {
          "internalType": "bool",
          "name": "approved",
          "type": "bool"
        }
      ],
      "name": "setApprovalForAll",
      "outputs": [],
      "stateMutability": "nonpayable",
      "type": "function"
    },
    {
      "inputs": [
        {
          "internalType": "bytes4",
          "name": "interfaceId",
          "type": "bytes4"
        }
      ],
      "name": "supportsInterface",
      "outputs": [
        {
          "internalType": "bool",
          "name": "",
          "type": "bool"
        }
      ],
      "stateMutability": "view",
      "type": "function",
      "constant": true
    },
    {
      "inputs": [
        {
          "internalType": "uint256",
          "name": "",
          "type": "uint256"
        }
      ],
      "name": "uri",
      "outputs": [
        {
          "internalType": "string",
          "name": "",
          "type": "string"
        }
      ],
      "stateMutability": "view",
      "type": "function",
      "constant": true
    },
    {
      "inputs": [],
      "name": "_getId",
      "outputs": [
        {
          "internalType": "uint24",
          "name": "",
          "type": "uint24"
        }
      ],
      "stateMutability": "nonpayable",
      "type": "function"
    },
    {
      "inputs": [],
      "name": "lastId",
      "outputs": [
        {
          "internalType": "uint24",
          "name": "",
          "type": "uint24"
        }
      ],
      "stateMutability": "view",
      "type": "function",
      "constant": true
    },
    {
      "inputs": [],
      "name": "_getSkillId",
      "outputs": [
        {
          "internalType": "uint24",
          "name": "",
          "type": "uint24"
        }
      ],
      "stateMutability": "nonpayable",
      "type": "function"
    },
    {
      "inputs": [],
      "name": "lastSkillId",
      "outputs": [
        {
          "internalType": "uint24",
          "name": "",
          "type": "uint24"
        }
      ],
      "stateMutability": "view",
      "type": "function",
      "constant": true
    },
    {
      "inputs": [
        {
          "internalType": "address",
          "name": "from",
          "type": "address"
        },
        {
          "internalType": "uint24",
          "name": "id",
          "type": "uint24"
        },
        {
          "internalType": "uint8",
          "name": "KEamount",
          "type": "uint8"
        }
      ],
      "name": "createCompetency",
      "outputs": [],
      "stateMutability": "nonpayable",
      "type": "function"
    },
    {
      "inputs": [],
      "name": "getCompetencys",
      "outputs": [
        {
          "components": [
            {
              "internalType": "uint24",
              "name": "id",
              "type": "uint24"
            },
            {
              "internalType": "uint8",
              "name": "KEamount",
              "type": "uint8"
            }
          ],
          "internalType": "struct CompetencySystem.Competency[]",
          "name": "",
          "type": "tuple[]"
        }
      ],
      "stateMutability": "view",
      "type": "function",
      "constant": true
    },
    {
      "inputs": [
        {
          "internalType": "uint24",
          "name": "pos",
          "type": "uint24"
        }
      ],
      "name": "getCompetency",
      "outputs": [
        {
          "components": [
            {
              "internalType": "uint24",
              "name": "id",
              "type": "uint24"
            },
            {
              "internalType": "uint8",
              "name": "KEamount",
              "type": "uint8"
            }
          ],
          "internalType": "struct CompetencySystem.Competency",
          "name": "",
          "type": "tuple"
        }
      ],
      "stateMutability": "view",
      "type": "function",
      "constant": true
    },
    {
      "inputs": [
        {
          "internalType": "address",
          "name": "owner",
          "type": "address"
        },
        {
          "internalType": "uint24",
          "name": "competencyId",
          "type": "uint24"
        }
      ],
      "name": "getSkillLevel",
      "outputs": [
        {
          "internalType": "uint24",
          "name": "",
          "type": "uint24"
        }
      ],
      "stateMutability": "view",
      "type": "function",
      "constant": true
    },
    {
      "inputs": [
        {
          "internalType": "address",
          "name": "from",
          "type": "address"
        },
        {
          "internalType": "address",
          "name": "to",
          "type": "address"
        },
        {
          "internalType": "uint256",
          "name": "id",
          "type": "uint256"
        },
        {
          "internalType": "uint256",
          "name": "amount",
          "type": "uint256"
        },
        {
          "internalType": "bytes",
          "name": "data",
          "type": "bytes"
        }
      ],
      "name": "safeTransferFrom",
      "outputs": [],
      "stateMutability": "nonpayable",
      "type": "function"
    },
    {
      "inputs": [
        {
          "internalType": "address",
          "name": "from",
          "type": "address"
        },
        {
          "internalType": "address",
          "name": "to",
          "type": "address"
        },
        {
          "internalType": "uint256[]",
          "name": "ids",
          "type": "uint256[]"
        },
        {
          "internalType": "uint256[]",
          "name": "amounts",
          "type": "uint256[]"
        },
        {
          "internalType": "bytes",
          "name": "data",
          "type": "bytes"
        }
      ],
      "name": "safeBatchTransferFrom",
      "outputs": [],
      "stateMutability": "nonpayable",
      "type": "function"
    },
    {
      "inputs": [
        {
          "internalType": "address",
          "name": "from",
          "type": "address"
        },
        {
          "internalType": "uint24",
          "name": "competencyId",
          "type": "uint24"
        },
        {
          "internalType": "uint24",
          "name": "amount",
          "type": "uint24"
        }
      ],
      "name": "mintCompentecy",
      "outputs": [],
      "stateMutability": "nonpayable",
      "type": "function"
    },
    {
      "inputs": [
        {
          "internalType": "address",
          "name": "from",
          "type": "address"
        },
        {
          "internalType": "address",
          "name": "to",
          "type": "address"
        },
        {
          "internalType": "uint24",
          "name": "competencyId",
          "type": "uint24"
        },
        {
          "internalType": "uint24",
          "name": "skillValuesId",
          "type": "uint24"
        }
      ],
      "name": "awardCompetency",
      "outputs": [],
      "stateMutability": "nonpayable",
      "type": "function"
    },
    {
      "inputs": [
        {
          "internalType": "address",
          "name": "from",
          "type": "address"
        },
        {
          "internalType": "address",
          "name": "to",
          "type": "address"
        },
        {
          "internalType": "uint24",
          "name": "competencyId",
          "type": "uint24"
        },
        {
          "internalType": "bool",
          "name": "permission",
          "type": "bool"
        }
      ],
      "name": "givePermissionFromOwner",
      "outputs": [],
      "stateMutability": "nonpayable",
      "type": "function"
    },
    {
      "inputs": [
        {
          "internalType": "address",
          "name": "from",
          "type": "address"
        },
        {
          "internalType": "address",
          "name": "owner",
          "type": "address"
        },
        {
          "internalType": "address",
          "name": "to",
          "type": "address"
        },
        {
          "internalType": "uint24",
          "name": "competencyId",
          "type": "uint24"
        },
        {
          "internalType": "bool",
          "name": "permission",
          "type": "bool"
        }
      ],
      "name": "givePermissionFromCreator",
      "outputs": [],
      "stateMutability": "nonpayable",
      "type": "function"
    },
    {
      "inputs": [
        {
          "internalType": "address",
          "name": "from",
          "type": "address"
        },
        {
          "internalType": "address",
          "name": "owner",
          "type": "address"
        },
        {
          "internalType": "uint24",
          "name": "competencyId",
          "type": "uint24"
        }
      ],
      "name": "hasPermissionFromCreator",
      "outputs": [
        {
          "internalType": "bool",
          "name": "",
          "type": "bool"
        }
      ],
      "stateMutability": "view",
      "type": "function",
      "constant": true
    },
    {
      "inputs": [
        {
          "internalType": "address",
          "name": "from",
          "type": "address"
        },
        {
          "internalType": "address",
          "name": "owner",
          "type": "address"
        },
        {
          "internalType": "uint24",
          "name": "competencyId",
          "type": "uint24"
        }
      ],
      "name": "hasPermissionFromOwner",
      "outputs": [
        {
          "internalType": "bool",
          "name": "",
          "type": "bool"
        }
      ],
      "stateMutability": "view",
      "type": "function",
      "constant": true
    },
    {
      "inputs": [
        {
          "internalType": "address",
          "name": "from",
          "type": "address"
        },
        {
          "internalType": "address",
          "name": "to",
          "type": "address"
        },
        {
          "internalType": "uint24",
          "name": "competencyId",
          "type": "uint24"
        },
        {
          "internalType": "uint256",
          "name": "amount",
          "type": "uint256"
        }
      ],
      "name": "asignTransferRights",
      "outputs": [],
      "stateMutability": "nonpayable",
      "type": "function"
    },
    {
      "inputs": [
        {
          "internalType": "address",
          "name": "from",
          "type": "address"
        },
        {
          "internalType": "uint24",
          "name": "competencyId",
          "type": "uint24"
        }
      ],
      "name": "getTransferRights",
      "outputs": [
        {
          "internalType": "uint256",
          "name": "",
          "type": "uint256"
        }
      ],
      "stateMutability": "view",
      "type": "function",
      "constant": true
    },
    {
      "inputs": [
        {
          "internalType": "address",
          "name": "from",
          "type": "address"
        },
        {
          "internalType": "address",
          "name": "to",
          "type": "address"
        },
        {
          "internalType": "uint24",
          "name": "competencyId",
          "type": "uint24"
        },
        {
          "internalType": "bool",
          "name": "permission",
          "type": "bool"
        }
      ],
      "name": "makeComptencyRepresentative",
      "outputs": [],
      "stateMutability": "nonpayable",
      "type": "function"
    },
    {
      "inputs": [
        {
          "internalType": "address",
          "name": "from",
          "type": "address"
        },
        {
          "internalType": "uint24",
          "name": "competencyId",
          "type": "uint24"
        }
      ],
      "name": "isComptencyRepresentative",
      "outputs": [
        {
          "internalType": "bool",
          "name": "",
          "type": "bool"
        }
      ],
      "stateMutability": "view",
      "type": "function",
      "constant": true
    }
  ],
  "bytecode": "0x60806040523480156200001157600080fd5b506040518060200160405280600081525062000033816200007960201b60201c565b506000600360006101000a81548162ffffff021916908362ffffff16021790555060006003806101000a81548162ffffff021916908362ffffff160217905550620001aa565b80600290805190602001906200009192919062000095565b5050565b828054620000a39062000145565b90600052602060002090601f016020900481019282620000c7576000855562000113565b82601f10620000e257805160ff191683800117855562000113565b8280016001018555821562000113579182015b8281111562000112578251825591602001919060010190620000f5565b5b50905062000122919062000126565b5090565b5b808211156200014157600081600090555060010162000127565b5090565b600060028204905060018216806200015e57607f821691505b602082108114156200017557620001746200017b565b5b50919050565b7f4e487b7100000000000000000000000000000000000000000000000000000000600052602260045260246000fd5b613f3f80620001ba6000396000f3fe608060405234801561001057600080fd5b506004361061018d5760003560e01c806352ee9b37116100de578063b6fbac8911610097578063d6463ca611610071578063d6463ca6146104b8578063e985e9c5146104d4578063ee82c97c14610504578063f242432a146105345761018d565b8063b6fbac891461044e578063c1292cc31461046a578063c35ebf3d146104885761018d565b806352ee9b37146103685780639a97f075146103985780639d8ccec7146103b4578063a22cb465146103d2578063a601bb5f146103ee578063b2d2aa861461041e5761018d565b80632eb2c2d61161014b57806336c8af5d1161012557806336c8af5d146102ce5780634bdb8d6e146102ec5780634e1273f4146103085780634f7214a8146103385761018d565b80632eb2c2d6146102785780633187236a1461029457806335e4d50d146102b25761018d565b8062fdd58e1461019257806301ffc9a7146101c25780630e89341c146101f25780631428aeb51461022257806314ed14ef146102405780632081d8601461025c575b600080fd5b6101ac60048036038101906101a79190612cbd565b610550565b6040516101b991906138ed565b60405180910390f35b6101dc60048036038101906101d79190612d65565b610619565b6040516101e991906136ba565b60405180910390f35b61020c60048036038101906102079190612de0565b6106fb565b60405161021991906136d5565b60405180910390f35b61022a61078f565b6040516102379190613676565b60405180910390f35b61025a60048036038101906102559190612a52565b61082a565b005b61027660048036038101906102719190612c6e565b610a24565b005b610292600480360381019061028d91906128e1565b610bf2565b005b61029c610c3a565b6040516102a991906138d2565b60405180910390f35b6102cc60048036038101906102c791906129ef565b610c8d565b005b6102d6610dfd565b6040516102e391906138d2565b60405180910390f35b61030660048036038101906103019190612c1f565b610e53565b005b610322600480360381019061031d9190612cf9565b610fe4565b60405161032f9190613698565b60405180910390f35b610352600480360381019061034d9190612be3565b611195565b60405161035f91906138ed565b60405180910390f35b610382600480360381019061037d91906129a0565b611229565b60405161038f91906136ba565b60405180910390f35b6103b260048036038101906103ad91906129ef565b6113e5565b005b6103bc61151e565b6040516103c991906138d2565b60405180910390f35b6103ec60048036038101906103e79190612ba7565b611535565b005b61040860048036038101906104039190612be3565b6116b6565b60405161041591906136ba565b60405180910390f35b61043860048036038101906104339190612be3565b611776565b60405161044591906138d2565b60405180910390f35b61046860048036038101906104639190612ab5565b611819565b005b6104726119e7565b60405161047f91906138d2565b60405180910390f35b6104a2600480360381019061049d9190612db7565b611a00565b6040516104af91906138b7565b60405180910390f35b6104d260048036038101906104cd919061286a565b611af1565b005b6104ee60048036038101906104e9919061282e565b611cef565b6040516104fb91906136ba565b60405180910390f35b61051e600480360381019061051991906129a0565b611d83565b60405161052b91906136ba565b60405180910390f35b61054e60048036038101906105499190612b18565b611e62565b005b60008073ffffffffffffffffffffffffffffffffffffffff168373ffffffffffffffffffffffffffffffffffffffff1614156105c1576040517f08c379a00000000000000000000000000000000000000000000000000000000081526004016105b890613757565b60405180910390fd5b60008083815260200190815260200160002060008473ffffffffffffffffffffffffffffffffffffffff1673ffffffffffffffffffffffffffffffffffffffff16815260200190815260200160002054905092915050565b60007fd9b67a26000000000000000000000000000000000000000000000000000000007bffffffffffffffffffffffffffffffffffffffffffffffffffffffff1916827bffffffffffffffffffffffffffffffffffffffffffffffffffffffff191614806106e457507f0e89341c000000000000000000000000000000000000000000000000000000007bffffffffffffffffffffffffffffffffffffffffffffffffffffffff1916827bffffffffffffffffffffffffffffffffffffffffffffffffffffffff1916145b806106f457506106f382611eaa565b5b9050919050565b60606002805461070a90613c53565b80601f016020809104026020016040519081016040528092919081815260200182805461073690613c53565b80156107835780601f1061075857610100808354040283529160200191610783565b820191906000526020600020905b81548152906001019060200180831161076657829003601f168201915b50505050509050919050565b60606004805480602002602001604051908101604052809291908181526020016000905b82821015610821578382906000526020600020016040518060400160405290816000820160009054906101000a900462ffffff1662ffffff1662ffffff1681526020016000820160039054906101000a900460ff1660ff1660ff1681525050815260200190600101906107b3565b50505050905090565b816004805490508162ffffff1610610877576040517f08c379a000000000000000000000000000000000000000000000000000000000815260040161086e90613777565b60405180910390fd5b61089985858562ffffff16600160405180602001604052806000815250611f14565b600760008462ffffff1662ffffff16815260200190815260200160002060008673ffffffffffffffffffffffffffffffffffffffff1673ffffffffffffffffffffffffffffffffffffffff16815260200190815260200160002060009054906101000a900460ff168061096f5750600660008462ffffff16815260200190815260200160002060009054906101000a900473ffffffffffffffffffffffffffffffffffffffff1673ffffffffffffffffffffffffffffffffffffffff168573ffffffffffffffffffffffffffffffffffffffff16145b6109c55760086000848760405160200161098a9291906135f0565b60405160208183030381529060405280519060200120815260200190815260200160002060008154809291906109bf90613c29565b91905055505b816005600085876040516020016109dd9291906135f0565b60405160208183030381529060405280519060200120815260200190815260200160002060006101000a81548162ffffff021916908362ffffff1602179055505050505050565b60018160ff161015610a6b576040517f08c379a0000000000000000000000000000000000000000000000000000000008152600401610a6290613817565b60405180910390fd5b610a73612196565b73ffffffffffffffffffffffffffffffffffffffff168373ffffffffffffffffffffffffffffffffffffffff161480610ab95750610ab883610ab3612196565b611cef565b5b610af8576040517f08c379a0000000000000000000000000000000000000000000000000000000008152600401610aef90613797565b60405180910390fd5b600060405180604001604052808462ffffff1681526020018360ff1681525090506004819080600181540180825580915050600190039060005260206000200160009091909190915060008201518160000160006101000a81548162ffffff021916908362ffffff16021790555060208201518160000160036101000a81548160ff021916908360ff160217905550505083600660006001600480549050610ba09190613b23565b815260200190815260200160002060006101000a81548173ffffffffffffffffffffffffffffffffffffffff021916908373ffffffffffffffffffffffffffffffffffffffff16021790555050505050565b6000610c33576040517f08c379a0000000000000000000000000000000000000000000000000000000008152600401610c2a906137d7565b60405180910390fd5b5050505050565b600060016003808282829054906101000a900462ffffff16610c5c9190613a94565b92506101000a81548162ffffff021916908362ffffff16021790555060038054906101000a900462ffffff16905090565b816004805490508162ffffff1610610cda576040517f08c379a0000000000000000000000000000000000000000000000000000000008152600401610cd190613777565b60405180910390fd5b8483600660008262ffffff16815260200190815260200160002060009054906101000a900473ffffffffffffffffffffffffffffffffffffffff1673ffffffffffffffffffffffffffffffffffffffff168273ffffffffffffffffffffffffffffffffffffffff1614610d82576040517f08c379a0000000000000000000000000000000000000000000000000000000008152600401610d7990613897565b60405180910390fd5b83600760008762ffffff1662ffffff16815260200190815260200160002060008873ffffffffffffffffffffffffffffffffffffffff1673ffffffffffffffffffffffffffffffffffffffff16815260200190815260200160002060006101000a81548160ff02191690831515021790555050505050505050565b60006001600360008282829054906101000a900462ffffff16610e209190613a94565b92506101000a81548162ffffff021916908362ffffff160217905550600360009054906101000a900462ffffff16905090565b816004805490508162ffffff1610610ea0576040517f08c379a0000000000000000000000000000000000000000000000000000000008152600401610e9790613777565b60405180910390fd5b8383600760008262ffffff1662ffffff16815260200190815260200160002060008373ffffffffffffffffffffffffffffffffffffffff1673ffffffffffffffffffffffffffffffffffffffff16815260200190815260200160002060009054906101000a900460ff1680610f785750600660008262ffffff16815260200190815260200160002060009054906101000a900473ffffffffffffffffffffffffffffffffffffffff1673ffffffffffffffffffffffffffffffffffffffff168273ffffffffffffffffffffffffffffffffffffffff16145b610fb7576040517f08c379a0000000000000000000000000000000000000000000000000000000008152600401610fae90613897565b60405180910390fd5b610fdc868662ffffff168662ffffff166040518060200160405280600081525061219e565b505050505050565b6060815183511461102a576040517f08c379a000000000000000000000000000000000000000000000000000000000815260040161102190613857565b60405180910390fd5b6000835167ffffffffffffffff81111561106d577f4e487b7100000000000000000000000000000000000000000000000000000000600052604160045260246000fd5b60405190808252806020026020018201604052801561109b5781602001602082028036833780820191505090505b50905060005b845181101561118a576111348582815181106110e6577f4e487b7100000000000000000000000000000000000000000000000000000000600052603260045260246000fd5b6020026020010151858381518110611127577f4e487b7100000000000000000000000000000000000000000000000000000000600052603260045260246000fd5b6020026020010151610550565b82828151811061116d577f4e487b7100000000000000000000000000000000000000000000000000000000600052603260045260246000fd5b6020026020010181815250508061118390613c85565b90506110a1565b508091505092915050565b6000816004805490508162ffffff16106111e4576040517f08c379a00000000000000000000000000000000000000000000000000000000081526004016111db90613777565b60405180910390fd5b6008600084866040516020016111fb9291906135f0565b6040516020818303038152906040528051906020012081526020019081526020016000205491505092915050565b6000816004805490508162ffffff1610611278576040517f08c379a000000000000000000000000000000000000000000000000000000000815260040161126f90613777565b60405180910390fd5b60096000848660405160200161128f9291906135f0565b60405160208183030381529060405280519060200120815260200190815260200160002060008673ffffffffffffffffffffffffffffffffffffffff1673ffffffffffffffffffffffffffffffffffffffff16815260200190815260200160002060009054906101000a900460ff168061136d5750600760008462ffffff1662ffffff16815260200190815260200160002060008673ffffffffffffffffffffffffffffffffffffffff1673ffffffffffffffffffffffffffffffffffffffff16815260200190815260200160002060009054906101000a900460ff165b806113db5750600660008462ffffff16815260200190815260200160002060009054906101000a900473ffffffffffffffffffffffffffffffffffffffff1673ffffffffffffffffffffffffffffffffffffffff168573ffffffffffffffffffffffffffffffffffffffff16145b9150509392505050565b816004805490508162ffffff1610611432576040517f08c379a000000000000000000000000000000000000000000000000000000000815260040161142990613777565b60405180910390fd5b848362ffffff1660006114458383610550565b11611485576040517f08c379a000000000000000000000000000000000000000000000000000000000815260040161147c90613737565b60405180910390fd5b83600a6000878a60405160200161149d9291906135f0565b60405160208183030381529060405280519060200120815260200190815260200160002060008873ffffffffffffffffffffffffffffffffffffffff1673ffffffffffffffffffffffffffffffffffffffff16815260200190815260200160002060006101000a81548160ff02191690831515021790555050505050505050565b600060038054906101000a900462ffffff16905090565b8173ffffffffffffffffffffffffffffffffffffffff16611554612196565b73ffffffffffffffffffffffffffffffffffffffff1614156115ab576040517f08c379a00000000000000000000000000000000000000000000000000000000081526004016115a290613837565b60405180910390fd5b80600160006115b8612196565b73ffffffffffffffffffffffffffffffffffffffff1673ffffffffffffffffffffffffffffffffffffffff16815260200190815260200160002060008473ffffffffffffffffffffffffffffffffffffffff1673ffffffffffffffffffffffffffffffffffffffff16815260200190815260200160002060006101000a81548160ff0219169083151502179055508173ffffffffffffffffffffffffffffffffffffffff16611665612196565b73ffffffffffffffffffffffffffffffffffffffff167f17307eab39ab6107e8899845ad3d59bd9653f200f220920489ca2b5937696c31836040516116aa91906136ba565b60405180910390a35050565b6000816004805490508162ffffff1610611705576040517f08c379a00000000000000000000000000000000000000000000000000000000081526004016116fc90613777565b60405180910390fd5b600760008462ffffff1662ffffff16815260200190815260200160002060008573ffffffffffffffffffffffffffffffffffffffff1673ffffffffffffffffffffffffffffffffffffffff16815260200190815260200160002060009054906101000a900460ff1691505092915050565b6000816004805490508162ffffff16106117c5576040517f08c379a00000000000000000000000000000000000000000000000000000000081526004016117bc90613777565b60405180910390fd5b6005600084866040516020016117dc9291906135f0565b60405160208183030381529060405280519060200120815260200190815260200160002060009054906101000a900462ffffff1691505092915050565b816004805490508162ffffff1610611866576040517f08c379a000000000000000000000000000000000000000000000000000000000815260040161185d90613777565b60405180910390fd5b8483600760008262ffffff1662ffffff16815260200190815260200160002060008373ffffffffffffffffffffffffffffffffffffffff1673ffffffffffffffffffffffffffffffffffffffff16815260200190815260200160002060009054906101000a900460ff168061193e5750600660008262ffffff16815260200190815260200160002060009054906101000a900473ffffffffffffffffffffffffffffffffffffffff1673ffffffffffffffffffffffffffffffffffffffff168273ffffffffffffffffffffffffffffffffffffffff16145b61197d576040517f08c379a000000000000000000000000000000000000000000000000000000000815260040161197490613897565b60405180910390fd5b61199e87878762ffffff168760405180602001604052806000815250611f14565b8360086000878a6040516020016119b69291906135f0565b6040516020818303038152906040528051906020012081526020019081526020016000208190555050505050505050565b6000600360009054906101000a900462ffffff16905090565b611a086125e5565b816004805490508162ffffff1610611a55576040517f08c379a0000000000000000000000000000000000000000000000000000000008152600401611a4c90613777565b60405180910390fd5b60048362ffffff1681548110611a94577f4e487b7100000000000000000000000000000000000000000000000000000000600052603260045260246000fd5b906000526020600020016040518060400160405290816000820160009054906101000a900462ffffff1662ffffff1662ffffff1681526020016000820160039054906101000a900460ff1660ff1660ff1681525050915050919050565b816004805490508162ffffff1610611b3e576040517f08c379a0000000000000000000000000000000000000000000000000000000008152600401611b3590613777565b60405180910390fd5b8583600760008262ffffff1662ffffff16815260200190815260200160002060008373ffffffffffffffffffffffffffffffffffffffff1673ffffffffffffffffffffffffffffffffffffffff16815260200190815260200160002060009054906101000a900460ff1680611c165750600660008262ffffff16815260200190815260200160002060009054906101000a900473ffffffffffffffffffffffffffffffffffffffff1673ffffffffffffffffffffffffffffffffffffffff168273ffffffffffffffffffffffffffffffffffffffff16145b611c55576040517f08c379a0000000000000000000000000000000000000000000000000000000008152600401611c4c90613897565b60405180910390fd5b8360096000878a604051602001611c6d9291906135f0565b60405160208183030381529060405280519060200120815260200190815260200160002060008873ffffffffffffffffffffffffffffffffffffffff1673ffffffffffffffffffffffffffffffffffffffff16815260200190815260200160002060006101000a81548160ff0219169083151502179055505050505050505050565b6000600160008473ffffffffffffffffffffffffffffffffffffffff1673ffffffffffffffffffffffffffffffffffffffff16815260200190815260200160002060008373ffffffffffffffffffffffffffffffffffffffff1673ffffffffffffffffffffffffffffffffffffffff16815260200190815260200160002060009054906101000a900460ff16905092915050565b6000816004805490508162ffffff1610611dd2576040517f08c379a0000000000000000000000000000000000000000000000000000000008152600401611dc990613777565b60405180910390fd5b600a60008486604051602001611de99291906135f0565b60405160208183030381529060405280519060200120815260200190815260200160002060008673ffffffffffffffffffffffffffffffffffffffff1673ffffffffffffffffffffffffffffffffffffffff16815260200190815260200160002060009054906101000a900460ff169150509392505050565b6000611ea3576040517f08c379a0000000000000000000000000000000000000000000000000000000008152600401611e9a906137d7565b60405180910390fd5b5050505050565b60007f01ffc9a7000000000000000000000000000000000000000000000000000000007bffffffffffffffffffffffffffffffffffffffffffffffffffffffff1916827bffffffffffffffffffffffffffffffffffffffffffffffffffffffff1916149050919050565b600073ffffffffffffffffffffffffffffffffffffffff168473ffffffffffffffffffffffffffffffffffffffff161415611f84576040517f08c379a0000000000000000000000000000000000000000000000000000000008152600401611f7b906137b7565b60405180910390fd5b6000611f8e612196565b9050611fae818787611f9f88612334565b611fa888612334565b876123fa565b600080600086815260200190815260200160002060008873ffffffffffffffffffffffffffffffffffffffff1673ffffffffffffffffffffffffffffffffffffffff16815260200190815260200160002054905083811015612045576040517f08c379a000000000000000000000000000000000000000000000000000000000815260040161203c906137f7565b60405180910390fd5b83810360008087815260200190815260200160002060008973ffffffffffffffffffffffffffffffffffffffff1673ffffffffffffffffffffffffffffffffffffffff168152602001908152602001600020819055508360008087815260200190815260200160002060008873ffffffffffffffffffffffffffffffffffffffff1673ffffffffffffffffffffffffffffffffffffffff16815260200190815260200160002060008282546120fa9190613acd565b925050819055508573ffffffffffffffffffffffffffffffffffffffff168773ffffffffffffffffffffffffffffffffffffffff168373ffffffffffffffffffffffffffffffffffffffff167fc3d58168c5ae7397731d063d5bbf3d657854427343f4c083240f7aacaa2d0f628888604051612177929190613908565b60405180910390a461218d828888888888612402565b50505050505050565b600033905090565b600073ffffffffffffffffffffffffffffffffffffffff168473ffffffffffffffffffffffffffffffffffffffff16141561220e576040517f08c379a000000000000000000000000000000000000000000000000000000000815260040161220590613877565b60405180910390fd5b6000612218612196565b90506122398160008761222a88612334565b61223388612334565b876123fa565b8260008086815260200190815260200160002060008773ffffffffffffffffffffffffffffffffffffffff1673ffffffffffffffffffffffffffffffffffffffff16815260200190815260200160002060008282546122989190613acd565b925050819055508473ffffffffffffffffffffffffffffffffffffffff16600073ffffffffffffffffffffffffffffffffffffffff168273ffffffffffffffffffffffffffffffffffffffff167fc3d58168c5ae7397731d063d5bbf3d657854427343f4c083240f7aacaa2d0f628787604051612316929190613908565b60405180910390a461232d81600087878787612402565b5050505050565b60606000600167ffffffffffffffff811115612379577f4e487b7100000000000000000000000000000000000000000000000000000000600052604160045260246000fd5b6040519080825280602002602001820160405280156123a75781602001602082028036833780820191505090505b50905082816000815181106123e5577f4e487b7100000000000000000000000000000000000000000000000000000000600052603260045260246000fd5b60200260200101818152505080915050919050565b505050505050565b6124218473ffffffffffffffffffffffffffffffffffffffff166125d2565b156125ca578373ffffffffffffffffffffffffffffffffffffffff1663f23a6e6187878686866040518663ffffffff1660e01b815260040161246795949392919061361c565b602060405180830381600087803b15801561248157600080fd5b505af19250505080156124b257506040513d601f19601f820116820180604052508101906124af9190612d8e565b60015b612541576124be613dc9565b806124c95750612506565b806040517f08c379a00000000000000000000000000000000000000000000000000000000081526004016124fd91906136d5565b60405180910390fd5b6040517f08c379a0000000000000000000000000000000000000000000000000000000008152600401612538906136f7565b60405180910390fd5b63f23a6e6160e01b7bffffffffffffffffffffffffffffffffffffffffffffffffffffffff1916817bffffffffffffffffffffffffffffffffffffffffffffffffffffffff1916146125c8576040517f08c379a00000000000000000000000000000000000000000000000000000000081526004016125bf90613717565b60405180910390fd5b505b505050505050565b600080823b905060008111915050919050565b6040518060400160405280600062ffffff168152602001600060ff1681525090565b600061261a61261584613962565b613931565b9050808382526020820190508285602086028201111561263957600080fd5b60005b85811015612669578161264f888261271d565b84526020840193506020830192505060018101905061263c565b5050509392505050565b60006126866126818461398e565b613931565b905080838252602082019050828560208602820111156126a557600080fd5b60005b858110156126d557816126bb8882612804565b8452602084019350602083019250506001810190506126a8565b5050509392505050565b60006126f26126ed846139ba565b613931565b90508281526020810184848401111561270a57600080fd5b612715848285613be7565b509392505050565b60008135905061272c81613e7f565b92915050565b600082601f83011261274357600080fd5b8135612753848260208601612607565b91505092915050565b600082601f83011261276d57600080fd5b813561277d848260208601612673565b91505092915050565b60008135905061279581613e96565b92915050565b6000813590506127aa81613ead565b92915050565b6000815190506127bf81613ead565b92915050565b600082601f8301126127d657600080fd5b81356127e68482602086016126df565b91505092915050565b6000813590506127fe81613ec4565b92915050565b60008135905061281381613edb565b92915050565b60008135905061282881613ef2565b92915050565b6000806040838503121561284157600080fd5b600061284f8582860161271d565b92505060206128608582860161271d565b9150509250929050565b600080600080600060a0868803121561288257600080fd5b60006128908882890161271d565b95505060206128a18882890161271d565b94505060406128b28882890161271d565b93505060606128c3888289016127ef565b92505060806128d488828901612786565b9150509295509295909350565b600080600080600060a086880312156128f957600080fd5b60006129078882890161271d565b95505060206129188882890161271d565b945050604086013567ffffffffffffffff81111561293557600080fd5b6129418882890161275c565b935050606086013567ffffffffffffffff81111561295e57600080fd5b61296a8882890161275c565b925050608086013567ffffffffffffffff81111561298757600080fd5b612993888289016127c5565b9150509295509295909350565b6000806000606084860312156129b557600080fd5b60006129c38682870161271d565b93505060206129d48682870161271d565b92505060406129e5868287016127ef565b9150509250925092565b60008060008060808587031215612a0557600080fd5b6000612a138782880161271d565b9450506020612a248782880161271d565b9350506040612a35878288016127ef565b9250506060612a4687828801612786565b91505092959194509250565b60008060008060808587031215612a6857600080fd5b6000612a768782880161271d565b9450506020612a878782880161271d565b9350506040612a98878288016127ef565b9250506060612aa9878288016127ef565b91505092959194509250565b60008060008060808587031215612acb57600080fd5b6000612ad98782880161271d565b9450506020612aea8782880161271d565b9350506040612afb878288016127ef565b9250506060612b0c87828801612804565b91505092959194509250565b600080600080600060a08688031215612b3057600080fd5b6000612b3e8882890161271d565b9550506020612b4f8882890161271d565b9450506040612b6088828901612804565b9350506060612b7188828901612804565b925050608086013567ffffffffffffffff811115612b8e57600080fd5b612b9a888289016127c5565b9150509295509295909350565b60008060408385031215612bba57600080fd5b6000612bc88582860161271d565b9250506020612bd985828601612786565b9150509250929050565b60008060408385031215612bf657600080fd5b6000612c048582860161271d565b9250506020612c15858286016127ef565b9150509250929050565b600080600060608486031215612c3457600080fd5b6000612c428682870161271d565b9350506020612c53868287016127ef565b9250506040612c64868287016127ef565b9150509250925092565b600080600060608486031215612c8357600080fd5b6000612c918682870161271d565b9350506020612ca2868287016127ef565b9250506040612cb386828701612819565b9150509250925092565b60008060408385031215612cd057600080fd5b6000612cde8582860161271d565b9250506020612cef85828601612804565b9150509250929050565b60008060408385031215612d0c57600080fd5b600083013567ffffffffffffffff811115612d2657600080fd5b612d3285828601612732565b925050602083013567ffffffffffffffff811115612d4f57600080fd5b612d5b8582860161275c565b9150509250929050565b600060208284031215612d7757600080fd5b6000612d858482850161279b565b91505092915050565b600060208284031215612da057600080fd5b6000612dae848285016127b0565b91505092915050565b600060208284031215612dc957600080fd5b6000612dd7848285016127ef565b91505092915050565b600060208284031215612df257600080fd5b6000612e0084828501612804565b91505092915050565b6000612e158383613530565b60408301905092915050565b6000612e2d83836135c3565b60208301905092915050565b612e4281613b57565b82525050565b612e59612e5482613b57565b613cce565b82525050565b6000612e6a82613a0a565b612e748185613a50565b9350612e7f836139ea565b8060005b83811015612eb0578151612e978882612e09565b9750612ea283613a36565b925050600181019050612e83565b5085935050505092915050565b6000612ec882613a15565b612ed28185613a61565b9350612edd836139fa565b8060005b83811015612f0e578151612ef58882612e21565b9750612f0083613a43565b925050600181019050612ee1565b5085935050505092915050565b612f2481613b69565b82525050565b6000612f3582613a20565b612f3f8185613a72565b9350612f4f818560208601613bf6565b612f5881613d91565b840191505092915050565b6000612f6e82613a2b565b612f788185613a83565b9350612f88818560208601613bf6565b612f9181613d91565b840191505092915050565b6000612fa9603483613a83565b91507f455243313135353a207472616e7366657220746f206e6f6e204552433131353560008301527f526563656976657220696d706c656d656e7465720000000000000000000000006020830152604082019050919050565b600061300f602883613a83565b91507f455243313135353a204552433131353552656365697665722072656a6563746560008301527f6420746f6b656e730000000000000000000000000000000000000000000000006020830152604082019050919050565b6000613075602d83613a83565b91507f436f6d706574656e637953797374656d3a20446f65736e27742068617665207460008301527f686520636f6d706574656e6379000000000000000000000000000000000000006020830152604082019050919050565b60006130db602b83613a83565b91507f455243313135353a2062616c616e636520717565727920666f7220746865207a60008301527f65726f20616464726573730000000000000000000000000000000000000000006020830152604082019050919050565b6000613141602a83613a83565b91507f436f6d706574656e637953797374656d3a20436f6d706574656e637920646f6560008301527f73206e6f742065786974000000000000000000000000000000000000000000006020830152604082019050919050565b60006131a7602983613a83565b91507f455243313135353a2063616c6c6572206973206e6f74206f776e6572206e6f7260008301527f20617070726f76656400000000000000000000000000000000000000000000006020830152604082019050919050565b600061320d602583613a83565b91507f455243313135353a207472616e7366657220746f20746865207a65726f20616460008301527f64726573730000000000000000000000000000000000000000000000000000006020830152604082019050919050565b6000613273602783613a83565b91507f436f6d706574656e637953797374656d3a204d6574686f64206973206e6f742060008301527f616c6c6f776564000000000000000000000000000000000000000000000000006020830152604082019050919050565b60006132d9602a83613a83565b91507f455243313135353a20696e73756666696369656e742062616c616e636520666f60008301527f72207472616e73666572000000000000000000000000000000000000000000006020830152604082019050919050565b600061333f604083613a83565b91507f436f6d706574656e637953797374656d3a20416d6f756e74206f66204b6e6f7760008301527f6c6564676520456c656d656e74732073686f756c64206174206c6561737420316020830152604082019050919050565b60006133a5602983613a83565b91507f455243313135353a2073657474696e6720617070726f76616c2073746174757360008301527f20666f722073656c6600000000000000000000000000000000000000000000006020830152604082019050919050565b600061340b602983613a83565b91507f455243313135353a206163636f756e747320616e6420696473206c656e67746860008301527f206d69736d6174636800000000000000000000000000000000000000000000006020830152604082019050919050565b6000613471602183613a83565b91507f455243313135353a206d696e7420746f20746865207a65726f2061646472657360008301527f73000000000000000000000000000000000000000000000000000000000000006020830152604082019050919050565b60006134d7602983613a83565b91507f436f6d706574656e637953797374656d3a204f6e6c7920636f6d706574656e6360008301527f792063726561746f7200000000000000000000000000000000000000000000006020830152604082019050919050565b604082016000820151613546600085018261358e565b50602082015161355960208501826135e1565b50505050565b604082016000820151613575600085018261358e565b50602082015161358860208501826135e1565b50505050565b61359781613bc1565b82525050565b6135a681613bc1565b82525050565b6135bd6135b882613bc1565b613cf2565b82525050565b6135cc81613bd0565b82525050565b6135db81613bd0565b82525050565b6135ea81613bda565b82525050565b60006135fc82856135ac565b60038201915061360c8284612e48565b6014820191508190509392505050565b600060a0820190506136316000830188612e39565b61363e6020830187612e39565b61364b60408301866135d2565b61365860608301856135d2565b818103608083015261366a8184612f2a565b90509695505050505050565b600060208201905081810360008301526136908184612e5f565b905092915050565b600060208201905081810360008301526136b28184612ebd565b905092915050565b60006020820190506136cf6000830184612f1b565b92915050565b600060208201905081810360008301526136ef8184612f63565b905092915050565b6000602082019050818103600083015261371081612f9c565b9050919050565b6000602082019050818103600083015261373081613002565b9050919050565b6000602082019050818103600083015261375081613068565b9050919050565b60006020820190508181036000830152613770816130ce565b9050919050565b6000602082019050818103600083015261379081613134565b9050919050565b600060208201905081810360008301526137b08161319a565b9050919050565b600060208201905081810360008301526137d081613200565b9050919050565b600060208201905081810360008301526137f081613266565b9050919050565b60006020820190508181036000830152613810816132cc565b9050919050565b6000602082019050818103600083015261383081613332565b9050919050565b6000602082019050818103600083015261385081613398565b9050919050565b60006020820190508181036000830152613870816133fe565b9050919050565b6000602082019050818103600083015261389081613464565b9050919050565b600060208201905081810360008301526138b0816134ca565b9050919050565b60006040820190506138cc600083018461355f565b92915050565b60006020820190506138e7600083018461359d565b92915050565b600060208201905061390260008301846135d2565b92915050565b600060408201905061391d60008301856135d2565b61392a60208301846135d2565b9392505050565b6000604051905081810181811067ffffffffffffffff8211171561395857613957613d62565b5b8060405250919050565b600067ffffffffffffffff82111561397d5761397c613d62565b5b602082029050602081019050919050565b600067ffffffffffffffff8211156139a9576139a8613d62565b5b602082029050602081019050919050565b600067ffffffffffffffff8211156139d5576139d4613d62565b5b601f19601f8301169050602081019050919050565b6000819050602082019050919050565b6000819050602082019050919050565b600081519050919050565b600081519050919050565b600081519050919050565b600081519050919050565b6000602082019050919050565b6000602082019050919050565b600082825260208201905092915050565b600082825260208201905092915050565b600082825260208201905092915050565b600082825260208201905092915050565b6000613a9f82613bc1565b9150613aaa83613bc1565b92508262ffffff03821115613ac257613ac1613d04565b5b828201905092915050565b6000613ad882613bd0565b9150613ae383613bd0565b9250827fffffffffffffffffffffffffffffffffffffffffffffffffffffffffffffffff03821115613b1857613b17613d04565b5b828201905092915050565b6000613b2e82613bd0565b9150613b3983613bd0565b925082821015613b4c57613b4b613d04565b5b828203905092915050565b6000613b6282613ba1565b9050919050565b60008115159050919050565b60007fffffffff0000000000000000000000000000000000000000000000000000000082169050919050565b600073ffffffffffffffffffffffffffffffffffffffff82169050919050565b600062ffffff82169050919050565b6000819050919050565b600060ff82169050919050565b82818337600083830152505050565b60005b83811015613c14578082015181840152602081019050613bf9565b83811115613c23576000848401525b50505050565b6000613c3482613bd0565b91506000821415613c4857613c47613d04565b5b600182039050919050565b60006002820490506001821680613c6b57607f821691505b60208210811415613c7f57613c7e613d33565b5b50919050565b6000613c9082613bd0565b91507fffffffffffffffffffffffffffffffffffffffffffffffffffffffffffffffff821415613cc357613cc2613d04565b5b600182019050919050565b6000613cd982613ce0565b9050919050565b6000613ceb82613daf565b9050919050565b6000613cfd82613da2565b9050919050565b7f4e487b7100000000000000000000000000000000000000000000000000000000600052601160045260246000fd5b7f4e487b7100000000000000000000000000000000000000000000000000000000600052602260045260246000fd5b7f4e487b7100000000000000000000000000000000000000000000000000000000600052604160045260246000fd5b6000601f19601f8301169050919050565b60008160e81b9050919050565b60008160601b9050919050565b60008160e01c9050919050565b600060443d1015613dd957613e7c565b60046000803e613dea600051613dbc565b6308c379a08114613dfb5750613e7c565b60405160043d036004823e80513d602482011167ffffffffffffffff82111715613e2757505050613e7c565b808201805167ffffffffffffffff811115613e46575050505050613e7c565b8060208301013d8501811115613e6157505050505050613e7c565b613e6a82613d91565b60208401016040528296505050505050505b90565b613e8881613b57565b8114613e9357600080fd5b50565b613e9f81613b69565b8114613eaa57600080fd5b50565b613eb681613b75565b8114613ec157600080fd5b50565b613ecd81613bc1565b8114613ed857600080fd5b50565b613ee481613bd0565b8114613eef57600080fd5b50565b613efb81613bda565b8114613f0657600080fd5b5056fea2646970667358221220d336f944d3d7fad3536209c9a6086a51d3d93ffab8a468c23d468540b3b5096b64736f6c63430008000033",
  "immutableReferences": {},
  "source": "pragma solidity ^0.8.0;\r\n\r\n//import 'https://github.com/OpenZeppelin/openzeppelin-contracts/blob/master/contracts/token/ERC1155/ERC1155.sol';\r\nimport \"@openzeppelin/contracts/token/ERC1155/ERC1155.sol\";\r\n\r\ncontract CompetencySystem is ERC1155{\r\n    \r\n    /* Skill level, using Blooms taxonomi\r\n    0. Remembering\r\n    1. Understanding\r\n    2. Applying\r\n    3. Analyzing\r\n    4. Evaluating\r\n    5. Creating\r\n    */\r\n    \r\n    ////////////////////CompetencySystem////////////////////\r\n    \r\n    uint24 competencyCounter;\r\n    uint24 skillLevelCounter;\r\n    \r\n    struct Competency {\r\n        uint24 id; \r\n        uint8 KEamount;\r\n    }\r\n    \r\n    //Competency[] _competencys;\r\n    \r\n    Competency[] private _competencys; \r\n    \r\n    mapping(bytes32 =>  uint24) private _skillLevels;\r\n    /////////////////////Permissions/////////////////////////\r\n    \r\n    mapping(uint256 => address) private _competencyCreator;\r\n    \r\n    mapping(uint24 => mapping(address => bool)) private _competencyRepresentative;\r\n    \r\n    mapping(bytes32 => uint256) private _canTransfer; \r\n    \r\n    mapping(bytes32 => mapping(address => bool)) private _canEditByCreator;\r\n    \r\n    mapping(bytes32 => mapping(address => bool)) private _canEditByOwner;\r\n    \r\n    /////////////////////Modifiers/////////////////////////\r\n    \r\n    modifier isCompetencyCreator(address acount, uint24 competencyId) {\r\n        require( acount == _competencyCreator[competencyId], \r\n        \"CompetencySystem: Only competency creator\");\r\n        _;\r\n    }\r\n    \r\n    modifier isCompetencyRepresentative(address acount, uint24 competencyId) {\r\n        require( _competencyRepresentative[competencyId][acount] || acount == _competencyCreator[competencyId] , \r\n        \"CompetencySystem: Only competency creator\");\r\n        _;\r\n    }\r\n\r\n    modifier competencyExist(uint24 competencyId) {\r\n        require( competencyId < _competencys.length, \r\n        \"CompetencySystem: Competency does not exit\");\r\n        _;\r\n    }\r\n    \r\n    modifier canEditByOwner(address acount, address owner, uint256 competencyId) {\r\n        require(_canEditByOwner[keccak256(abi.encodePacked(competencyId, owner))][acount],\r\n        \"CompetencySystem: Doesn't have owners permission to edit\");\r\n        _;\r\n    }\r\n    \r\n    modifier hasCompetency(address acount, uint256 competencyId) {\r\n        require(balanceOf(acount, competencyId) > 0, \r\n        \"CompetencySystem: Doesn't have the competency\");\r\n        _;\r\n    }\r\n    \r\n    modifier canTransfer(uint24 competencyId, uint256 amount ,  address sender) {\r\n        require(_canTransfer[keccak256(abi.encodePacked(competencyId, sender))] - amount > 0 || _competencyRepresentative[competencyId][sender] || sender == _competencyCreator[competencyId] \r\n        , \"CompetencySystem: Doesn't have permission to transfer\");\r\n        _;\r\n    }\r\n\r\n    \r\n    /////////////////////Methods/////////////////////////\r\n    \r\n    constructor() ERC1155(\"\") {\r\n        competencyCounter = 0;\r\n        skillLevelCounter = 0;\r\n    }\r\n    //Como UVG (ente creador de competencias), deseo poder crear competencias, para definir los saberes qu se pueden obtener en mi institucin.\r\n\r\n    function _getId() public returns(uint24) {\r\n        competencyCounter += 1;\r\n        return competencyCounter;\r\n    }\r\n\r\n    function lastId() public view returns(uint24) {\r\n        return competencyCounter;\r\n    }\r\n    \r\n    function _getSkillId() public returns(uint24) {\r\n        skillLevelCounter += 1;\r\n        return skillLevelCounter;\r\n    }\r\n\r\n    function lastSkillId() public view returns(uint24) {\r\n        return skillLevelCounter;\r\n    }\r\n\r\n    function createCompetency(\r\n        address from,\r\n        uint24 id, \r\n        uint8 KEamount\r\n    ) public {\r\n        // Check id is not saved?\r\n        require (KEamount >= 1, \"CompetencySystem: Amount of Knowledge Elements should at least 1\");\r\n        require(\r\n            from == _msgSender() || isApprovedForAll(from, _msgSender()),\r\n            \"ERC1155: caller is not owner nor approved\"\r\n        );\r\n        //Create competency\r\n        Competency memory _competencyDescription = Competency(id, KEamount);\r\n        //Add to the array of competencys\r\n        _competencys.push(_competencyDescription);\r\n        //Set owner\r\n        _competencyCreator[_competencys.length - 1] = from;\r\n    }\r\n\r\n    function getCompetencys() public view returns (Competency[] memory){\r\n        return _competencys;\r\n    }\r\n    \r\n    function getCompetency(uint24 pos) competencyExist(pos) public view returns (Competency memory){\r\n        return _competencys[pos];\r\n    }\r\n    \r\n    /*\r\n    function _setSkillLevel(\r\n        address owner,\r\n        uint24 id,\r\n        uint24 competencyId\r\n    ) competencyExist(competencyId) /*hasCompetency(owner, competencyId) public {\r\n        _skillLevels[keccak256(abi.encodePacked(competencyId, owner))] = (id);\r\n\r\n    }*/\r\n    \r\n    //Add validation\r\n    function getSkillLevel(\r\n        address owner, \r\n        uint24 competencyId\r\n    ) competencyExist(competencyId)  public view returns (uint24){\r\n        return _skillLevels[keccak256(abi.encodePacked(competencyId, owner))];\r\n    }\r\n    \r\n    function safeTransferFrom( //Award competency\r\n        address from,\r\n        address to,\r\n        uint256 id,\r\n        uint256 amount,\r\n        bytes memory data\r\n    ) public virtual override {\r\n        (from); (to); (id); (amount); (data);\r\n        require( false, \"CompetencySystem: Method is not allowed\" );\r\n    }\r\n\r\n    function safeBatchTransferFrom( //Award competencys\r\n        address from,\r\n        address to,\r\n        uint256[] memory ids,\r\n        uint256[] memory amounts,\r\n        bytes memory data\r\n    ) public virtual override {\r\n        (from); (to); (ids); (amounts); (data);\r\n        require( false, \"CompetencySystem: Method is not allowed\" );\r\n    }\r\n    \r\n    \r\n    function mintCompentecy(\r\n        address from,\r\n        uint24 competencyId, \r\n        uint24 amount\r\n    ) competencyExist(competencyId) isCompetencyRepresentative(from, competencyId) public {\r\n        _mint(from, competencyId, amount, \"\");\r\n    }\r\n    \r\n    function awardCompetency(\r\n        address from,\r\n        address to,\r\n        uint24 competencyId,\r\n        uint24 skillValuesId\r\n        //bytes memory data\r\n    ) competencyExist(competencyId) /*canTransfer(competencyId, 1, from)*/ public { //has enought to transfer\r\n        /*\r\n        require(\r\n            from == _msgSender() || isApprovedForAll(from, _msgSender()),\r\n            \"ERC1155: caller is not owner nor approved\"\r\n        );*/\r\n        _safeTransferFrom(from, to, competencyId, 1, \"\");\r\n        if (!( _competencyRepresentative[competencyId][from] || from == _competencyCreator[competencyId])) {  \r\n            _canTransfer[keccak256(abi.encodePacked(competencyId, from))]--;   \r\n        }\r\n        _skillLevels[keccak256(abi.encodePacked(competencyId, to))] = skillValuesId;\r\n    }\r\n    \r\n\r\n    function givePermissionFromOwner(\r\n        address from, // who is granting the permission (the owner)\r\n        address to, // to whom the permission is been granted\r\n        uint24 competencyId,\r\n        bool permission\r\n    ) competencyExist(competencyId) hasCompetency(from, competencyId) public {\r\n        _canEditByOwner[keccak256(abi.encodePacked(competencyId, from))][to] = permission;\r\n    }\r\n    \r\n     \r\n    function givePermissionFromCreator(\r\n        address from, // who is granting the permission\r\n        address owner, // who is the competency owner\r\n        address to, // to whom the permission is been granted\r\n        uint24 competencyId,\r\n        bool permission\r\n    ) competencyExist(competencyId) isCompetencyRepresentative(from, competencyId) public {\r\n        /*\r\n        require(\r\n            from == _msgSender() || isApprovedForAll(from, _msgSender()),\r\n            \"ERC1155: transfer caller is not owner nor approved\"\r\n        );*/\r\n        _canEditByCreator[keccak256(abi.encodePacked(competencyId, owner))][to] = permission;\r\n    }\r\n    \r\n    \r\n    function hasPermissionFromCreator(\r\n        address from, //Who is updating the skill Values\r\n        address owner,\r\n        uint24 competencyId \r\n    ) competencyExist(competencyId) public view returns (bool){\r\n        return (_canEditByCreator[keccak256(abi.encodePacked(competencyId, owner))][from] || _competencyRepresentative[competencyId][from] || from == _competencyCreator[competencyId]) ;\r\n    }\r\n    \r\n    function hasPermissionFromOwner(\r\n        address from, //Who is updating the skill Values\r\n        address owner,\r\n        uint24 competencyId \r\n    ) competencyExist(competencyId) public view returns (bool){\r\n        return (_canEditByOwner[keccak256(abi.encodePacked(competencyId, owner))][from]) ;\r\n    }\r\n\r\n    function asignTransferRights(\r\n        address from,\r\n        address to,\r\n        uint24 competencyId,\r\n        uint256 amount\r\n    ) competencyExist(competencyId) isCompetencyRepresentative(from, competencyId) public  {\r\n        /*\r\n        require(\r\n            from == _msgSender() || isApprovedForAll(from, _msgSender()),\r\n            \"ERC1155: caller is not owner nor approved\"\r\n        );*/\r\n        _safeTransferFrom(from, to, competencyId, amount, \"\");\r\n        _canTransfer[keccak256(abi.encodePacked(competencyId, from))] = amount;\r\n    }\r\n\r\n    function getTransferRights(\r\n        address from,\r\n        uint24 competencyId\r\n    ) competencyExist(competencyId) view public returns (uint){\r\n        return _canTransfer[keccak256(abi.encodePacked(competencyId, from))];\r\n    }\r\n    \r\n    function makeComptencyRepresentative(\r\n        address from,\r\n        address to,\r\n        uint24 competencyId,\r\n        bool permission\r\n    ) competencyExist(competencyId) isCompetencyCreator(from, competencyId) public {\r\n        _competencyRepresentative[competencyId][to] = permission;\r\n    }\r\n\r\n    function isComptencyRepresentative(\r\n        address from,\r\n        uint24 competencyId\r\n    ) competencyExist(competencyId) view public returns (bool){\r\n        return  _competencyRepresentative[competencyId][from];\r\n    }   \r\n}",
  "sourcePath": "/home/paul/Documents/tesisApi/Truffle/contracts/CompetencySystem.sol",
  "compiler": {
    "name": "solc",
    "version": "0.8.0+commit.c7dfd78e.Emscripten.clang"
  },
  "schemaVersion": "3.4.3",
  "updatedAt": "2021-11-10T22:03:17.250Z",
  "networkType": "ethereum",
  "devdoc": {
    "kind": "dev",
    "methods": {
      "balanceOf(address,uint256)": {
        "details": "See {IERC1155-balanceOf}. Requirements: - `account` cannot be the zero address."
      },
      "balanceOfBatch(address[],uint256[])": {
        "details": "See {IERC1155-balanceOfBatch}. Requirements: - `accounts` and `ids` must have the same length."
      },
      "isApprovedForAll(address,address)": {
        "details": "See {IERC1155-isApprovedForAll}."
      },
      "safeBatchTransferFrom(address,address,uint256[],uint256[],bytes)": {
        "details": "See {IERC1155-safeBatchTransferFrom}."
      },
      "safeTransferFrom(address,address,uint256,uint256,bytes)": {
        "details": "See {IERC1155-safeTransferFrom}."
      },
      "setApprovalForAll(address,bool)": {
        "details": "See {IERC1155-setApprovalForAll}."
      },
      "supportsInterface(bytes4)": {
        "details": "See {IERC165-supportsInterface}."
      },
      "uri(uint256)": {
        "details": "See {IERC1155MetadataURI-uri}. This implementation returns the same URI for *all* token types. It relies on the token type ID substitution mechanism https://eips.ethereum.org/EIPS/eip-1155#metadata[defined in the EIP]. Clients calling this function must replace the `\\{id\\}` substring with the actual token type ID."
      }
    },
    "version": 1
  },
  "userdoc": {
    "kind": "user",
    "methods": {},
    "version": 1
  }
}