{
  "contractName": "CompetencySystem",
  "abi": [
    {
      "inputs": [],
      "stateMutability": "nonpayable",
      "type": "constructor"
    },
    {
      "anonymous": false,
      "inputs": [
        {
          "indexed": true,
          "internalType": "address",
          "name": "account",
          "type": "address"
        },
        {
          "indexed": true,
          "internalType": "address",
          "name": "operator",
          "type": "address"
        },
        {
          "indexed": false,
          "internalType": "bool",
          "name": "approved",
          "type": "bool"
        }
      ],
      "name": "ApprovalForAll",
      "type": "event"
    },
    {
      "anonymous": false,
      "inputs": [
        {
          "indexed": true,
          "internalType": "address",
          "name": "operator",
          "type": "address"
        },
        {
          "indexed": true,
          "internalType": "address",
          "name": "from",
          "type": "address"
        },
        {
          "indexed": true,
          "internalType": "address",
          "name": "to",
          "type": "address"
        },
        {
          "indexed": false,
          "internalType": "uint256[]",
          "name": "ids",
          "type": "uint256[]"
        },
        {
          "indexed": false,
          "internalType": "uint256[]",
          "name": "values",
          "type": "uint256[]"
        }
      ],
      "name": "TransferBatch",
      "type": "event"
    },
    {
      "anonymous": false,
      "inputs": [
        {
          "indexed": true,
          "internalType": "address",
          "name": "operator",
          "type": "address"
        },
        {
          "indexed": true,
          "internalType": "address",
          "name": "from",
          "type": "address"
        },
        {
          "indexed": true,
          "internalType": "address",
          "name": "to",
          "type": "address"
        },
        {
          "indexed": false,
          "internalType": "uint256",
          "name": "id",
          "type": "uint256"
        },
        {
          "indexed": false,
          "internalType": "uint256",
          "name": "value",
          "type": "uint256"
        }
      ],
      "name": "TransferSingle",
      "type": "event"
    },
    {
      "anonymous": false,
      "inputs": [
        {
          "indexed": false,
          "internalType": "string",
          "name": "value",
          "type": "string"
        },
        {
          "indexed": true,
          "internalType": "uint256",
          "name": "id",
          "type": "uint256"
        }
      ],
      "name": "URI",
      "type": "event"
    },
    {
      "inputs": [
        {
          "internalType": "address",
          "name": "account",
          "type": "address"
        },
        {
          "internalType": "uint256",
          "name": "id",
          "type": "uint256"
        }
      ],
      "name": "balanceOf",
      "outputs": [
        {
          "internalType": "uint256",
          "name": "",
          "type": "uint256"
        }
      ],
      "stateMutability": "view",
      "type": "function",
      "constant": true
    },
    {
      "inputs": [
        {
          "internalType": "address[]",
          "name": "accounts",
          "type": "address[]"
        },
        {
          "internalType": "uint256[]",
          "name": "ids",
          "type": "uint256[]"
        }
      ],
      "name": "balanceOfBatch",
      "outputs": [
        {
          "internalType": "uint256[]",
          "name": "",
          "type": "uint256[]"
        }
      ],
      "stateMutability": "view",
      "type": "function",
      "constant": true
    },
    {
      "inputs": [
        {
          "internalType": "address",
          "name": "account",
          "type": "address"
        },
        {
          "internalType": "address",
          "name": "operator",
          "type": "address"
        }
      ],
      "name": "isApprovedForAll",
      "outputs": [
        {
          "internalType": "bool",
          "name": "",
          "type": "bool"
        }
      ],
      "stateMutability": "view",
      "type": "function",
      "constant": true
    },
    {
      "inputs": [
        {
          "internalType": "address",
          "name": "operator",
          "type": "address"
        },
        {
          "internalType": "bool",
          "name": "approved",
          "type": "bool"
        }
      ],
      "name": "setApprovalForAll",
      "outputs": [],
      "stateMutability": "nonpayable",
      "type": "function"
    },
    {
      "inputs": [
        {
          "internalType": "bytes4",
          "name": "interfaceId",
          "type": "bytes4"
        }
      ],
      "name": "supportsInterface",
      "outputs": [
        {
          "internalType": "bool",
          "name": "",
          "type": "bool"
        }
      ],
      "stateMutability": "view",
      "type": "function",
      "constant": true
    },
    {
      "inputs": [
        {
          "internalType": "uint256",
          "name": "",
          "type": "uint256"
        }
      ],
      "name": "uri",
      "outputs": [
        {
          "internalType": "string",
          "name": "",
          "type": "string"
        }
      ],
      "stateMutability": "view",
      "type": "function",
      "constant": true
    },
    {
      "inputs": [
        {
          "internalType": "address",
          "name": "from",
          "type": "address"
        },
        {
          "internalType": "uint24",
          "name": "id",
          "type": "uint24"
        },
        {
          "internalType": "uint8",
          "name": "KEamount",
          "type": "uint8"
        }
      ],
      "name": "createCompetency",
      "outputs": [],
      "stateMutability": "nonpayable",
      "type": "function"
    },
    {
      "inputs": [],
      "name": "getCompetencys",
      "outputs": [
        {
          "components": [
            {
              "internalType": "uint24",
              "name": "id",
              "type": "uint24"
            },
            {
              "internalType": "uint8",
              "name": "KEamount",
              "type": "uint8"
            }
          ],
          "internalType": "struct CompetencySystem.Competency[]",
          "name": "",
          "type": "tuple[]"
        }
      ],
      "stateMutability": "view",
      "type": "function",
      "constant": true
    },
    {
      "inputs": [
        {
          "internalType": "uint24",
          "name": "pos",
          "type": "uint24"
        }
      ],
      "name": "getCompetency",
      "outputs": [
        {
          "components": [
            {
              "internalType": "uint24",
              "name": "id",
              "type": "uint24"
            },
            {
              "internalType": "uint8",
              "name": "KEamount",
              "type": "uint8"
            }
          ],
          "internalType": "struct CompetencySystem.Competency",
          "name": "",
          "type": "tuple"
        }
      ],
      "stateMutability": "view",
      "type": "function",
      "constant": true
    },
    {
      "inputs": [
        {
          "internalType": "address",
          "name": "owner",
          "type": "address"
        },
        {
          "internalType": "uint24",
          "name": "competencyId",
          "type": "uint24"
        }
      ],
      "name": "getSkillLevel",
      "outputs": [
        {
          "internalType": "uint24",
          "name": "",
          "type": "uint24"
        }
      ],
      "stateMutability": "view",
      "type": "function",
      "constant": true
    },
    {
      "inputs": [
        {
          "internalType": "address",
          "name": "from",
          "type": "address"
        },
        {
          "internalType": "address",
          "name": "to",
          "type": "address"
        },
        {
          "internalType": "uint256",
          "name": "id",
          "type": "uint256"
        },
        {
          "internalType": "uint256",
          "name": "amount",
          "type": "uint256"
        },
        {
          "internalType": "bytes",
          "name": "data",
          "type": "bytes"
        }
      ],
      "name": "safeTransferFrom",
      "outputs": [],
      "stateMutability": "nonpayable",
      "type": "function"
    },
    {
      "inputs": [
        {
          "internalType": "address",
          "name": "from",
          "type": "address"
        },
        {
          "internalType": "address",
          "name": "to",
          "type": "address"
        },
        {
          "internalType": "uint256[]",
          "name": "ids",
          "type": "uint256[]"
        },
        {
          "internalType": "uint256[]",
          "name": "amounts",
          "type": "uint256[]"
        },
        {
          "internalType": "bytes",
          "name": "data",
          "type": "bytes"
        }
      ],
      "name": "safeBatchTransferFrom",
      "outputs": [],
      "stateMutability": "nonpayable",
      "type": "function"
    },
    {
      "inputs": [
        {
          "internalType": "address",
          "name": "from",
          "type": "address"
        },
        {
          "internalType": "uint24",
          "name": "competencyId",
          "type": "uint24"
        },
        {
          "internalType": "uint24",
          "name": "amount",
          "type": "uint24"
        }
      ],
      "name": "mintCompentecy",
      "outputs": [],
      "stateMutability": "nonpayable",
      "type": "function"
    },
    {
      "inputs": [
        {
          "internalType": "address",
          "name": "from",
          "type": "address"
        },
        {
          "internalType": "address",
          "name": "to",
          "type": "address"
        },
        {
          "internalType": "uint24",
          "name": "competencyId",
          "type": "uint24"
        },
        {
          "internalType": "uint24",
          "name": "skillValuesId",
          "type": "uint24"
        }
      ],
      "name": "awardCompetency",
      "outputs": [],
      "stateMutability": "nonpayable",
      "type": "function"
    },
    {
      "inputs": [
        {
          "internalType": "address",
          "name": "from",
          "type": "address"
        },
        {
          "internalType": "address",
          "name": "to",
          "type": "address"
        },
        {
          "internalType": "uint24",
          "name": "competencyId",
          "type": "uint24"
        },
        {
          "internalType": "bool",
          "name": "permission",
          "type": "bool"
        }
      ],
      "name": "givePermissionFromOwner",
      "outputs": [],
      "stateMutability": "nonpayable",
      "type": "function"
    },
    {
      "inputs": [
        {
          "internalType": "address",
          "name": "from",
          "type": "address"
        },
        {
          "internalType": "address",
          "name": "owner",
          "type": "address"
        },
        {
          "internalType": "address",
          "name": "to",
          "type": "address"
        },
        {
          "internalType": "uint24",
          "name": "competencyId",
          "type": "uint24"
        },
        {
          "internalType": "bool",
          "name": "permission",
          "type": "bool"
        }
      ],
      "name": "givePermissionFromCreator",
      "outputs": [],
      "stateMutability": "nonpayable",
      "type": "function"
    },
    {
      "inputs": [
        {
          "internalType": "address",
          "name": "from",
          "type": "address"
        },
        {
          "internalType": "address",
          "name": "owner",
          "type": "address"
        },
        {
          "internalType": "uint24",
          "name": "competencyId",
          "type": "uint24"
        }
      ],
      "name": "hasPermissionFromCreator",
      "outputs": [
        {
          "internalType": "bool",
          "name": "",
          "type": "bool"
        }
      ],
      "stateMutability": "view",
      "type": "function",
      "constant": true
    },
    {
      "inputs": [
        {
          "internalType": "address",
          "name": "from",
          "type": "address"
        },
        {
          "internalType": "address",
          "name": "owner",
          "type": "address"
        },
        {
          "internalType": "uint24",
          "name": "competencyId",
          "type": "uint24"
        }
      ],
      "name": "hasPermissionFromOwner",
      "outputs": [
        {
          "internalType": "bool",
          "name": "",
          "type": "bool"
        }
      ],
      "stateMutability": "view",
      "type": "function",
      "constant": true
    },
    {
      "inputs": [
        {
          "internalType": "address",
          "name": "from",
          "type": "address"
        },
        {
          "internalType": "address",
          "name": "to",
          "type": "address"
        },
        {
          "internalType": "uint24",
          "name": "competencyId",
          "type": "uint24"
        },
        {
          "internalType": "uint256",
          "name": "amount",
          "type": "uint256"
        }
      ],
      "name": "asignTransferRights",
      "outputs": [],
      "stateMutability": "nonpayable",
      "type": "function"
    },
    {
      "inputs": [
        {
          "internalType": "address",
          "name": "from",
          "type": "address"
        },
        {
          "internalType": "uint24",
          "name": "competencyId",
          "type": "uint24"
        }
      ],
      "name": "getTransferRights",
      "outputs": [
        {
          "internalType": "uint256",
          "name": "",
          "type": "uint256"
        }
      ],
      "stateMutability": "view",
      "type": "function",
      "constant": true
    },
    {
      "inputs": [
        {
          "internalType": "address",
          "name": "from",
          "type": "address"
        },
        {
          "internalType": "address",
          "name": "to",
          "type": "address"
        },
        {
          "internalType": "uint24",
          "name": "competencyId",
          "type": "uint24"
        },
        {
          "internalType": "bool",
          "name": "permission",
          "type": "bool"
        }
      ],
      "name": "makeComptencyRepresentative",
      "outputs": [],
      "stateMutability": "nonpayable",
      "type": "function"
    },
    {
      "inputs": [
        {
          "internalType": "address",
          "name": "from",
          "type": "address"
        },
        {
          "internalType": "uint24",
          "name": "competencyId",
          "type": "uint24"
        }
      ],
      "name": "isComptencyRepresentative",
      "outputs": [
        {
          "internalType": "bool",
          "name": "",
          "type": "bool"
        }
      ],
      "stateMutability": "view",
      "type": "function",
      "constant": true
    }
  ],
  "bytecode": "0x60806040523480156200001157600080fd5b506040518060200160405280600081525062000033816200003a60201b60201c565b506200016b565b80600290805190602001906200005292919062000056565b5050565b828054620000649062000106565b90600052602060002090601f016020900481019282620000885760008555620000d4565b82601f10620000a357805160ff1916838001178555620000d4565b82800160010185558215620000d4579182015b82811115620000d3578251825591602001919060010190620000b6565b5b509050620000e39190620000e7565b5090565b5b8082111562000102576000816000905550600101620000e8565b5090565b600060028204905060018216806200011f57607f821691505b602082108114156200013657620001356200013c565b5b50919050565b7f4e487b7100000000000000000000000000000000000000000000000000000000600052602260045260246000fd5b613e77806200017b6000396000f3fe608060405234801561001057600080fd5b50600436106101415760003560e01c806352ee9b37116100b8578063b6fbac891161007c578063b6fbac89146103a8578063c35ebf3d146103c4578063d6463ca6146103f4578063e985e9c514610410578063ee82c97c14610440578063f242432a1461047057610141565b806352ee9b37146102e05780639a97f07514610310578063a22cb4651461032c578063a601bb5f14610348578063b2d2aa861461037857610141565b80632081d8601161010a5780632081d860146102105780632eb2c2d61461022c57806335e4d50d146102485780634bdb8d6e146102645780634e1273f4146102805780634f7214a8146102b057610141565b8062fdd58e1461014657806301ffc9a7146101765780630e89341c146101a65780631428aeb5146101d657806314ed14ef146101f4575b600080fd5b610160600480360381019061015b9190612c2e565b61048c565b60405161016d919061385e565b60405180910390f35b610190600480360381019061018b9190612cd6565b610555565b60405161019d919061362b565b60405180910390f35b6101c060048036038101906101bb9190612d51565b610637565b6040516101cd9190613646565b60405180910390f35b6101de6106cb565b6040516101eb91906135e7565b60405180910390f35b61020e600480360381019061020991906129c3565b610766565b005b61022a60048036038101906102259190612bdf565b6109b8565b005b61024660048036038101906102419190612852565b610b86565b005b610262600480360381019061025d9190612960565b610bce565b005b61027e60048036038101906102799190612b90565b610d3e565b005b61029a60048036038101906102959190612c6a565b610ecf565b6040516102a79190613609565b60405180910390f35b6102ca60048036038101906102c59190612b54565b611080565b6040516102d7919061385e565b60405180910390f35b6102fa60048036038101906102f59190612911565b611114565b604051610307919061362b565b60405180910390f35b61032a60048036038101906103259190612960565b6112d0565b005b61034660048036038101906103419190612b18565b6113b4565b005b610362600480360381019061035d9190612b54565b611535565b60405161036f919061362b565b60405180910390f35b610392600480360381019061038d9190612b54565b611663565b60405161039f9190613843565b60405180910390f35b6103c260048036038101906103bd9190612a26565b611706565b005b6103de60048036038101906103d99190612d28565b611971565b6040516103eb9190613828565b60405180910390f35b61040e600480360381019061040991906127db565b611a62565b005b61042a6004803603810190610425919061279f565b611c60565b604051610437919061362b565b60405180910390f35b61045a60048036038101906104559190612911565b611cf4565b604051610467919061362b565b60405180910390f35b61048a60048036038101906104859190612a89565b611dd3565b005b60008073ffffffffffffffffffffffffffffffffffffffff168373ffffffffffffffffffffffffffffffffffffffff1614156104fd576040517f08c379a00000000000000000000000000000000000000000000000000000000081526004016104f4906136a8565b60405180910390fd5b60008083815260200190815260200160002060008473ffffffffffffffffffffffffffffffffffffffff1673ffffffffffffffffffffffffffffffffffffffff16815260200190815260200160002054905092915050565b60007fd9b67a26000000000000000000000000000000000000000000000000000000007bffffffffffffffffffffffffffffffffffffffffffffffffffffffff1916827bffffffffffffffffffffffffffffffffffffffffffffffffffffffff1916148061062057507f0e89341c000000000000000000000000000000000000000000000000000000007bffffffffffffffffffffffffffffffffffffffffffffffffffffffff1916827bffffffffffffffffffffffffffffffffffffffffffffffffffffffff1916145b80610630575061062f82611e1b565b5b9050919050565b60606002805461064690613b8b565b80601f016020809104026020016040519081016040528092919081815260200182805461067290613b8b565b80156106bf5780601f10610694576101008083540402835291602001916106bf565b820191906000526020600020905b8154815290600101906020018083116106a257829003601f168201915b50505050509050919050565b60606003805480602002602001604051908101604052809291908181526020016000905b8282101561075d578382906000526020600020016040518060400160405290816000820160009054906101000a900462ffffff1662ffffff1662ffffff1681526020016000820160039054906101000a900460ff1660ff1660ff1681525050815260200190600101906106ef565b50505050905090565b816003805490508162ffffff16106107b3576040517f08c379a00000000000000000000000000000000000000000000000000000000081526004016107aa906136c8565b60405180910390fd5b848362ffffff166001806107c7848461048c565b1015610808576040517f08c379a00000000000000000000000000000000000000000000000000000000081526004016107ff90613768565b60405180910390fd5b61082a88888862ffffff16600160405180602001604052806000815250611e85565b600660008762ffffff1662ffffff16815260200190815260200160002060008973ffffffffffffffffffffffffffffffffffffffff1673ffffffffffffffffffffffffffffffffffffffff16815260200190815260200160002060009054906101000a900460ff16806109005750600560008762ffffff16815260200190815260200160002060009054906101000a900473ffffffffffffffffffffffffffffffffffffffff1673ffffffffffffffffffffffffffffffffffffffff168873ffffffffffffffffffffffffffffffffffffffff16145b6109565760076000878a60405160200161091b929190613561565b604051602081830303815290604052805190602001208152602001908152602001600020600081548092919061095090613b61565b91905055505b8460046000888a60405160200161096e929190613561565b60405160208183030381529060405280519060200120815260200190815260200160002060006101000a81548162ffffff021916908362ffffff1602179055505050505050505050565b60018160ff1610156109ff576040517f08c379a00000000000000000000000000000000000000000000000000000000081526004016109f690613788565b60405180910390fd5b610a07612107565b73ffffffffffffffffffffffffffffffffffffffff168373ffffffffffffffffffffffffffffffffffffffff161480610a4d5750610a4c83610a47612107565b611c60565b5b610a8c576040517f08c379a0000000000000000000000000000000000000000000000000000000008152600401610a83906136e8565b60405180910390fd5b600060405180604001604052808462ffffff1681526020018360ff1681525090506003819080600181540180825580915050600190039060005260206000200160009091909190915060008201518160000160006101000a81548162ffffff021916908362ffffff16021790555060208201518160000160036101000a81548160ff021916908360ff160217905550505083600560006001600380549050610b349190613a5b565b815260200190815260200160002060006101000a81548173ffffffffffffffffffffffffffffffffffffffff021916908373ffffffffffffffffffffffffffffffffffffffff16021790555050505050565b6000610bc7576040517f08c379a0000000000000000000000000000000000000000000000000000000008152600401610bbe90613728565b60405180910390fd5b5050505050565b816003805490508162ffffff1610610c1b576040517f08c379a0000000000000000000000000000000000000000000000000000000008152600401610c12906136c8565b60405180910390fd5b8483600560008262ffffff16815260200190815260200160002060009054906101000a900473ffffffffffffffffffffffffffffffffffffffff1673ffffffffffffffffffffffffffffffffffffffff168273ffffffffffffffffffffffffffffffffffffffff1614610cc3576040517f08c379a0000000000000000000000000000000000000000000000000000000008152600401610cba90613808565b60405180910390fd5b83600660008762ffffff1662ffffff16815260200190815260200160002060008873ffffffffffffffffffffffffffffffffffffffff1673ffffffffffffffffffffffffffffffffffffffff16815260200190815260200160002060006101000a81548160ff02191690831515021790555050505050505050565b816003805490508162ffffff1610610d8b576040517f08c379a0000000000000000000000000000000000000000000000000000000008152600401610d82906136c8565b60405180910390fd5b8383600660008262ffffff1662ffffff16815260200190815260200160002060008373ffffffffffffffffffffffffffffffffffffffff1673ffffffffffffffffffffffffffffffffffffffff16815260200190815260200160002060009054906101000a900460ff1680610e635750600560008262ffffff16815260200190815260200160002060009054906101000a900473ffffffffffffffffffffffffffffffffffffffff1673ffffffffffffffffffffffffffffffffffffffff168273ffffffffffffffffffffffffffffffffffffffff16145b610ea2576040517f08c379a0000000000000000000000000000000000000000000000000000000008152600401610e9990613808565b60405180910390fd5b610ec7868662ffffff168662ffffff166040518060200160405280600081525061210f565b505050505050565b60608151835114610f15576040517f08c379a0000000000000000000000000000000000000000000000000000000008152600401610f0c906137c8565b60405180910390fd5b6000835167ffffffffffffffff811115610f58577f4e487b7100000000000000000000000000000000000000000000000000000000600052604160045260246000fd5b604051908082528060200260200182016040528015610f865781602001602082028036833780820191505090505b50905060005b84518110156110755761101f858281518110610fd1577f4e487b7100000000000000000000000000000000000000000000000000000000600052603260045260246000fd5b6020026020010151858381518110611012577f4e487b7100000000000000000000000000000000000000000000000000000000600052603260045260246000fd5b602002602001015161048c565b828281518110611058577f4e487b7100000000000000000000000000000000000000000000000000000000600052603260045260246000fd5b6020026020010181815250508061106e90613bbd565b9050610f8c565b508091505092915050565b6000816003805490508162ffffff16106110cf576040517f08c379a00000000000000000000000000000000000000000000000000000000081526004016110c6906136c8565b60405180910390fd5b6007600084866040516020016110e6929190613561565b6040516020818303038152906040528051906020012081526020019081526020016000205491505092915050565b6000816003805490508162ffffff1610611163576040517f08c379a000000000000000000000000000000000000000000000000000000000815260040161115a906136c8565b60405180910390fd5b60086000848660405160200161117a929190613561565b60405160208183030381529060405280519060200120815260200190815260200160002060008673ffffffffffffffffffffffffffffffffffffffff1673ffffffffffffffffffffffffffffffffffffffff16815260200190815260200160002060009054906101000a900460ff16806112585750600660008462ffffff1662ffffff16815260200190815260200160002060008673ffffffffffffffffffffffffffffffffffffffff1673ffffffffffffffffffffffffffffffffffffffff16815260200190815260200160002060009054906101000a900460ff165b806112c65750600560008462ffffff16815260200190815260200160002060009054906101000a900473ffffffffffffffffffffffffffffffffffffffff1673ffffffffffffffffffffffffffffffffffffffff168573ffffffffffffffffffffffffffffffffffffffff16145b9150509392505050565b816003805490508162ffffff161061131d576040517f08c379a0000000000000000000000000000000000000000000000000000000008152600401611314906136c8565b60405180910390fd5b81600960008588604051602001611335929190613561565b60405160208183030381529060405280519060200120815260200190815260200160002060008673ffffffffffffffffffffffffffffffffffffffff1673ffffffffffffffffffffffffffffffffffffffff16815260200190815260200160002060006101000a81548160ff0219169083151502179055505050505050565b8173ffffffffffffffffffffffffffffffffffffffff166113d3612107565b73ffffffffffffffffffffffffffffffffffffffff16141561142a576040517f08c379a0000000000000000000000000000000000000000000000000000000008152600401611421906137a8565b60405180910390fd5b8060016000611437612107565b73ffffffffffffffffffffffffffffffffffffffff1673ffffffffffffffffffffffffffffffffffffffff16815260200190815260200160002060008473ffffffffffffffffffffffffffffffffffffffff1673ffffffffffffffffffffffffffffffffffffffff16815260200190815260200160002060006101000a81548160ff0219169083151502179055508173ffffffffffffffffffffffffffffffffffffffff166114e4612107565b73ffffffffffffffffffffffffffffffffffffffff167f17307eab39ab6107e8899845ad3d59bd9653f200f220920489ca2b5937696c3183604051611529919061362b565b60405180910390a35050565b6000816003805490508162ffffff1610611584576040517f08c379a000000000000000000000000000000000000000000000000000000000815260040161157b906136c8565b60405180910390fd5b600660008462ffffff1662ffffff16815260200190815260200160002060008573ffffffffffffffffffffffffffffffffffffffff1673ffffffffffffffffffffffffffffffffffffffff16815260200190815260200160002060009054906101000a900460ff168061165a5750600560008462ffffff16815260200190815260200160002060009054906101000a900473ffffffffffffffffffffffffffffffffffffffff1673ffffffffffffffffffffffffffffffffffffffff168473ffffffffffffffffffffffffffffffffffffffff16145b91505092915050565b6000816003805490508162ffffff16106116b2576040517f08c379a00000000000000000000000000000000000000000000000000000000081526004016116a9906136c8565b60405180910390fd5b6004600084866040516020016116c9929190613561565b60405160208183030381529060405280519060200120815260200190815260200160002060009054906101000a900462ffffff1691505092915050565b816003805490508162ffffff1610611753576040517f08c379a000000000000000000000000000000000000000000000000000000000815260040161174a906136c8565b60405180910390fd5b8483600660008262ffffff1662ffffff16815260200190815260200160002060008373ffffffffffffffffffffffffffffffffffffffff1673ffffffffffffffffffffffffffffffffffffffff16815260200190815260200160002060009054906101000a900460ff168061182b5750600560008262ffffff16815260200190815260200160002060009054906101000a900473ffffffffffffffffffffffffffffffffffffffff1673ffffffffffffffffffffffffffffffffffffffff168273ffffffffffffffffffffffffffffffffffffffff16145b61186a576040517f08c379a000000000000000000000000000000000000000000000000000000000815260040161186190613808565b60405180910390fd5b868562ffffff16858061187d848461048c565b10156118be576040517f08c379a00000000000000000000000000000000000000000000000000000000081526004016118b590613768565b60405180910390fd5b6118df8a8a8a62ffffff168a60405180602001604052806000815250611e85565b86600760008a8c6040516020016118f7929190613561565b604051602081830303815290604052805190602001208152602001908152602001600020546119269190613a05565b600760008a8c60405160200161193d929190613561565b6040516020818303038152906040528051906020012081526020019081526020016000208190555050505050505050505050565b611979612556565b816003805490508162ffffff16106119c6576040517f08c379a00000000000000000000000000000000000000000000000000000000081526004016119bd906136c8565b60405180910390fd5b60038362ffffff1681548110611a05577f4e487b7100000000000000000000000000000000000000000000000000000000600052603260045260246000fd5b906000526020600020016040518060400160405290816000820160009054906101000a900462ffffff1662ffffff1662ffffff1681526020016000820160039054906101000a900460ff1660ff1660ff1681525050915050919050565b816003805490508162ffffff1610611aaf576040517f08c379a0000000000000000000000000000000000000000000000000000000008152600401611aa6906136c8565b60405180910390fd5b8583600660008262ffffff1662ffffff16815260200190815260200160002060008373ffffffffffffffffffffffffffffffffffffffff1673ffffffffffffffffffffffffffffffffffffffff16815260200190815260200160002060009054906101000a900460ff1680611b875750600560008262ffffff16815260200190815260200160002060009054906101000a900473ffffffffffffffffffffffffffffffffffffffff1673ffffffffffffffffffffffffffffffffffffffff168273ffffffffffffffffffffffffffffffffffffffff16145b611bc6576040517f08c379a0000000000000000000000000000000000000000000000000000000008152600401611bbd90613808565b60405180910390fd5b8360086000878a604051602001611bde929190613561565b60405160208183030381529060405280519060200120815260200190815260200160002060008873ffffffffffffffffffffffffffffffffffffffff1673ffffffffffffffffffffffffffffffffffffffff16815260200190815260200160002060006101000a81548160ff0219169083151502179055505050505050505050565b6000600160008473ffffffffffffffffffffffffffffffffffffffff1673ffffffffffffffffffffffffffffffffffffffff16815260200190815260200160002060008373ffffffffffffffffffffffffffffffffffffffff1673ffffffffffffffffffffffffffffffffffffffff16815260200190815260200160002060009054906101000a900460ff16905092915050565b6000816003805490508162ffffff1610611d43576040517f08c379a0000000000000000000000000000000000000000000000000000000008152600401611d3a906136c8565b60405180910390fd5b600960008486604051602001611d5a929190613561565b60405160208183030381529060405280519060200120815260200190815260200160002060008673ffffffffffffffffffffffffffffffffffffffff1673ffffffffffffffffffffffffffffffffffffffff16815260200190815260200160002060009054906101000a900460ff169150509392505050565b6000611e14576040517f08c379a0000000000000000000000000000000000000000000000000000000008152600401611e0b90613728565b60405180910390fd5b5050505050565b60007f01ffc9a7000000000000000000000000000000000000000000000000000000007bffffffffffffffffffffffffffffffffffffffffffffffffffffffff1916827bffffffffffffffffffffffffffffffffffffffffffffffffffffffff1916149050919050565b600073ffffffffffffffffffffffffffffffffffffffff168473ffffffffffffffffffffffffffffffffffffffff161415611ef5576040517f08c379a0000000000000000000000000000000000000000000000000000000008152600401611eec90613708565b60405180910390fd5b6000611eff612107565b9050611f1f818787611f10886122a5565b611f19886122a5565b8761236b565b600080600086815260200190815260200160002060008873ffffffffffffffffffffffffffffffffffffffff1673ffffffffffffffffffffffffffffffffffffffff16815260200190815260200160002054905083811015611fb6576040517f08c379a0000000000000000000000000000000000000000000000000000000008152600401611fad90613748565b60405180910390fd5b83810360008087815260200190815260200160002060008973ffffffffffffffffffffffffffffffffffffffff1673ffffffffffffffffffffffffffffffffffffffff168152602001908152602001600020819055508360008087815260200190815260200160002060008873ffffffffffffffffffffffffffffffffffffffff1673ffffffffffffffffffffffffffffffffffffffff168152602001908152602001600020600082825461206b9190613a05565b925050819055508573ffffffffffffffffffffffffffffffffffffffff168773ffffffffffffffffffffffffffffffffffffffff168373ffffffffffffffffffffffffffffffffffffffff167fc3d58168c5ae7397731d063d5bbf3d657854427343f4c083240f7aacaa2d0f6288886040516120e8929190613879565b60405180910390a46120fe828888888888612373565b50505050505050565b600033905090565b600073ffffffffffffffffffffffffffffffffffffffff168473ffffffffffffffffffffffffffffffffffffffff16141561217f576040517f08c379a0000000000000000000000000000000000000000000000000000000008152600401612176906137e8565b60405180910390fd5b6000612189612107565b90506121aa8160008761219b886122a5565b6121a4886122a5565b8761236b565b8260008086815260200190815260200160002060008773ffffffffffffffffffffffffffffffffffffffff1673ffffffffffffffffffffffffffffffffffffffff16815260200190815260200160002060008282546122099190613a05565b925050819055508473ffffffffffffffffffffffffffffffffffffffff16600073ffffffffffffffffffffffffffffffffffffffff168273ffffffffffffffffffffffffffffffffffffffff167fc3d58168c5ae7397731d063d5bbf3d657854427343f4c083240f7aacaa2d0f628787604051612287929190613879565b60405180910390a461229e81600087878787612373565b5050505050565b60606000600167ffffffffffffffff8111156122ea577f4e487b7100000000000000000000000000000000000000000000000000000000600052604160045260246000fd5b6040519080825280602002602001820160405280156123185781602001602082028036833780820191505090505b5090508281600081518110612356577f4e487b7100000000000000000000000000000000000000000000000000000000600052603260045260246000fd5b60200260200101818152505080915050919050565b505050505050565b6123928473ffffffffffffffffffffffffffffffffffffffff16612543565b1561253b578373ffffffffffffffffffffffffffffffffffffffff1663f23a6e6187878686866040518663ffffffff1660e01b81526004016123d895949392919061358d565b602060405180830381600087803b1580156123f257600080fd5b505af192505050801561242357506040513d601f19601f820116820180604052508101906124209190612cff565b60015b6124b25761242f613d01565b8061243a5750612477565b806040517f08c379a000000000000000000000000000000000000000000000000000000000815260040161246e9190613646565b60405180910390fd5b6040517f08c379a00000000000000000000000000000000000000000000000000000000081526004016124a990613668565b60405180910390fd5b63f23a6e6160e01b7bffffffffffffffffffffffffffffffffffffffffffffffffffffffff1916817bffffffffffffffffffffffffffffffffffffffffffffffffffffffff191614612539576040517f08c379a000000000000000000000000000000000000000000000000000000000815260040161253090613688565b60405180910390fd5b505b505050505050565b600080823b905060008111915050919050565b6040518060400160405280600062ffffff168152602001600060ff1681525090565b600061258b612586846138d3565b6138a2565b905080838252602082019050828560208602820111156125aa57600080fd5b60005b858110156125da57816125c0888261268e565b8452602084019350602083019250506001810190506125ad565b5050509392505050565b60006125f76125f2846138ff565b6138a2565b9050808382526020820190508285602086028201111561261657600080fd5b60005b85811015612646578161262c8882612775565b845260208401935060208301925050600181019050612619565b5050509392505050565b600061266361265e8461392b565b6138a2565b90508281526020810184848401111561267b57600080fd5b612686848285613b1f565b509392505050565b60008135905061269d81613db7565b92915050565b600082601f8301126126b457600080fd5b81356126c4848260208601612578565b91505092915050565b600082601f8301126126de57600080fd5b81356126ee8482602086016125e4565b91505092915050565b60008135905061270681613dce565b92915050565b60008135905061271b81613de5565b92915050565b60008151905061273081613de5565b92915050565b600082601f83011261274757600080fd5b8135612757848260208601612650565b91505092915050565b60008135905061276f81613dfc565b92915050565b60008135905061278481613e13565b92915050565b60008135905061279981613e2a565b92915050565b600080604083850312156127b257600080fd5b60006127c08582860161268e565b92505060206127d18582860161268e565b9150509250929050565b600080600080600060a086880312156127f357600080fd5b60006128018882890161268e565b95505060206128128882890161268e565b94505060406128238882890161268e565b935050606061283488828901612760565b9250506080612845888289016126f7565b9150509295509295909350565b600080600080600060a0868803121561286a57600080fd5b60006128788882890161268e565b95505060206128898882890161268e565b945050604086013567ffffffffffffffff8111156128a657600080fd5b6128b2888289016126cd565b935050606086013567ffffffffffffffff8111156128cf57600080fd5b6128db888289016126cd565b925050608086013567ffffffffffffffff8111156128f857600080fd5b61290488828901612736565b9150509295509295909350565b60008060006060848603121561292657600080fd5b60006129348682870161268e565b93505060206129458682870161268e565b925050604061295686828701612760565b9150509250925092565b6000806000806080858703121561297657600080fd5b60006129848782880161268e565b94505060206129958782880161268e565b93505060406129a687828801612760565b92505060606129b7878288016126f7565b91505092959194509250565b600080600080608085870312156129d957600080fd5b60006129e78782880161268e565b94505060206129f88782880161268e565b9350506040612a0987828801612760565b9250506060612a1a87828801612760565b91505092959194509250565b60008060008060808587031215612a3c57600080fd5b6000612a4a8782880161268e565b9450506020612a5b8782880161268e565b9350506040612a6c87828801612760565b9250506060612a7d87828801612775565b91505092959194509250565b600080600080600060a08688031215612aa157600080fd5b6000612aaf8882890161268e565b9550506020612ac08882890161268e565b9450506040612ad188828901612775565b9350506060612ae288828901612775565b925050608086013567ffffffffffffffff811115612aff57600080fd5b612b0b88828901612736565b9150509295509295909350565b60008060408385031215612b2b57600080fd5b6000612b398582860161268e565b9250506020612b4a858286016126f7565b9150509250929050565b60008060408385031215612b6757600080fd5b6000612b758582860161268e565b9250506020612b8685828601612760565b9150509250929050565b600080600060608486031215612ba557600080fd5b6000612bb38682870161268e565b9350506020612bc486828701612760565b9250506040612bd586828701612760565b9150509250925092565b600080600060608486031215612bf457600080fd5b6000612c028682870161268e565b9350506020612c1386828701612760565b9250506040612c248682870161278a565b9150509250925092565b60008060408385031215612c4157600080fd5b6000612c4f8582860161268e565b9250506020612c6085828601612775565b9150509250929050565b60008060408385031215612c7d57600080fd5b600083013567ffffffffffffffff811115612c9757600080fd5b612ca3858286016126a3565b925050602083013567ffffffffffffffff811115612cc057600080fd5b612ccc858286016126cd565b9150509250929050565b600060208284031215612ce857600080fd5b6000612cf68482850161270c565b91505092915050565b600060208284031215612d1157600080fd5b6000612d1f84828501612721565b91505092915050565b600060208284031215612d3a57600080fd5b6000612d4884828501612760565b91505092915050565b600060208284031215612d6357600080fd5b6000612d7184828501612775565b91505092915050565b6000612d8683836134a1565b60408301905092915050565b6000612d9e8383613534565b60208301905092915050565b612db381613a8f565b82525050565b612dca612dc582613a8f565b613c06565b82525050565b6000612ddb8261397b565b612de581856139c1565b9350612df08361395b565b8060005b83811015612e21578151612e088882612d7a565b9750612e13836139a7565b925050600181019050612df4565b5085935050505092915050565b6000612e3982613986565b612e4381856139d2565b9350612e4e8361396b565b8060005b83811015612e7f578151612e668882612d92565b9750612e71836139b4565b925050600181019050612e52565b5085935050505092915050565b612e9581613aa1565b82525050565b6000612ea682613991565b612eb081856139e3565b9350612ec0818560208601613b2e565b612ec981613cc9565b840191505092915050565b6000612edf8261399c565b612ee981856139f4565b9350612ef9818560208601613b2e565b612f0281613cc9565b840191505092915050565b6000612f1a6034836139f4565b91507f455243313135353a207472616e7366657220746f206e6f6e204552433131353560008301527f526563656976657220696d706c656d656e7465720000000000000000000000006020830152604082019050919050565b6000612f806028836139f4565b91507f455243313135353a204552433131353552656365697665722072656a6563746560008301527f6420746f6b656e730000000000000000000000000000000000000000000000006020830152604082019050919050565b6000612fe6602b836139f4565b91507f455243313135353a2062616c616e636520717565727920666f7220746865207a60008301527f65726f20616464726573730000000000000000000000000000000000000000006020830152604082019050919050565b600061304c602a836139f4565b91507f436f6d706574656e637953797374656d3a20436f6d706574656e637920646f6560008301527f73206e6f742065786974000000000000000000000000000000000000000000006020830152604082019050919050565b60006130b26029836139f4565b91507f455243313135353a2063616c6c6572206973206e6f74206f776e6572206e6f7260008301527f20617070726f76656400000000000000000000000000000000000000000000006020830152604082019050919050565b60006131186025836139f4565b91507f455243313135353a207472616e7366657220746f20746865207a65726f20616460008301527f64726573730000000000000000000000000000000000000000000000000000006020830152604082019050919050565b600061317e6027836139f4565b91507f436f6d706574656e637953797374656d3a204d6574686f64206973206e6f742060008301527f616c6c6f776564000000000000000000000000000000000000000000000000006020830152604082019050919050565b60006131e4602a836139f4565b91507f455243313135353a20696e73756666696369656e742062616c616e636520666f60008301527f72207472616e73666572000000000000000000000000000000000000000000006020830152604082019050919050565b600061324a6034836139f4565b91507f436f6d706574656e637953797374656d3a20446f65736e27742068617665207460008301527f686520616d6f756e7420696e2062616c616e63650000000000000000000000006020830152604082019050919050565b60006132b06040836139f4565b91507f436f6d706574656e637953797374656d3a20416d6f756e74206f66204b6e6f7760008301527f6c6564676520456c656d656e74732073686f756c64206174206c6561737420316020830152604082019050919050565b60006133166029836139f4565b91507f455243313135353a2073657474696e6720617070726f76616c2073746174757360008301527f20666f722073656c6600000000000000000000000000000000000000000000006020830152604082019050919050565b600061337c6029836139f4565b91507f455243313135353a206163636f756e747320616e6420696473206c656e67746860008301527f206d69736d6174636800000000000000000000000000000000000000000000006020830152604082019050919050565b60006133e26021836139f4565b91507f455243313135353a206d696e7420746f20746865207a65726f2061646472657360008301527f73000000000000000000000000000000000000000000000000000000000000006020830152604082019050919050565b60006134486029836139f4565b91507f436f6d706574656e637953797374656d3a204f6e6c7920636f6d706574656e6360008301527f792063726561746f7200000000000000000000000000000000000000000000006020830152604082019050919050565b6040820160008201516134b760008501826134ff565b5060208201516134ca6020850182613552565b50505050565b6040820160008201516134e660008501826134ff565b5060208201516134f96020850182613552565b50505050565b61350881613af9565b82525050565b61351781613af9565b82525050565b61352e61352982613af9565b613c2a565b82525050565b61353d81613b08565b82525050565b61354c81613b08565b82525050565b61355b81613b12565b82525050565b600061356d828561351d565b60038201915061357d8284612db9565b6014820191508190509392505050565b600060a0820190506135a26000830188612daa565b6135af6020830187612daa565b6135bc6040830186613543565b6135c96060830185613543565b81810360808301526135db8184612e9b565b90509695505050505050565b600060208201905081810360008301526136018184612dd0565b905092915050565b600060208201905081810360008301526136238184612e2e565b905092915050565b60006020820190506136406000830184612e8c565b92915050565b600060208201905081810360008301526136608184612ed4565b905092915050565b6000602082019050818103600083015261368181612f0d565b9050919050565b600060208201905081810360008301526136a181612f73565b9050919050565b600060208201905081810360008301526136c181612fd9565b9050919050565b600060208201905081810360008301526136e18161303f565b9050919050565b60006020820190508181036000830152613701816130a5565b9050919050565b600060208201905081810360008301526137218161310b565b9050919050565b6000602082019050818103600083015261374181613171565b9050919050565b60006020820190508181036000830152613761816131d7565b9050919050565b600060208201905081810360008301526137818161323d565b9050919050565b600060208201905081810360008301526137a1816132a3565b9050919050565b600060208201905081810360008301526137c181613309565b9050919050565b600060208201905081810360008301526137e18161336f565b9050919050565b60006020820190508181036000830152613801816133d5565b9050919050565b600060208201905081810360008301526138218161343b565b9050919050565b600060408201905061383d60008301846134d0565b92915050565b6000602082019050613858600083018461350e565b92915050565b60006020820190506138736000830184613543565b92915050565b600060408201905061388e6000830185613543565b61389b6020830184613543565b9392505050565b6000604051905081810181811067ffffffffffffffff821117156138c9576138c8613c9a565b5b8060405250919050565b600067ffffffffffffffff8211156138ee576138ed613c9a565b5b602082029050602081019050919050565b600067ffffffffffffffff82111561391a57613919613c9a565b5b602082029050602081019050919050565b600067ffffffffffffffff82111561394657613945613c9a565b5b601f19601f8301169050602081019050919050565b6000819050602082019050919050565b6000819050602082019050919050565b600081519050919050565b600081519050919050565b600081519050919050565b600081519050919050565b6000602082019050919050565b6000602082019050919050565b600082825260208201905092915050565b600082825260208201905092915050565b600082825260208201905092915050565b600082825260208201905092915050565b6000613a1082613b08565b9150613a1b83613b08565b9250827fffffffffffffffffffffffffffffffffffffffffffffffffffffffffffffffff03821115613a5057613a4f613c3c565b5b828201905092915050565b6000613a6682613b08565b9150613a7183613b08565b925082821015613a8457613a83613c3c565b5b828203905092915050565b6000613a9a82613ad9565b9050919050565b60008115159050919050565b60007fffffffff0000000000000000000000000000000000000000000000000000000082169050919050565b600073ffffffffffffffffffffffffffffffffffffffff82169050919050565b600062ffffff82169050919050565b6000819050919050565b600060ff82169050919050565b82818337600083830152505050565b60005b83811015613b4c578082015181840152602081019050613b31565b83811115613b5b576000848401525b50505050565b6000613b6c82613b08565b91506000821415613b8057613b7f613c3c565b5b600182039050919050565b60006002820490506001821680613ba357607f821691505b60208210811415613bb757613bb6613c6b565b5b50919050565b6000613bc882613b08565b91507fffffffffffffffffffffffffffffffffffffffffffffffffffffffffffffffff821415613bfb57613bfa613c3c565b5b600182019050919050565b6000613c1182613c18565b9050919050565b6000613c2382613ce7565b9050919050565b6000613c3582613cda565b9050919050565b7f4e487b7100000000000000000000000000000000000000000000000000000000600052601160045260246000fd5b7f4e487b7100000000000000000000000000000000000000000000000000000000600052602260045260246000fd5b7f4e487b7100000000000000000000000000000000000000000000000000000000600052604160045260246000fd5b6000601f19601f8301169050919050565b60008160e81b9050919050565b60008160601b9050919050565b60008160e01c9050919050565b600060443d1015613d1157613db4565b60046000803e613d22600051613cf4565b6308c379a08114613d335750613db4565b60405160043d036004823e80513d602482011167ffffffffffffffff82111715613d5f57505050613db4565b808201805167ffffffffffffffff811115613d7e575050505050613db4565b8060208301013d8501811115613d9957505050505050613db4565b613da282613cc9565b60208401016040528296505050505050505b90565b613dc081613a8f565b8114613dcb57600080fd5b50565b613dd781613aa1565b8114613de257600080fd5b50565b613dee81613aad565b8114613df957600080fd5b50565b613e0581613af9565b8114613e1057600080fd5b50565b613e1c81613b08565b8114613e2757600080fd5b50565b613e3381613b12565b8114613e3e57600080fd5b5056fea2646970667358221220eb8d9cb49c7ebec097bff66bf74cf86660afd825675973932b949badb51ba76464736f6c63430008000033",
  "immutableReferences": {},
  "source": "pragma solidity ^0.8.0;\r\n\r\n//import 'https://github.com/OpenZeppelin/openzeppelin-contracts/blob/master/contracts/token/ERC1155/ERC1155.sol';\r\nimport \"@openzeppelin/contracts/token/ERC1155/ERC1155.sol\";\r\n\r\ncontract CompetencySystem is ERC1155{\r\n    \r\n    ////////////////////CompetencySystem////////////////////\r\n    \r\n\r\n    //Competency stroting structure\r\n    //@atribute id: The id of the Competency in the external storing system\r\n    //@atribute KEamount: The amount of Knowledge Elements that the Competency has in its definition\r\n    struct Competency {\r\n        uint24 id; \r\n        uint8 KEamount;\r\n    }\r\n    \r\n    //Array of the store Competencys\r\n    Competency[] private _competencys; \r\n    \r\n    mapping(bytes32 =>  uint24) private _skillLevels;\r\n    /////////////////////Permissions/////////////////////////\r\n    \r\n    //Mapping from Competencys ids to creator address\r\n    mapping(uint256 => address) private _competencyCreator;\r\n    \r\n    //Mapping from Competencys ids to Competencys representatives\r\n    mapping(uint24 => mapping(address => bool)) private _competencyRepresentative;\r\n     \r\n    //Mapping from a Competency id and a adress to the amount it can transfer\r\n    mapping(bytes32 => uint256) private _canTransfer; \r\n\r\n    //Mapping from a Competency id and a adress to the creators permission to edit\r\n    mapping(bytes32 => mapping(address => bool)) private _canEditByCreator;\r\n\r\n    //Mapping from a Competency id and a adress to the owners permission to edit\r\n    mapping(bytes32 => mapping(address => bool)) private _canEditByOwner;\r\n    \r\n    /////////////////////Modifiers/////////////////////////\r\n    \r\n\r\n    //Check if an account is the creator of a competency\r\n\r\n    modifier isCompetencyCreator(address acount, uint24 competencyId) {\r\n        require( acount == _competencyCreator[competencyId], \r\n        \"CompetencySystem: Only competency creator\");\r\n        _;\r\n    }\r\n    \r\n    //Check if an account is a representative for a competency\r\n\r\n    modifier isCompetencyRepresentative(address acount, uint24 competencyId) {\r\n        require( _competencyRepresentative[competencyId][acount] || acount == _competencyCreator[competencyId] , \r\n        \"CompetencySystem: Only competency creator\");\r\n        _;\r\n    }\r\n\r\n    //Check if a competency exist\r\n\r\n\r\n    modifier competencyExist(uint24 competencyId) {\r\n        require( competencyId < _competencys.length, \r\n        \"CompetencySystem: Competency does not exit\");\r\n        _;\r\n    }\r\n\r\n    //Check if an account has the owners permission to edit\r\n    \r\n    modifier canEditByOwner(address acount, address owner, uint256 competencyId) {\r\n        require(_canEditByOwner[keccak256(abi.encodePacked(competencyId, owner))][acount],\r\n        \"CompetencySystem: Doesn't have owners permission to edit\");\r\n        _;\r\n    }\r\n    \r\n    //Check if an account has a competency\r\n\r\n    modifier hasCompetency(address acount, uint256 competencyId) {\r\n        require(_skillLevels[keccak256(abi.encodePacked(competencyId, acount))] != 0, \r\n        \"CompetencySystem: Doesn't have the competency\");\r\n        _;\r\n    }\r\n    \r\n    modifier hasBalance(address acount, uint256 competencyId,uint256 amount) {\r\n        require(\r\n        balanceOf(acount, competencyId) >= amount, \r\n        \"CompetencySystem: Doesn't have the amount in balance\");\r\n        _;\r\n    }\r\n    \r\n    //Check if an account has the permission to transfer a amount of competencys\r\n    \r\n    modifier canTransfer(uint24 competencyId, uint256 amount ,  address sender) {\r\n        require(\r\n        (_canTransfer[keccak256(abi.encodePacked(competencyId, sender))] - amount > 0 || _competencyRepresentative[competencyId][sender] || sender == _competencyCreator[competencyId]) \r\n        , \"CompetencySystem: Doesn't have permission to transfer\");\r\n        _;\r\n    }\r\n\r\n    \r\n    /////////////////////Methods/////////////////////////\r\n    \r\n    constructor() ERC1155(\"\") { }\r\n\r\n    /* \r\n    Create a Competency inside the system\r\n    \r\n    @Param from : The address that is creating the competency\r\n    @Param id : The id of the competency in the external storing system\r\n    @Param KEamount : The amount of Knowledge Elements the competency has\r\n    \r\n    */\r\n\r\n    function createCompetency(\r\n        address from,\r\n        uint24 id, \r\n        uint8 KEamount\r\n    ) public {\r\n        // Check id is not saved?\r\n        require (KEamount >= 1, \"CompetencySystem: Amount of Knowledge Elements should at least 1\");\r\n        require(\r\n            from == _msgSender() || isApprovedForAll(from, _msgSender()),\r\n            \"ERC1155: caller is not owner nor approved\"\r\n        );\r\n        //Create competency\r\n        Competency memory _competencyDescription = Competency(id, KEamount);\r\n        //Add to the array of competencys\r\n        _competencys.push(_competencyDescription);\r\n        //Set owner\r\n        _competencyCreator[_competencys.length - 1] = from;\r\n    }\r\n\r\n    /*\r\n    \r\n    Get a competency by its id\r\n    \r\n    */\r\n    function getCompetencys() public view returns (Competency[] memory){\r\n        return _competencys;\r\n    }\r\n\r\n        /*\r\n    \r\n    Get a competency by its id\r\n    \r\n    */\r\n    \r\n    function getCompetency(uint24 pos) competencyExist(pos) public view returns (Competency memory){\r\n        return _competencys[pos];\r\n    }\r\n\r\n    /*\r\n    \r\n    Get the saved external storing id of the skill levels of an account\r\n    \r\n    @Param owner : The address of the account that ownes the skill levels\r\n    @Param competencyId : The id of the competency\r\n    \r\n    */\r\n    \r\n    function getSkillLevel(\r\n        address owner, \r\n        uint24 competencyId\r\n    ) competencyExist(competencyId) public view returns (uint24){\r\n        return _skillLevels[keccak256(abi.encodePacked(competencyId, owner))];\r\n    }\r\n    \r\n    \r\n    /*\r\n    This method come from the ERC1155 but was disabled due to it not being suit for the competency system\r\n    */\r\n\r\n    function safeTransferFrom( //Award competency\r\n        address from,\r\n        address to,\r\n        uint256 id,\r\n        uint256 amount,\r\n        bytes memory data\r\n    ) public virtual override {\r\n        (from); (to); (id); (amount); (data);\r\n        require( false, \"CompetencySystem: Method is not allowed\" );\r\n    }\r\n\r\n    /*\r\n    This method come from the ERC1155 but was disabled due to it not being suit for the competency system\r\n    */\r\n\r\n    function safeBatchTransferFrom( //Award competencys\r\n        address from,\r\n        address to,\r\n        uint256[] memory ids,\r\n        uint256[] memory amounts,\r\n        bytes memory data\r\n    ) public virtual override {\r\n        (from); (to); (ids); (amounts); (data);\r\n        require( false, \"CompetencySystem: Method is not allowed\" );\r\n    }\r\n    \r\n      \r\n    /*\r\n    \r\n    Instantiate competency\r\n    \r\n    @Param from : The address of the account that wants to mint the competency\r\n    @Param competencyId : The id of the competency\r\n    @Param amount : The amount that is going to be mint\r\n    \r\n    */\r\n\r\n    function mintCompentecy(\r\n        address from,\r\n        uint24 competencyId, \r\n        uint24 amount\r\n    ) competencyExist(competencyId) isCompetencyRepresentative(from, competencyId) public {\r\n        _mint(from, competencyId, amount, \"\");\r\n    }\r\n    \r\n    /*\r\n    \r\n   Award a competency to another wallet\r\n    \r\n    @Param from : The address that is awarding the competency\r\n    @Param to : The address that is receiving the competency\r\n    @Param competencyId : The id of the competency\r\n    @Param skillValuesId : The id of the skill values in the external storing system\r\n    \r\n    */\r\n    \r\n    function awardCompetency(\r\n        address from,\r\n        address to,\r\n        uint24 competencyId,\r\n        uint24 skillValuesId\r\n        //bytes memory data\r\n    ) competencyExist(competencyId) /*canTransfer(competencyId, 1, from)*/ hasBalance(from, competencyId, 1) public { \r\n        _safeTransferFrom(from, to, competencyId, 1, \"\");\r\n        if (!( _competencyRepresentative[competencyId][from] || from == _competencyCreator[competencyId])) {  \r\n            _canTransfer[keccak256(abi.encodePacked(competencyId, from))]--;   \r\n        }\r\n        _skillLevels[keccak256(abi.encodePacked(competencyId, to))] = skillValuesId;\r\n    }\r\n    \r\n    /*\r\n    \r\n    Give owners permission to edit a competencys skill values\r\n    \r\n    @Param from : The address that is granting the permission\r\n    @Param to : The address that is receiving the permission\r\n    @Param competencyId : The id of the competency\r\n    @Param permissionv : The permission been granted\r\n    \r\n    */\r\n\r\n    function givePermissionFromOwner(\r\n        address from, // who is granting the permission (the owner)\r\n        address to, // to whom the permission is been granted\r\n        uint24 competencyId,\r\n        bool permission\r\n    ) competencyExist(competencyId) /* hasCompetency(from, competencyId) */ public {\r\n        _canEditByOwner[keccak256(abi.encodePacked(competencyId, from))][to] = permission;\r\n    }\r\n    \r\n     /*\r\n    \r\n    Give creators permission to edit a competencys skill values\r\n    \r\n    @Param from : The address that is going to edit\r\n    @Param owner : The address that is granting the permission\r\n    @Param to : The address that is going to be edited\r\n    @Param competencyId : The id of the competency\r\n    @Param permission : The permission been granted\r\n    \r\n    */\r\n\r\n    function givePermissionFromCreator(\r\n        address from, // who is granting the permission\r\n        address owner, // who is the competency owner\r\n        address to, // to whom the permission is been granted\r\n        uint24 competencyId,\r\n        bool permission\r\n    ) competencyExist(competencyId) isCompetencyRepresentative(from, competencyId) public {\r\n        /*\r\n        require(\r\n            from == _msgSender() || isApprovedForAll(from, _msgSender()),\r\n            \"ERC1155: transfer caller is not owner nor approved\"\r\n        );*/\r\n        _canEditByCreator[keccak256(abi.encodePacked(competencyId, owner))][to] = permission;\r\n    }\r\n    \r\n    /*\r\n    \r\n    Obtain the creators permission that an acoount has to edit\r\n    \r\n    @Param from : The address that wants to edit\r\n    @Param owner : The address that owns the competency\r\n    @Param competencyId : The id of the competency\r\n    \r\n    */\r\n\r\n    function hasPermissionFromCreator(\r\n        address from, //Who is updating the skill Values\r\n        address owner,\r\n        uint24 competencyId \r\n    ) competencyExist(competencyId) public view returns (bool){\r\n        return (_canEditByCreator[keccak256(abi.encodePacked(competencyId, owner))][from] || _competencyRepresentative[competencyId][from] || from == _competencyCreator[competencyId]) ;\r\n    }\r\n     /*\r\n    Obtain the owners permission that an acoount has to edit\r\n    \r\n    @Param from : The address that wants to edit\r\n    @Param owner : The address that owns the competency\r\n    @Param competencyId : The id of the competency\r\n    \r\n    */\r\n    function hasPermissionFromOwner(\r\n        address from, //Who is updating the skill Values\r\n        address owner,\r\n        uint24 competencyId \r\n    ) competencyExist(competencyId) public view returns (bool){\r\n        return (_canEditByOwner[keccak256(abi.encodePacked(competencyId, owner))][from]) ;\r\n    }\r\n\r\n    function asignTransferRights(\r\n        address from,\r\n        address to,\r\n        uint24 competencyId,\r\n        uint256 amount\r\n    ) competencyExist(competencyId) isCompetencyRepresentative(from, competencyId) hasBalance(from, competencyId, amount) public  {\r\n        /*\r\n        require(\r\n            from == _msgSender() || isApprovedForAll(from, _msgSender()),\r\n            \"ERC1155: caller is not owner nor approved\"\r\n        );*/\r\n        _safeTransferFrom(from, to, competencyId, amount, \"\");\r\n        _canTransfer[keccak256(abi.encodePacked(competencyId, to))] = _canTransfer[keccak256(abi.encodePacked(competencyId, to))] + amount;\r\n    }\r\n\r\n    /*\r\n    \r\n    Give transfer right to an account\r\n    \r\n    @Param from : The address that granting the rights\r\n    @Param to : The address that is receiving the rights\r\n    @Param competencyId : The id of the competency\r\n    @Params amount: The amount of competencys that can be transfer\r\n    \r\n    */\r\n\r\n    function getTransferRights(\r\n        address from,\r\n        uint24 competencyId\r\n    ) competencyExist(competencyId) view public returns (uint){\r\n        return _canTransfer[keccak256(abi.encodePacked(competencyId, from))];\r\n    }\r\n    \r\n     /*\r\n    \r\n    Make an account the representative of the creator for a competency\r\n    \r\n    @Param from : The address that granting the permission\r\n    @Param to : The address that is receiving the permission\r\n    @Param competencyId : The id of the competency\r\n    @Params permission: The permission\r\n    \r\n    */\r\n\r\n    function makeComptencyRepresentative(\r\n        address from,\r\n        address to,\r\n        uint24 competencyId,\r\n        bool permission\r\n    ) competencyExist(competencyId) isCompetencyCreator(from, competencyId) public {\r\n        _competencyRepresentative[competencyId][to] = permission;\r\n    }\r\n\r\n    function isComptencyRepresentative(\r\n        address from,\r\n        uint24 competencyId\r\n    ) competencyExist(competencyId) view public returns (bool){\r\n        return  (_competencyRepresentative[competencyId][from] || from == _competencyCreator[competencyId]);\r\n    }   \r\n}",
  "sourcePath": "/Users/ls/Documents/Projects/CompetencySystemApi2.0/Truffle/contracts/CompetencySystem.sol",
  "compiler": {
    "name": "solc",
    "version": "0.8.0+commit.c7dfd78e.Emscripten.clang"
  },
  "schemaVersion": "3.4.16",
  "updatedAt": "2024-08-06T02:44:48.567Z",
  "networkType": "ethereum",
  "devdoc": {
    "kind": "dev",
    "methods": {
      "balanceOf(address,uint256)": {
        "details": "See {IERC1155-balanceOf}. Requirements: - `account` cannot be the zero address."
      },
      "balanceOfBatch(address[],uint256[])": {
        "details": "See {IERC1155-balanceOfBatch}. Requirements: - `accounts` and `ids` must have the same length."
      },
      "isApprovedForAll(address,address)": {
        "details": "See {IERC1155-isApprovedForAll}."
      },
      "safeBatchTransferFrom(address,address,uint256[],uint256[],bytes)": {
        "details": "See {IERC1155-safeBatchTransferFrom}."
      },
      "safeTransferFrom(address,address,uint256,uint256,bytes)": {
        "details": "See {IERC1155-safeTransferFrom}."
      },
      "setApprovalForAll(address,bool)": {
        "details": "See {IERC1155-setApprovalForAll}."
      },
      "supportsInterface(bytes4)": {
        "details": "See {IERC165-supportsInterface}."
      },
      "uri(uint256)": {
        "details": "See {IERC1155MetadataURI-uri}. This implementation returns the same URI for *all* token types. It relies on the token type ID substitution mechanism https://eips.ethereum.org/EIPS/eip-1155#metadata[defined in the EIP]. Clients calling this function must replace the `\\{id\\}` substring with the actual token type ID."
      }
    },
    "version": 1
  },
  "userdoc": {
    "kind": "user",
    "methods": {},
    "version": 1
  }
}