{
  "contractName": "CompetencySystem",
  "abi": [
    {
      "inputs": [],
      "stateMutability": "nonpayable",
      "type": "constructor"
    },
    {
      "anonymous": false,
      "inputs": [
        {
          "indexed": true,
          "internalType": "address",
          "name": "account",
          "type": "address"
        },
        {
          "indexed": true,
          "internalType": "address",
          "name": "operator",
          "type": "address"
        },
        {
          "indexed": false,
          "internalType": "bool",
          "name": "approved",
          "type": "bool"
        }
      ],
      "name": "ApprovalForAll",
      "type": "event"
    },
    {
      "anonymous": false,
      "inputs": [
        {
          "indexed": true,
          "internalType": "address",
          "name": "operator",
          "type": "address"
        },
        {
          "indexed": true,
          "internalType": "address",
          "name": "from",
          "type": "address"
        },
        {
          "indexed": true,
          "internalType": "address",
          "name": "to",
          "type": "address"
        },
        {
          "indexed": false,
          "internalType": "uint256[]",
          "name": "ids",
          "type": "uint256[]"
        },
        {
          "indexed": false,
          "internalType": "uint256[]",
          "name": "values",
          "type": "uint256[]"
        }
      ],
      "name": "TransferBatch",
      "type": "event"
    },
    {
      "anonymous": false,
      "inputs": [
        {
          "indexed": true,
          "internalType": "address",
          "name": "operator",
          "type": "address"
        },
        {
          "indexed": true,
          "internalType": "address",
          "name": "from",
          "type": "address"
        },
        {
          "indexed": true,
          "internalType": "address",
          "name": "to",
          "type": "address"
        },
        {
          "indexed": false,
          "internalType": "uint256",
          "name": "id",
          "type": "uint256"
        },
        {
          "indexed": false,
          "internalType": "uint256",
          "name": "value",
          "type": "uint256"
        }
      ],
      "name": "TransferSingle",
      "type": "event"
    },
    {
      "anonymous": false,
      "inputs": [
        {
          "indexed": false,
          "internalType": "string",
          "name": "value",
          "type": "string"
        },
        {
          "indexed": true,
          "internalType": "uint256",
          "name": "id",
          "type": "uint256"
        }
      ],
      "name": "URI",
      "type": "event"
    },
    {
      "inputs": [
        {
          "internalType": "address",
          "name": "account",
          "type": "address"
        },
        {
          "internalType": "uint256",
          "name": "id",
          "type": "uint256"
        }
      ],
      "name": "balanceOf",
      "outputs": [
        {
          "internalType": "uint256",
          "name": "",
          "type": "uint256"
        }
      ],
      "stateMutability": "view",
      "type": "function",
      "constant": true
    },
    {
      "inputs": [
        {
          "internalType": "address[]",
          "name": "accounts",
          "type": "address[]"
        },
        {
          "internalType": "uint256[]",
          "name": "ids",
          "type": "uint256[]"
        }
      ],
      "name": "balanceOfBatch",
      "outputs": [
        {
          "internalType": "uint256[]",
          "name": "",
          "type": "uint256[]"
        }
      ],
      "stateMutability": "view",
      "type": "function",
      "constant": true
    },
    {
      "inputs": [
        {
          "internalType": "address",
          "name": "account",
          "type": "address"
        },
        {
          "internalType": "address",
          "name": "operator",
          "type": "address"
        }
      ],
      "name": "isApprovedForAll",
      "outputs": [
        {
          "internalType": "bool",
          "name": "",
          "type": "bool"
        }
      ],
      "stateMutability": "view",
      "type": "function",
      "constant": true
    },
    {
      "inputs": [
        {
          "internalType": "address",
          "name": "operator",
          "type": "address"
        },
        {
          "internalType": "bool",
          "name": "approved",
          "type": "bool"
        }
      ],
      "name": "setApprovalForAll",
      "outputs": [],
      "stateMutability": "nonpayable",
      "type": "function"
    },
    {
      "inputs": [
        {
          "internalType": "bytes4",
          "name": "interfaceId",
          "type": "bytes4"
        }
      ],
      "name": "supportsInterface",
      "outputs": [
        {
          "internalType": "bool",
          "name": "",
          "type": "bool"
        }
      ],
      "stateMutability": "view",
      "type": "function",
      "constant": true
    },
    {
      "inputs": [
        {
          "internalType": "uint256",
          "name": "",
          "type": "uint256"
        }
      ],
      "name": "uri",
      "outputs": [
        {
          "internalType": "string",
          "name": "",
          "type": "string"
        }
      ],
      "stateMutability": "view",
      "type": "function",
      "constant": true
    },
    {
      "inputs": [
        {
          "internalType": "string",
          "name": "statement",
          "type": "string"
        },
        {
          "internalType": "string[]",
          "name": "knowledgeElement",
          "type": "string[]"
        },
        {
          "internalType": "string[]",
          "name": "dispositions",
          "type": "string[]"
        }
      ],
      "name": "createCompetency",
      "outputs": [
        {
          "internalType": "uint256",
          "name": "",
          "type": "uint256"
        }
      ],
      "stateMutability": "nonpayable",
      "type": "function"
    },
    {
      "inputs": [
        {
          "internalType": "uint256",
          "name": "competencyId",
          "type": "uint256"
        }
      ],
      "name": "getCompetencyInfo",
      "outputs": [
        {
          "components": [
            {
              "internalType": "string",
              "name": "statement",
              "type": "string"
            },
            {
              "internalType": "string[]",
              "name": "knowledgeElement",
              "type": "string[]"
            },
            {
              "internalType": "string[]",
              "name": "dispositions",
              "type": "string[]"
            }
          ],
          "internalType": "struct CompetencySystem.CompetencyDescription",
          "name": "",
          "type": "tuple"
        }
      ],
      "stateMutability": "view",
      "type": "function",
      "constant": true
    },
    {
      "inputs": [
        {
          "internalType": "uint256",
          "name": "competencyId",
          "type": "uint256"
        },
        {
          "internalType": "uint256",
          "name": "amount",
          "type": "uint256"
        }
      ],
      "name": "mint",
      "outputs": [],
      "stateMutability": "nonpayable",
      "type": "function"
    },
    {
      "inputs": [
        {
          "internalType": "uint256[]",
          "name": "competencyIds",
          "type": "uint256[]"
        },
        {
          "internalType": "uint256[]",
          "name": "amount",
          "type": "uint256[]"
        }
      ],
      "name": "mintBatch",
      "outputs": [],
      "stateMutability": "nonpayable",
      "type": "function"
    },
    {
      "inputs": [
        {
          "internalType": "address",
          "name": "from",
          "type": "address"
        },
        {
          "internalType": "address",
          "name": "to",
          "type": "address"
        },
        {
          "internalType": "uint256",
          "name": "id",
          "type": "uint256"
        },
        {
          "internalType": "uint256",
          "name": "amount",
          "type": "uint256"
        },
        {
          "internalType": "bytes",
          "name": "data",
          "type": "bytes"
        }
      ],
      "name": "safeTransferFrom",
      "outputs": [],
      "stateMutability": "nonpayable",
      "type": "function"
    },
    {
      "inputs": [
        {
          "internalType": "address",
          "name": "from",
          "type": "address"
        },
        {
          "internalType": "address",
          "name": "to",
          "type": "address"
        },
        {
          "internalType": "uint256[]",
          "name": "ids",
          "type": "uint256[]"
        },
        {
          "internalType": "uint256[]",
          "name": "amounts",
          "type": "uint256[]"
        },
        {
          "internalType": "bytes",
          "name": "data",
          "type": "bytes"
        }
      ],
      "name": "safeBatchTransferFrom",
      "outputs": [],
      "stateMutability": "nonpayable",
      "type": "function"
    },
    {
      "inputs": [
        {
          "internalType": "address",
          "name": "from",
          "type": "address"
        },
        {
          "internalType": "address",
          "name": "to",
          "type": "address"
        },
        {
          "internalType": "uint256",
          "name": "id",
          "type": "uint256"
        },
        {
          "internalType": "uint256[]",
          "name": "skillLevels",
          "type": "uint256[]"
        },
        {
          "internalType": "bytes",
          "name": "data",
          "type": "bytes"
        }
      ],
      "name": "awardCompetency",
      "outputs": [],
      "stateMutability": "nonpayable",
      "type": "function"
    },
    {
      "inputs": [
        {
          "internalType": "address",
          "name": "to",
          "type": "address"
        },
        {
          "internalType": "uint256",
          "name": "competencyId",
          "type": "uint256"
        }
      ],
      "name": "givePermissionToTeacherFromStudent",
      "outputs": [],
      "stateMutability": "nonpayable",
      "type": "function"
    },
    {
      "inputs": [
        {
          "internalType": "address",
          "name": "to",
          "type": "address"
        },
        {
          "internalType": "address",
          "name": "owner",
          "type": "address"
        },
        {
          "internalType": "uint256",
          "name": "competencyId",
          "type": "uint256"
        }
      ],
      "name": "givePermissionToTeacherFromOwner",
      "outputs": [],
      "stateMutability": "nonpayable",
      "type": "function"
    },
    {
      "inputs": [
        {
          "internalType": "address",
          "name": "owner",
          "type": "address"
        },
        {
          "internalType": "uint256",
          "name": "competencyId",
          "type": "uint256"
        },
        {
          "internalType": "uint256[]",
          "name": "skillLevels",
          "type": "uint256[]"
        }
      ],
      "name": "updateSkillValues",
      "outputs": [],
      "stateMutability": "nonpayable",
      "type": "function"
    }
  ],
  "bytecode": "0x60806040523480156200001157600080fd5b506040518060200160405280600081525062000033816200003a60201b60201c565b506200016b565b80600290805190602001906200005292919062000056565b5050565b828054620000649062000106565b90600052602060002090601f016020900481019282620000885760008555620000d4565b82601f10620000a357805160ff1916838001178555620000d4565b82800160010185558215620000d4579182015b82811115620000d3578251825591602001919060010190620000b6565b5b509050620000e39190620000e7565b5090565b5b8082111562000102576000816000905550600101620000e8565b5090565b600060028204905060018216806200011f57607f821691505b602082108114156200013657620001356200013c565b5b50919050565b7f4e487b7100000000000000000000000000000000000000000000000000000000600052602260045260246000fd5b614d1b806200017b6000396000f3fe608060405234801561001057600080fd5b50600436106100ff5760003560e01c8063a22cb46511610097578063e985e9c511610066578063e985e9c5146102b8578063f0c44766146102e8578063f242432a14610318578063feea5fcb14610334576100ff565b8063a22cb46514610248578063b3adb5a814610264578063d351cfdc14610280578063e91fba9e1461029c576100ff565b80632eb2c2d6116100d35780632eb2c2d6146101b05780634e1273f4146101cc5780635ecc11c6146101fc578063628a6a311461022c576100ff565b8062fdd58e1461010457806301ffc9a7146101345780630e89341c146101645780631b2ef1ca14610194575b600080fd5b61011e600480360381019061011991906136d1565b610350565b60405161012b919061471e565b60405180910390f35b61014e6004803603810190610149919061384c565b610419565b60405161015b919061447f565b60405180910390f35b61017e60048036038101906101799190613935565b6104fb565b60405161018b919061449a565b60405180910390f35b6101ae60048036038101906101a9919061395e565b61058f565b005b6101ca60048036038101906101c59190613451565b610766565b005b6101e660048036038101906101e19190613774565b610c4b565b6040516101f39190614426565b60405180910390f35b61021660048036038101906102119190613935565b610dfc565b60405161022391906146fc565b60405180910390f35b6102466004803603810190610241919061370d565b6110a2565b005b610262600480360381019061025d9190613695565b611245565b005b61027e600480360381019061027991906136d1565b6113c6565b005b61029a600480360381019061029591906137e0565b611462565b005b6102b660048036038101906102b1919061355f565b6117d9565b005b6102d260048036038101906102cd9190613415565b611a81565b6040516102df919061447f565b60405180910390f35b61030260048036038101906102fd919061389e565b611b15565b60405161030f919061471e565b60405180910390f35b610332600480360381019061032d9190613606565b611c35565b005b61034e60048036038101906103499190613510565b611eda565b005b60008073ffffffffffffffffffffffffffffffffffffffff168373ffffffffffffffffffffffffffffffffffffffff1614156103c1576040517f08c379a00000000000000000000000000000000000000000000000000000000081526004016103b8906144fc565b60405180910390fd5b60008083815260200190815260200160002060008473ffffffffffffffffffffffffffffffffffffffff1673ffffffffffffffffffffffffffffffffffffffff16815260200190815260200160002054905092915050565b60007fd9b67a26000000000000000000000000000000000000000000000000000000007bffffffffffffffffffffffffffffffffffffffffffffffffffffffff1916827bffffffffffffffffffffffffffffffffffffffffffffffffffffffff191614806104e457507f0e89341c000000000000000000000000000000000000000000000000000000007bffffffffffffffffffffffffffffffffffffffffffffffffffffffff1916827bffffffffffffffffffffffffffffffffffffffffffffffffffffffff1916145b806104f457506104f382611f70565b5b9050919050565b60606002805461050a90614a72565b80601f016020809104026020016040519081016040528092919081815260200182805461053690614a72565b80156105835780601f1061055857610100808354040283529160200191610583565b820191906000526020600020905b81548152906001019060200180831161056657829003601f168201915b50505050509050919050565b816005600082815260200190815260200160002060009054906101000a900473ffffffffffffffffffffffffffffffffffffffff1673ffffffffffffffffffffffffffffffffffffffff166105e2611fda565b73ffffffffffffffffffffffffffffffffffffffff1614610638576040517f08c379a000000000000000000000000000000000000000000000000000000000815260040161062f906146dc565b60405180910390fd5b826003805490508110610680576040517f08c379a00000000000000000000000000000000000000000000000000000000081526004016106779061451c565b60405180910390fd5b6106a261068b611fda565b858560405180602001604052806000815250611fe2565b826006600086815260200190815260200160002060006106c0611fda565b73ffffffffffffffffffffffffffffffffffffffff1673ffffffffffffffffffffffffffffffffffffffff168152602001908152602001600020546107059190614932565b600660008681526020019081526020016000206000610722611fda565b73ffffffffffffffffffffffffffffffffffffffff1673ffffffffffffffffffffffffffffffffffffffff1681526020019081526020016000208190555050505050565b82828660005b83518110156108a65760008382815181106107b0577f4e487b7100000000000000000000000000000000000000000000000000000000600052603260045260246000fd5b6020026020010151600660008785815181106107f5577f4e487b7100000000000000000000000000000000000000000000000000000000600052603260045260246000fd5b6020026020010151815260200190815260200160002060008573ffffffffffffffffffffffffffffffffffffffff1673ffffffffffffffffffffffffffffffffffffffff168152602001908152602001600020546108539190614988565b11610893576040517f08c379a000000000000000000000000000000000000000000000000000000000815260040161088a9061455c565b60405180910390fd5b808061089e90614aa4565b91505061076c565b506108af611fda565b73ffffffffffffffffffffffffffffffffffffffff168873ffffffffffffffffffffffffffffffffffffffff1614806108f557506108f4886108ef611fda565b611a81565b5b610934576040517f08c379a000000000000000000000000000000000000000000000000000000000815260040161092b906145bc565b60405180910390fd5b6109418888888888612178565b60005b8651811015610c4057858181518110610986577f4e487b7100000000000000000000000000000000000000000000000000000000600052603260045260246000fd5b6020026020010151600660008984815181106109cb577f4e487b7100000000000000000000000000000000000000000000000000000000600052603260045260246000fd5b6020026020010151815260200190815260200160002060008b73ffffffffffffffffffffffffffffffffffffffff1673ffffffffffffffffffffffffffffffffffffffff16815260200190815260200160002054610a299190614988565b60066000898481518110610a66577f4e487b7100000000000000000000000000000000000000000000000000000000600052603260045260246000fd5b6020026020010151815260200190815260200160002060008b73ffffffffffffffffffffffffffffffffffffffff1673ffffffffffffffffffffffffffffffffffffffff16815260200190815260200160002081905550858181518110610af6577f4e487b7100000000000000000000000000000000000000000000000000000000600052603260045260246000fd5b602002602001015160066000898481518110610b3b577f4e487b7100000000000000000000000000000000000000000000000000000000600052603260045260246000fd5b6020026020010151815260200190815260200160002060008a73ffffffffffffffffffffffffffffffffffffffff1673ffffffffffffffffffffffffffffffffffffffff16815260200190815260200160002054610b999190614932565b60066000898481518110610bd6577f4e487b7100000000000000000000000000000000000000000000000000000000600052603260045260246000fd5b6020026020010151815260200190815260200160002060008a73ffffffffffffffffffffffffffffffffffffffff1673ffffffffffffffffffffffffffffffffffffffff168152602001908152602001600020819055508080610c3890614aa4565b915050610944565b505050505050505050565b60608151835114610c91576040517f08c379a0000000000000000000000000000000000000000000000000000000008152600401610c889061467c565b60405180910390fd5b6000835167ffffffffffffffff811115610cd4577f4e487b7100000000000000000000000000000000000000000000000000000000600052604160045260246000fd5b604051908082528060200260200182016040528015610d025781602001602082028036833780820191505090505b50905060005b8451811015610df157610d9b858281518110610d4d577f4e487b7100000000000000000000000000000000000000000000000000000000600052603260045260246000fd5b6020026020010151858381518110610d8e577f4e487b7100000000000000000000000000000000000000000000000000000000600052603260045260246000fd5b6020026020010151610350565b828281518110610dd4577f4e487b7100000000000000000000000000000000000000000000000000000000600052603260045260246000fd5b60200260200101818152505080610dea90614aa4565b9050610d08565b508091505092915050565b610e04612f54565b60038281548110610e3e577f4e487b7100000000000000000000000000000000000000000000000000000000600052603260045260246000fd5b9060005260206000209060030201604051806060016040529081600082018054610e6790614a72565b80601f0160208091040260200160405190810160405280929190818152602001828054610e9390614a72565b8015610ee05780601f10610eb557610100808354040283529160200191610ee0565b820191906000526020600020905b815481529060010190602001808311610ec357829003601f168201915b5050505050815260200160018201805480602002602001604051908101604052809291908181526020016000905b82821015610fba578382906000526020600020018054610f2d90614a72565b80601f0160208091040260200160405190810160405280929190818152602001828054610f5990614a72565b8015610fa65780601f10610f7b57610100808354040283529160200191610fa6565b820191906000526020600020905b815481529060010190602001808311610f8957829003601f168201915b505050505081526020019060010190610f0e565b50505050815260200160028201805480602002602001604051908101604052809291908181526020016000905b8282101561109357838290600052602060002001805461100690614a72565b80601f016020809104026020016040519081016040528092919081815260200182805461103290614a72565b801561107f5780601f106110545761010080835404028352916020019161107f565b820191906000526020600020905b81548152906001019060200180831161106257829003601f168201915b505050505081526020019060010190610fe7565b50505050815250509050919050565b6110aa611fda565b83836007600082846040516020016110c3929190614338565b60405160208183030381529060405280519060200120815260200190815260200160002060008473ffffffffffffffffffffffffffffffffffffffff1673ffffffffffffffffffffffffffffffffffffffff16815260200190815260200160002060009054906101000a900460ff1680156111f3575060086000826005600085815260200190815260200160002060009054906101000a900473ffffffffffffffffffffffffffffffffffffffff16604051602001611183929190614338565b60405160208183030381529060405280519060200120815260200190815260200160002060008473ffffffffffffffffffffffffffffffffffffffff1673ffffffffffffffffffffffffffffffffffffffff16815260200190815260200160002060009054906101000a900460ff165b611232576040517f08c379a00000000000000000000000000000000000000000000000000000000081526004016112299061457c565b60405180910390fd5b61123d8686866124d8565b505050505050565b8173ffffffffffffffffffffffffffffffffffffffff16611264611fda565b73ffffffffffffffffffffffffffffffffffffffff1614156112bb576040517f08c379a00000000000000000000000000000000000000000000000000000000081526004016112b29061465c565b60405180910390fd5b80600160006112c8611fda565b73ffffffffffffffffffffffffffffffffffffffff1673ffffffffffffffffffffffffffffffffffffffff16815260200190815260200160002060008473ffffffffffffffffffffffffffffffffffffffff1673ffffffffffffffffffffffffffffffffffffffff16815260200190815260200160002060006101000a81548160ff0219169083151502179055508173ffffffffffffffffffffffffffffffffffffffff16611375611fda565b73ffffffffffffffffffffffffffffffffffffffff167f17307eab39ab6107e8899845ad3d59bd9653f200f220920489ca2b5937696c31836040516113ba919061447f565b60405180910390a35050565b600160076000836113d5611fda565b6040516020016113e6929190614338565b60405160208183030381529060405280519060200120815260200190815260200160002060008473ffffffffffffffffffffffffffffffffffffffff1673ffffffffffffffffffffffffffffffffffffffff16815260200190815260200160002060006101000a81548160ff0219169083151502179055505050565b8160005b815181101561156a57600560008383815181106114ac577f4e487b7100000000000000000000000000000000000000000000000000000000600052603260045260246000fd5b6020026020010151815260200190815260200160002060009054906101000a900473ffffffffffffffffffffffffffffffffffffffff1673ffffffffffffffffffffffffffffffffffffffff16611501611fda565b73ffffffffffffffffffffffffffffffffffffffff1614611557576040517f08c379a000000000000000000000000000000000000000000000000000000000815260040161154e906146dc565b60405180910390fd5b808061156290614aa4565b915050611466565b508260005b8151811015611612576003805490508282815181106115b7577f4e487b7100000000000000000000000000000000000000000000000000000000600052603260045260246000fd5b6020026020010151106115ff576040517f08c379a00000000000000000000000000000000000000000000000000000000081526004016115f6906145fc565b60405180910390fd5b808061160a90614aa4565b91505061156f565b5061163561161e611fda565b8585604051806020016040528060008152506125e7565b60005b84518110156117d25783818151811061167a577f4e487b7100000000000000000000000000000000000000000000000000000000600052603260045260246000fd5b6020026020010151600660008784815181106116bf577f4e487b7100000000000000000000000000000000000000000000000000000000600052603260045260246000fd5b6020026020010151815260200190815260200160002060006116df611fda565b73ffffffffffffffffffffffffffffffffffffffff1673ffffffffffffffffffffffffffffffffffffffff168152602001908152602001600020546117249190614932565b60066000878481518110611761577f4e487b7100000000000000000000000000000000000000000000000000000000600052603260045260246000fd5b602002602001015181526020019081526020016000206000611781611fda565b73ffffffffffffffffffffffffffffffffffffffff1673ffffffffffffffffffffffffffffffffffffffff1681526020019081526020016000208190555080806117ca90614aa4565b915050611638565b5050505050565b826001866000826006600086815260200190815260200160002060008473ffffffffffffffffffffffffffffffffffffffff1673ffffffffffffffffffffffffffffffffffffffff1681526020019081526020016000205461183b9190614988565b1161187b576040517f08c379a00000000000000000000000000000000000000000000000000000000081526004016118729061463c565b60405180910390fd5b8460005b815181101561191e5760068282815181106118c3577f4e487b7100000000000000000000000000000000000000000000000000000000600052603260045260246000fd5b60200260200101511061190b576040517f08c379a00000000000000000000000000000000000000000000000000000000081526004016119029061461c565b60405180910390fd5b808061191690614aa4565b91505061187f565b50611927611fda565b73ffffffffffffffffffffffffffffffffffffffff168973ffffffffffffffffffffffffffffffffffffffff16148061196d575061196c89611967611fda565b611a81565b5b6119ac576040517f08c379a00000000000000000000000000000000000000000000000000000000081526004016119a39061453c565b60405180910390fd5b6119ba898989600189612851565b60016006600089815260200190815260200160002060008b73ffffffffffffffffffffffffffffffffffffffff1673ffffffffffffffffffffffffffffffffffffffff16815260200190815260200160002054611a179190614988565b6006600089815260200190815260200160002060008b73ffffffffffffffffffffffffffffffffffffffff1673ffffffffffffffffffffffffffffffffffffffff16815260200190815260200160002081905550611a768888886124d8565b505050505050505050565b6000600160008473ffffffffffffffffffffffffffffffffffffffff1673ffffffffffffffffffffffffffffffffffffffff16815260200190815260200160002060008373ffffffffffffffffffffffffffffffffffffffff1673ffffffffffffffffffffffffffffffffffffffff16815260200190815260200160002060009054906101000a900460ff16905092915050565b600080604051806060016040528086815260200185815260200184815250905060038190806001815401808255809150506001900390600052602060002090600302016000909190919091506000820151816000019080519060200190611b7d929190612f75565b506020820151816001019080519060200190611b9a929190612ffb565b506040820151816002019080519060200190611bb7929190612ffb565b50505060006001600380549050611bce9190614988565b9050611bd8611fda565b6005600083815260200190815260200160002060006101000a81548173ffffffffffffffffffffffffffffffffffffffff021916908373ffffffffffffffffffffffffffffffffffffffff16021790555080925050509392505050565b8282866000826006600086815260200190815260200160002060008473ffffffffffffffffffffffffffffffffffffffff1673ffffffffffffffffffffffffffffffffffffffff16815260200190815260200160002054611c969190614988565b11611cd6576040517f08c379a0000000000000000000000000000000000000000000000000000000008152600401611ccd9061463c565b60405180910390fd5b611cde611fda565b73ffffffffffffffffffffffffffffffffffffffff168873ffffffffffffffffffffffffffffffffffffffff161480611d245750611d2388611d1e611fda565b611a81565b5b611d63576040517f08c379a0000000000000000000000000000000000000000000000000000000008152600401611d5a9061453c565b60405180910390fd5b611d708888888888612851565b846006600088815260200190815260200160002060008a73ffffffffffffffffffffffffffffffffffffffff1673ffffffffffffffffffffffffffffffffffffffff16815260200190815260200160002054611dcc9190614988565b6006600088815260200190815260200160002060008a73ffffffffffffffffffffffffffffffffffffffff1673ffffffffffffffffffffffffffffffffffffffff16815260200190815260200160002081905550846006600088815260200190815260200160002060008973ffffffffffffffffffffffffffffffffffffffff1673ffffffffffffffffffffffffffffffffffffffff16815260200190815260200160002054611e7c9190614932565b6006600088815260200190815260200160002060008973ffffffffffffffffffffffffffffffffffffffff1673ffffffffffffffffffffffffffffffffffffffff168152602001908152602001600020819055505050505050505050565b6001600860008385604051602001611ef3929190614338565b60405160208183030381529060405280519060200120815260200190815260200160002060008573ffffffffffffffffffffffffffffffffffffffff1673ffffffffffffffffffffffffffffffffffffffff16815260200190815260200160002060006101000a81548160ff021916908315150217905550505050565b60007f01ffc9a7000000000000000000000000000000000000000000000000000000007bffffffffffffffffffffffffffffffffffffffffffffffffffffffff1916827bffffffffffffffffffffffffffffffffffffffffffffffffffffffff1916149050919050565b600033905090565b600073ffffffffffffffffffffffffffffffffffffffff168473ffffffffffffffffffffffffffffffffffffffff161415612052576040517f08c379a0000000000000000000000000000000000000000000000000000000008152600401612049906146bc565b60405180910390fd5b600061205c611fda565b905061207d8160008761206e88612ad3565b61207788612ad3565b87612b99565b8260008086815260200190815260200160002060008773ffffffffffffffffffffffffffffffffffffffff1673ffffffffffffffffffffffffffffffffffffffff16815260200190815260200160002060008282546120dc9190614932565b925050819055508473ffffffffffffffffffffffffffffffffffffffff16600073ffffffffffffffffffffffffffffffffffffffff168273ffffffffffffffffffffffffffffffffffffffff167fc3d58168c5ae7397731d063d5bbf3d657854427343f4c083240f7aacaa2d0f62878760405161215a929190614739565b60405180910390a461217181600087878787612ba1565b5050505050565b81518351146121bc576040517f08c379a00000000000000000000000000000000000000000000000000000000081526004016121b39061469c565b60405180910390fd5b600073ffffffffffffffffffffffffffffffffffffffff168473ffffffffffffffffffffffffffffffffffffffff16141561222c576040517f08c379a00000000000000000000000000000000000000000000000000000000081526004016122239061459c565b60405180910390fd5b6000612236611fda565b9050612246818787878787612b99565b60005b845181101561244357600085828151811061228d577f4e487b7100000000000000000000000000000000000000000000000000000000600052603260045260246000fd5b6020026020010151905060008583815181106122d2577f4e487b7100000000000000000000000000000000000000000000000000000000600052603260045260246000fd5b60200260200101519050600080600084815260200190815260200160002060008b73ffffffffffffffffffffffffffffffffffffffff1673ffffffffffffffffffffffffffffffffffffffff16815260200190815260200160002054905081811015612373576040517f08c379a000000000000000000000000000000000000000000000000000000000815260040161236a906145dc565b60405180910390fd5b81810360008085815260200190815260200160002060008c73ffffffffffffffffffffffffffffffffffffffff1673ffffffffffffffffffffffffffffffffffffffff168152602001908152602001600020819055508160008085815260200190815260200160002060008b73ffffffffffffffffffffffffffffffffffffffff1673ffffffffffffffffffffffffffffffffffffffff16815260200190815260200160002060008282546124289190614932565b925050819055505050508061243c90614aa4565b9050612249565b508473ffffffffffffffffffffffffffffffffffffffff168673ffffffffffffffffffffffffffffffffffffffff168273ffffffffffffffffffffffffffffffffffffffff167f4a39dc06d4c0dbc64b70af90fd698a233a518aa5d07e595d983b8c0526c8f7fb87876040516124ba929190614448565b60405180910390a46124d0818787878787612d71565b505050505050565b8060005b815181101561257b576006828281518110612520577f4e487b7100000000000000000000000000000000000000000000000000000000600052603260045260246000fd5b602002602001015110612568576040517f08c379a000000000000000000000000000000000000000000000000000000000815260040161255f9061461c565b60405180910390fd5b808061257390614aa4565b9150506124dc565b50816004600085815260200190815260200160002060008673ffffffffffffffffffffffffffffffffffffffff1673ffffffffffffffffffffffffffffffffffffffff16815260200190815260200160002090805190602001906125e092919061305b565b5050505050565b600073ffffffffffffffffffffffffffffffffffffffff168473ffffffffffffffffffffffffffffffffffffffff161415612657576040517f08c379a000000000000000000000000000000000000000000000000000000000815260040161264e906146bc565b60405180910390fd5b815183511461269b576040517f08c379a00000000000000000000000000000000000000000000000000000000081526004016126929061469c565b60405180910390fd5b60006126a5611fda565b90506126b681600087878787612b99565b60005b84518110156127bb578381815181106126fb577f4e487b7100000000000000000000000000000000000000000000000000000000600052603260045260246000fd5b602002602001015160008087848151811061273f577f4e487b7100000000000000000000000000000000000000000000000000000000600052603260045260246000fd5b6020026020010151815260200190815260200160002060008873ffffffffffffffffffffffffffffffffffffffff1673ffffffffffffffffffffffffffffffffffffffff16815260200190815260200160002060008282546127a19190614932565b9250508190555080806127b390614aa4565b9150506126b9565b508473ffffffffffffffffffffffffffffffffffffffff16600073ffffffffffffffffffffffffffffffffffffffff168273ffffffffffffffffffffffffffffffffffffffff167f4a39dc06d4c0dbc64b70af90fd698a233a518aa5d07e595d983b8c0526c8f7fb8787604051612833929190614448565b60405180910390a461284a81600087878787612d71565b5050505050565b600073ffffffffffffffffffffffffffffffffffffffff168473ffffffffffffffffffffffffffffffffffffffff1614156128c1576040517f08c379a00000000000000000000000000000000000000000000000000000000081526004016128b89061459c565b60405180910390fd5b60006128cb611fda565b90506128eb8187876128dc88612ad3565b6128e588612ad3565b87612b99565b600080600086815260200190815260200160002060008873ffffffffffffffffffffffffffffffffffffffff1673ffffffffffffffffffffffffffffffffffffffff16815260200190815260200160002054905083811015612982576040517f08c379a0000000000000000000000000000000000000000000000000000000008152600401612979906145dc565b60405180910390fd5b83810360008087815260200190815260200160002060008973ffffffffffffffffffffffffffffffffffffffff1673ffffffffffffffffffffffffffffffffffffffff168152602001908152602001600020819055508360008087815260200190815260200160002060008873ffffffffffffffffffffffffffffffffffffffff1673ffffffffffffffffffffffffffffffffffffffff1681526020019081526020016000206000828254612a379190614932565b925050819055508573ffffffffffffffffffffffffffffffffffffffff168773ffffffffffffffffffffffffffffffffffffffff168373ffffffffffffffffffffffffffffffffffffffff167fc3d58168c5ae7397731d063d5bbf3d657854427343f4c083240f7aacaa2d0f628888604051612ab4929190614739565b60405180910390a4612aca828888888888612ba1565b50505050505050565b60606000600167ffffffffffffffff811115612b18577f4e487b7100000000000000000000000000000000000000000000000000000000600052604160045260246000fd5b604051908082528060200260200182016040528015612b465781602001602082028036833780820191505090505b5090508281600081518110612b84577f4e487b7100000000000000000000000000000000000000000000000000000000600052603260045260246000fd5b60200260200101818152505080915050919050565b505050505050565b612bc08473ffffffffffffffffffffffffffffffffffffffff16612f41565b15612d69578373ffffffffffffffffffffffffffffffffffffffff1663f23a6e6187878686866040518663ffffffff1660e01b8152600401612c069594939291906143cc565b602060405180830381600087803b158015612c2057600080fd5b505af1925050508015612c5157506040513d601f19601f82011682018060405250810190612c4e9190613875565b60015b612ce057612c5d614bd3565b80612c685750612ca5565b806040517f08c379a0000000000000000000000000000000000000000000000000000000008152600401612c9c919061449a565b60405180910390fd5b6040517f08c379a0000000000000000000000000000000000000000000000000000000008152600401612cd7906144bc565b60405180910390fd5b63f23a6e6160e01b7bffffffffffffffffffffffffffffffffffffffffffffffffffffffff1916817bffffffffffffffffffffffffffffffffffffffffffffffffffffffff191614612d67576040517f08c379a0000000000000000000000000000000000000000000000000000000008152600401612d5e906144dc565b60405180910390fd5b505b505050505050565b612d908473ffffffffffffffffffffffffffffffffffffffff16612f41565b15612f39578373ffffffffffffffffffffffffffffffffffffffff1663bc197c8187878686866040518663ffffffff1660e01b8152600401612dd6959493929190614364565b602060405180830381600087803b158015612df057600080fd5b505af1925050508015612e2157506040513d601f19601f82011682018060405250810190612e1e9190613875565b60015b612eb057612e2d614bd3565b80612e385750612e75565b806040517f08c379a0000000000000000000000000000000000000000000000000000000008152600401612e6c919061449a565b60405180910390fd5b6040517f08c379a0000000000000000000000000000000000000000000000000000000008152600401612ea7906144bc565b60405180910390fd5b63bc197c8160e01b7bffffffffffffffffffffffffffffffffffffffffffffffffffffffff1916817bffffffffffffffffffffffffffffffffffffffffffffffffffffffff191614612f37576040517f08c379a0000000000000000000000000000000000000000000000000000000008152600401612f2e906144dc565b60405180910390fd5b505b505050505050565b600080823b905060008111915050919050565b60405180606001604052806060815260200160608152602001606081525090565b828054612f8190614a72565b90600052602060002090601f016020900481019282612fa35760008555612fea565b82601f10612fbc57805160ff1916838001178555612fea565b82800160010185558215612fea579182015b82811115612fe9578251825591602001919060010190612fce565b5b509050612ff791906130a8565b5090565b82805482825590600052602060002090810192821561304a579160200282015b82811115613049578251829080519060200190613039929190612f75565b509160200191906001019061301b565b5b50905061305791906130c5565b5090565b828054828255906000526020600020908101928215613097579160200282015b8281111561309657825182559160200191906001019061307b565b5b5090506130a491906130a8565b5090565b5b808211156130c15760008160009055506001016130a9565b5090565b5b808211156130e557600081816130dc91906130e9565b506001016130c6565b5090565b5080546130f590614a72565b6000825580601f106131075750613126565b601f01602090049060005260206000209081019061312591906130a8565b5b50565b600061313c61313784614793565b614762565b9050808382526020820190508285602086028201111561315b57600080fd5b60005b8581101561318b578161317188826132da565b84526020840193506020830192505060018101905061315e565b5050509392505050565b60006131a86131a3846147bf565b614762565b9050808382526020820190508260005b858110156131e857813585016131ce88826133d6565b8452602084019350602083019250506001810190506131b8565b5050509392505050565b6000613205613200846147eb565b614762565b9050808382526020820190508285602086028201111561322457600080fd5b60005b85811015613254578161323a8882613400565b845260208401935060208301925050600181019050613227565b5050509392505050565b600061327161326c84614817565b614762565b90508281526020810184848401111561328957600080fd5b613294848285614a30565b509392505050565b60006132af6132aa84614847565b614762565b9050828152602081018484840111156132c757600080fd5b6132d2848285614a30565b509392505050565b6000813590506132e981614c89565b92915050565b600082601f83011261330057600080fd5b8135613310848260208601613129565b91505092915050565b600082601f83011261332a57600080fd5b813561333a848260208601613195565b91505092915050565b600082601f83011261335457600080fd5b81356133648482602086016131f2565b91505092915050565b60008135905061337c81614ca0565b92915050565b60008135905061339181614cb7565b92915050565b6000815190506133a681614cb7565b92915050565b600082601f8301126133bd57600080fd5b81356133cd84826020860161325e565b91505092915050565b600082601f8301126133e757600080fd5b81356133f784826020860161329c565b91505092915050565b60008135905061340f81614cce565b92915050565b6000806040838503121561342857600080fd5b6000613436858286016132da565b9250506020613447858286016132da565b9150509250929050565b600080600080600060a0868803121561346957600080fd5b6000613477888289016132da565b9550506020613488888289016132da565b945050604086013567ffffffffffffffff8111156134a557600080fd5b6134b188828901613343565b935050606086013567ffffffffffffffff8111156134ce57600080fd5b6134da88828901613343565b925050608086013567ffffffffffffffff8111156134f757600080fd5b613503888289016133ac565b9150509295509295909350565b60008060006060848603121561352557600080fd5b6000613533868287016132da565b9350506020613544868287016132da565b925050604061355586828701613400565b9150509250925092565b600080600080600060a0868803121561357757600080fd5b6000613585888289016132da565b9550506020613596888289016132da565b94505060406135a788828901613400565b935050606086013567ffffffffffffffff8111156135c457600080fd5b6135d088828901613343565b925050608086013567ffffffffffffffff8111156135ed57600080fd5b6135f9888289016133ac565b9150509295509295909350565b600080600080600060a0868803121561361e57600080fd5b600061362c888289016132da565b955050602061363d888289016132da565b945050604061364e88828901613400565b935050606061365f88828901613400565b925050608086013567ffffffffffffffff81111561367c57600080fd5b613688888289016133ac565b9150509295509295909350565b600080604083850312156136a857600080fd5b60006136b6858286016132da565b92505060206136c78582860161336d565b9150509250929050565b600080604083850312156136e457600080fd5b60006136f2858286016132da565b925050602061370385828601613400565b9150509250929050565b60008060006060848603121561372257600080fd5b6000613730868287016132da565b935050602061374186828701613400565b925050604084013567ffffffffffffffff81111561375e57600080fd5b61376a86828701613343565b9150509250925092565b6000806040838503121561378757600080fd5b600083013567ffffffffffffffff8111156137a157600080fd5b6137ad858286016132ef565b925050602083013567ffffffffffffffff8111156137ca57600080fd5b6137d685828601613343565b9150509250929050565b600080604083850312156137f357600080fd5b600083013567ffffffffffffffff81111561380d57600080fd5b61381985828601613343565b925050602083013567ffffffffffffffff81111561383657600080fd5b61384285828601613343565b9150509250929050565b60006020828403121561385e57600080fd5b600061386c84828501613382565b91505092915050565b60006020828403121561388757600080fd5b600061389584828501613397565b91505092915050565b6000806000606084860312156138b357600080fd5b600084013567ffffffffffffffff8111156138cd57600080fd5b6138d9868287016133d6565b935050602084013567ffffffffffffffff8111156138f657600080fd5b61390286828701613319565b925050604084013567ffffffffffffffff81111561391f57600080fd5b61392b86828701613319565b9150509250925092565b60006020828403121561394757600080fd5b600061395584828501613400565b91505092915050565b6000806040838503121561397157600080fd5b600061397f85828601613400565b925050602061399085828601613400565b9150509250929050565b60006139a68383613b07565b905092915050565b60006139ba8383614303565b60208301905092915050565b6139cf816149bc565b82525050565b6139e66139e1826149bc565b614aed565b82525050565b60006139f782614897565b613a0181856148dd565b935083602082028501613a1385614877565b8060005b85811015613a4f5784840389528151613a30858261399a565b9450613a3b836148c3565b925060208a01995050600181019050613a17565b50829750879550505050505092915050565b6000613a6c826148a2565b613a7681856148ee565b9350613a8183614887565b8060005b83811015613ab2578151613a9988826139ae565b9750613aa4836148d0565b925050600181019050613a85565b5085935050505092915050565b613ac8816149ce565b82525050565b6000613ad9826148ad565b613ae381856148ff565b9350613af3818560208601614a3f565b613afc81614ba8565b840191505092915050565b6000613b12826148b8565b613b1c8185614910565b9350613b2c818560208601614a3f565b613b3581614ba8565b840191505092915050565b6000613b4b826148b8565b613b558185614921565b9350613b65818560208601614a3f565b613b6e81614ba8565b840191505092915050565b6000613b86603483614921565b91507f455243313135353a207472616e7366657220746f206e6f6e204552433131353560008301527f526563656976657220696d706c656d656e7465720000000000000000000000006020830152604082019050919050565b6000613bec602883614921565b91507f455243313135353a204552433131353552656365697665722072656a6563746560008301527f6420746f6b656e730000000000000000000000000000000000000000000000006020830152604082019050919050565b6000613c52602b83614921565b91507f455243313135353a2062616c616e636520717565727920666f7220746865207a60008301527f65726f20616464726573730000000000000000000000000000000000000000006020830152604082019050919050565b6000613cb8602a83614921565b91507f436f6d706574656e637953797374656d3a20436f6d706574656e637920646f6560008301527f73206e6f742065786974000000000000000000000000000000000000000000006020830152604082019050919050565b6000613d1e602983614921565b91507f455243313135353a2063616c6c6572206973206e6f74206f776e6572206e6f7260008301527f20617070726f76656400000000000000000000000000000000000000000000006020830152604082019050919050565b6000613d84603883614921565b91507f436f6d706574656e637953797374656d3a20446f65736e27742068617665207060008301527f65726d697373696f6e28732920746f207472616e7366657200000000000000006020830152604082019050919050565b6000613dea602b83614921565b91507f436f6d706574656e637953797374656d3a20486173206e6f207065726d69737360008301527f696f6e20746f20656469740000000000000000000000000000000000000000006020830152604082019050919050565b6000613e50602583614921565b91507f455243313135353a207472616e7366657220746f20746865207a65726f20616460008301527f64726573730000000000000000000000000000000000000000000000000000006020830152604082019050919050565b6000613eb6603283614921565b91507f455243313135353a207472616e736665722063616c6c6572206973206e6f742060008301527f6f776e6572206e6f7220617070726f76656400000000000000000000000000006020830152604082019050919050565b6000613f1c602a83614921565b91507f455243313135353a20696e73756666696369656e742062616c616e636520666f60008301527f72207472616e73666572000000000000000000000000000000000000000000006020830152604082019050919050565b6000613f82602d83614921565b91507f436f6d706574656e637953797374656d3a20436f6d706574656e63792873292060008301527f646f6573206e6f742065786974000000000000000000000000000000000000006020830152604082019050919050565b6000613fe8602583614921565b91507f436f6d706574656e637953797374656d3a20496e76616c696420736b696c6c2060008301527f6c6576656c0000000000000000000000000000000000000000000000000000006020830152604082019050919050565b600061404e603583614921565b91507f436f6d706574656e637953797374656d3a20446f65736e27742068617665207060008301527f65726d697373696f6e20746f207472616e7366657200000000000000000000006020830152604082019050919050565b60006140b4602983614921565b91507f455243313135353a2073657474696e6720617070726f76616c2073746174757360008301527f20666f722073656c6600000000000000000000000000000000000000000000006020830152604082019050919050565b600061411a602983614921565b91507f455243313135353a206163636f756e747320616e6420696473206c656e67746860008301527f206d69736d6174636800000000000000000000000000000000000000000000006020830152604082019050919050565b6000614180602883614921565b91507f455243313135353a2069647320616e6420616d6f756e7473206c656e6774682060008301527f6d69736d617463680000000000000000000000000000000000000000000000006020830152604082019050919050565b60006141e6602183614921565b91507f455243313135353a206d696e7420746f20746865207a65726f2061646472657360008301527f73000000000000000000000000000000000000000000000000000000000000006020830152604082019050919050565b600061424c602983614921565b91507f436f6d706574656e637953797374656d3a204f6e6c7920636f6d706574656e6360008301527f792063726561746f7200000000000000000000000000000000000000000000006020830152604082019050919050565b600060608301600083015184820360008601526142c28282613b07565b915050602083015184820360208601526142dc82826139ec565b915050604083015184820360408601526142f682826139ec565b9150508091505092915050565b61430c81614a26565b82525050565b61431b81614a26565b82525050565b61433261432d82614a26565b614b11565b82525050565b60006143448285614321565b60208201915061435482846139d5565b6014820191508190509392505050565b600060a08201905061437960008301886139c6565b61438660208301876139c6565b81810360408301526143988186613a61565b905081810360608301526143ac8185613a61565b905081810360808301526143c08184613ace565b90509695505050505050565b600060a0820190506143e160008301886139c6565b6143ee60208301876139c6565b6143fb6040830186614312565b6144086060830185614312565b818103608083015261441a8184613ace565b90509695505050505050565b600060208201905081810360008301526144408184613a61565b905092915050565b600060408201905081810360008301526144628185613a61565b905081810360208301526144768184613a61565b90509392505050565b60006020820190506144946000830184613abf565b92915050565b600060208201905081810360008301526144b48184613b40565b905092915050565b600060208201905081810360008301526144d581613b79565b9050919050565b600060208201905081810360008301526144f581613bdf565b9050919050565b6000602082019050818103600083015261451581613c45565b9050919050565b6000602082019050818103600083015261453581613cab565b9050919050565b6000602082019050818103600083015261455581613d11565b9050919050565b6000602082019050818103600083015261457581613d77565b9050919050565b6000602082019050818103600083015261459581613ddd565b9050919050565b600060208201905081810360008301526145b581613e43565b9050919050565b600060208201905081810360008301526145d581613ea9565b9050919050565b600060208201905081810360008301526145f581613f0f565b9050919050565b6000602082019050818103600083015261461581613f75565b9050919050565b6000602082019050818103600083015261463581613fdb565b9050919050565b6000602082019050818103600083015261465581614041565b9050919050565b60006020820190508181036000830152614675816140a7565b9050919050565b600060208201905081810360008301526146958161410d565b9050919050565b600060208201905081810360008301526146b581614173565b9050919050565b600060208201905081810360008301526146d5816141d9565b9050919050565b600060208201905081810360008301526146f58161423f565b9050919050565b6000602082019050818103600083015261471681846142a5565b905092915050565b60006020820190506147336000830184614312565b92915050565b600060408201905061474e6000830185614312565b61475b6020830184614312565b9392505050565b6000604051905081810181811067ffffffffffffffff8211171561478957614788614b79565b5b8060405250919050565b600067ffffffffffffffff8211156147ae576147ad614b79565b5b602082029050602081019050919050565b600067ffffffffffffffff8211156147da576147d9614b79565b5b602082029050602081019050919050565b600067ffffffffffffffff82111561480657614805614b79565b5b602082029050602081019050919050565b600067ffffffffffffffff82111561483257614831614b79565b5b601f19601f8301169050602081019050919050565b600067ffffffffffffffff82111561486257614861614b79565b5b601f19601f8301169050602081019050919050565b6000819050602082019050919050565b6000819050602082019050919050565b600081519050919050565b600081519050919050565b600081519050919050565b600081519050919050565b6000602082019050919050565b6000602082019050919050565b600082825260208201905092915050565b600082825260208201905092915050565b600082825260208201905092915050565b600082825260208201905092915050565b600082825260208201905092915050565b600061493d82614a26565b915061494883614a26565b9250827fffffffffffffffffffffffffffffffffffffffffffffffffffffffffffffffff0382111561497d5761497c614b1b565b5b828201905092915050565b600061499382614a26565b915061499e83614a26565b9250828210156149b1576149b0614b1b565b5b828203905092915050565b60006149c782614a06565b9050919050565b60008115159050919050565b60007fffffffff0000000000000000000000000000000000000000000000000000000082169050919050565b600073ffffffffffffffffffffffffffffffffffffffff82169050919050565b6000819050919050565b82818337600083830152505050565b60005b83811015614a5d578082015181840152602081019050614a42565b83811115614a6c576000848401525b50505050565b60006002820490506001821680614a8a57607f821691505b60208210811415614a9e57614a9d614b4a565b5b50919050565b6000614aaf82614a26565b91507fffffffffffffffffffffffffffffffffffffffffffffffffffffffffffffffff821415614ae257614ae1614b1b565b5b600182019050919050565b6000614af882614aff565b9050919050565b6000614b0a82614bb9565b9050919050565b6000819050919050565b7f4e487b7100000000000000000000000000000000000000000000000000000000600052601160045260246000fd5b7f4e487b7100000000000000000000000000000000000000000000000000000000600052602260045260246000fd5b7f4e487b7100000000000000000000000000000000000000000000000000000000600052604160045260246000fd5b6000601f19601f8301169050919050565b60008160601b9050919050565b60008160e01c9050919050565b600060443d1015614be357614c86565b60046000803e614bf4600051614bc6565b6308c379a08114614c055750614c86565b60405160043d036004823e80513d602482011167ffffffffffffffff82111715614c3157505050614c86565b808201805167ffffffffffffffff811115614c50575050505050614c86565b8060208301013d8501811115614c6b57505050505050614c86565b614c7482614ba8565b60208401016040528296505050505050505b90565b614c92816149bc565b8114614c9d57600080fd5b50565b614ca9816149ce565b8114614cb457600080fd5b50565b614cc0816149da565b8114614ccb57600080fd5b50565b614cd781614a26565b8114614ce257600080fd5b5056fea264697066735822122056698ea399201ffbea7b2d573e640470d37ee6fc8d76ddb387db91971e3f6c0564736f6c63430008000033",
  "immutableReferences": {},
  "source": "pragma solidity ^0.8.0;\r\n\r\n//import 'https://github.com/OpenZeppelin/openzeppelin-contracts/blob/master/contracts/token/ERC1155/ERC1155.sol';\r\n//import 'https://github.com/OpenZeppelin/openzeppelin-contracts/blob/master/contracts/access/Ownable.sol';\r\nimport \"@openzeppelin/contracts/token/ERC1155/ERC1155.sol\";\r\n\r\ncontract CompetencySystem is ERC1155{\r\n    \r\n    /* Skill level, using Blooms taxonomi\r\n    0. Remembering\r\n    1. Understanding\r\n    2. Applying\r\n    3. Analyzing\r\n    4. Evaluating\r\n    5. Creating\r\n    */\r\n    \r\n    ////////////////////CompetencySystem////////////////////\r\n    //can start as constants\r\n    struct CompetencyDescription {\r\n        string statement;\r\n        string[] knowledgeElement;\r\n        string[] dispositions;\r\n    }\r\n\r\n    // Competency array\r\n    CompetencyDescription[] _competency;\r\n    // Mapping from token ID to account balances\r\n    mapping(uint256 => mapping(address => uint[])) private _skillLevel;\r\n    /////////////////////////////////////////////////////////\r\n    ////////////////////modifiers////////////////////\r\n    //Register students?\r\n    mapping(uint256 => address) private _competencyCreator; //add owner?\r\n    mapping(uint256 => mapping(address => uint256)) private _canTransfer;\r\n    // the first key is a keccak256(<competencyId>, <competencyOwnerAddress>)\r\n    mapping(bytes32 => mapping(address => bool)) private _editStudentPermission;\r\n    // the first key is a keccak256(<competencyId>, <competencyOwnerAddress>)\r\n    mapping(bytes32 => mapping(address => bool)) private _editCreatorPermission;\r\n    /////////////////////////////////////////////////////////\r\n    modifier isCompetencyCreator(uint256 competencyId) {\r\n        require( _msgSender() == _competencyCreator[competencyId], \"CompetencySystem: Only competency creator\");\r\n        _;\r\n    }\r\n    \r\n    //check\r\n    modifier isCompetencysCreator(uint256[] memory competencyIds) {\r\n        for (uint i = 0; i < competencyIds.length; i++ ){\r\n            require( _msgSender() == _competencyCreator[competencyIds[i]], \"CompetencySystem: Only competency creator\");\r\n        }\r\n        _;\r\n    }\r\n    modifier competencyExist(uint256 competencyId) {\r\n        require( competencyId < _competency.length, \"CompetencySystem: Competency does not exit\");\r\n        _;\r\n    }\r\n    \r\n    //check\r\n    modifier competencysExist(uint256[] memory competencyIds) {\r\n        for (uint i = 0; i < competencyIds.length; i++ ){\r\n            require( competencyIds[i] < _competency.length, \"CompetencySystem: Competency(s) does not exit\");\r\n        }\r\n        _;\r\n    }\r\n    modifier canTransfer(uint256 competencyId, uint256 amount ,  address sender) {\r\n        require(_canTransfer[competencyId][sender] - amount > 0, \"CompetencySystem: Doesn't have permission to transfer\");\r\n        _;\r\n    }\r\n    \r\n    modifier canTransferMulti(uint256[] memory  competencyIds, uint256[] memory  amounts, address sender) {\r\n        for (uint i = 0; i < competencyIds.length; i++ ){\r\n            require(_canTransfer[competencyIds[i]][sender] - amounts[i] > 0 , \"CompetencySystem: Doesn't have permission(s) to transfer\");\r\n        }\r\n        _;\r\n    }\r\n    \r\n    modifier areSkillLevelsValid(uint256[] memory skillLevels) {\r\n        for (uint i = 0; i < skillLevels.length; i++ ){\r\n            require( (skillLevels[i] < 6), \"CompetencySystem: Invalid skill level\");\r\n        }\r\n        _;\r\n    }\r\n    \r\n    modifier canEdit(address editor, address owner, uint256 competencyId) {\r\n        require( \r\n            (\r\n            _editStudentPermission[keccak256(abi.encodePacked(competencyId, owner))][editor]\r\n                &&\r\n            _editCreatorPermission[keccak256(abi.encodePacked(competencyId, _competencyCreator[competencyId]  ))][editor]\r\n            ), \r\n            \"CompetencySystem: Has no permission to edit\"\r\n        );\r\n        _;\r\n    }\r\n    \r\n    ///////////////////////////////////////////////////////////\r\n    constructor() ERC1155(\"\") {}\r\n    //Como UVG (ente creador de competencias), deseo poder crear competencias, para definir los saberes qu se pueden obtener en mi institucin.\r\n    function createCompetency(\r\n        string memory statement, \r\n        string[] memory knowledgeElement, \r\n        string[] memory dispositions) \r\n    public returns (uint256) {\r\n        /* Add Validations */\r\n        //Create competency\r\n        CompetencyDescription memory _competencyDescription = CompetencyDescription(statement, knowledgeElement, dispositions);\r\n        //Add to the array of competencys\r\n        _competency.push(_competencyDescription);\r\n        uint256 pos = _competency.length - 1;\r\n        //Set owner\r\n        _competencyCreator[pos] = _msgSender();\r\n        return pos;\r\n    }\r\n    //Como UVG (ente creador de competencias), deseo poder visualizar las competencias qu he creado, para tener una nocin de qu contiene cada \r\n    //una de mis competencias.\r\n    function getCompetencyInfo(uint256 competencyId) public view returns (CompetencyDescription memory) { //modifier?\r\n        return _competency[competencyId];\r\n    }\r\n    //Como UVG (ente creador de competencias), deseo poder abastecer competencias , para seguir utilizando las mismas definiciones de competencias \r\n    //en nuevas iteraciones de mis cursos.\r\n    function mint(uint256 competencyId, uint256 amount) public isCompetencyCreator(competencyId) competencyExist(competencyId) {\r\n        _mint(_msgSender(), competencyId, amount, \"\");\r\n         _canTransfer[competencyId][_msgSender()] = _canTransfer[competencyId][_msgSender()] + amount;\r\n    }\r\n    function mintBatch(uint256[] memory competencyIds, uint256[] memory amount) public isCompetencysCreator(competencyIds) competencysExist(competencyIds){\r\n        _mintBatch(_msgSender(), competencyIds, amount, \"\");\r\n        for (uint i = 0; i < competencyIds.length; i++ ){\r\n            _canTransfer[competencyIds[i]][_msgSender()] = _canTransfer[competencyIds[i]][_msgSender()] + amount[i];\r\n        }\r\n    }\r\n    //Como UVG (ente creador de competencias), deseo poder transferir competencias , para qu el maestro encargado  de un curso pueda acreditar a \r\n    //los alumnos qu las alcancen .\r\n    function safeTransferFrom(\r\n        address from,\r\n        address to,\r\n        uint256 id,\r\n        uint256 amount,\r\n        bytes memory data\r\n    ) public canTransfer(id, amount, from) virtual override {\r\n        require(\r\n            from == _msgSender() || isApprovedForAll(from, _msgSender()),\r\n            \"ERC1155: caller is not owner nor approved\"\r\n        );\r\n        _safeTransferFrom(from, to, id, amount, data);\r\n        _canTransfer[id][from] = _canTransfer[id][from] - amount;\r\n        _canTransfer[id][to] = _canTransfer[id][to] + amount;\r\n    }\r\n\r\n    function safeBatchTransferFrom(\r\n        address from,\r\n        address to,\r\n        uint256[] memory ids,\r\n        uint256[] memory amounts,\r\n        bytes memory data\r\n    ) public canTransferMulti(ids, amounts, from) virtual override {\r\n        require(\r\n            from == _msgSender() || isApprovedForAll(from, _msgSender()),\r\n            \"ERC1155: transfer caller is not owner nor approved\"\r\n        );\r\n        //add can transfer\r\n        _safeBatchTransferFrom(from, to, ids, amounts, data);\r\n        for (uint i = 0; i < ids.length; i++ ){\r\n            _canTransfer[ids[i]][from] = _canTransfer[ids[i]][from] - amounts[i];\r\n            _canTransfer[ids[i]][to] = _canTransfer[ids[i]][to] + amounts[i];\r\n        }\r\n    }\r\n    \r\n    /*Check every think that comes next */\r\n    \r\n    //Como maestro de la UVG (ente intermediario), deseo poder establecer el nivel de competencias de mis estudiantes, para especificar el nivel \r\n    //al cual han desarrollado sus habilidades .\r\n    function _setSkillValues(\r\n        address to,\r\n        uint256 competencyId, \r\n        uint256[] memory skillLevels\r\n    ) internal areSkillLevelsValid(skillLevels) {\r\n        //check that receiver doesnt have the skill   \r\n        //check that the sender has the skill\r\n        //check that the skills are valid\r\n        _skillLevel[competencyId][to] = skillLevels;\r\n    }\r\n    \r\n    //Como maestro de la UVG (ente intermediario), deseo poder transferir competencias , para acreditar a aquellos estudiantes qu hayan alcanzado \r\n    //los niveles requeridos de una competencia.\r\n    \r\n    \r\n    function awardCompetency(\r\n        address from,\r\n        address to,\r\n        uint256 id,\r\n        uint256[] memory skillLevels,\r\n        bytes memory data\r\n    ) public canTransfer(id, 1 ,from) areSkillLevelsValid(skillLevels) {\r\n        require(\r\n            from == _msgSender() || isApprovedForAll(from, _msgSender()),\r\n            \"ERC1155: caller is not owner nor approved\"\r\n        );\r\n        _safeTransferFrom(from, to, id, 1, data);\r\n        _canTransfer[id][from] = _canTransfer[id][from] - 1;\r\n        _setSkillValues(to, id, skillLevels);\r\n    }\r\n    \r\n    /**/\r\n\r\n    //Como maestro de la UVG (ente intermediario), deseo poder editar el nivel de competencias de mis estudiantes, para poder actualizar sus \r\n    //habilidades en caso hayan demostrado un nivel mayor al alcanzado inicialmente .\r\n    \r\n    //Como estudiante de la UVG (ente objetivo), deseo poder autorizar una actualizacin de nivel de habilidad en mis competencias, para poder \r\n    //recibir una actualizacin en caso haya mejorado mi desempeo.\r\n    \r\n    function givePermissionToTeacherFromStudent(\r\n        address to,\r\n        uint256 competencyId\r\n    ) public /*check that the sender has the competency*/ {\r\n        _editStudentPermission[keccak256(abi.encodePacked(competencyId, _msgSender()))][to] = true;\r\n    }\r\n    \r\n    \r\n    //Historia UVG\r\n    \r\n    function givePermissionToTeacherFromOwner(\r\n        address to,\r\n        address owner,\r\n        uint256 competencyId\r\n    ) public /*check that the sender is owner (creator) of the competnecy*/ {\r\n        _editCreatorPermission[keccak256(abi.encodePacked(competencyId, owner))][to] = true;\r\n    }\r\n    \r\n    function updateSkillValues(\r\n        address owner,\r\n        uint256 competencyId,\r\n        uint256[] memory skillLevels\r\n    ) public canEdit(_msgSender(), owner, competencyId) {\r\n        _setSkillValues(owner, competencyId, skillLevels);\r\n    }\r\n\r\n\r\n    //Add ownership handle\r\n    //Add permissions for watching\r\n    // \r\n\r\n\r\n}",
  "sourcePath": "/home/paul/Documents/tesisApi/contracts/CompetencySystem.sol",
  "compiler": {
    "name": "solc",
    "version": "0.8.0+commit.c7dfd78e.Emscripten.clang"
  },
  "schemaVersion": "3.4.3",
  "updatedAt": "2021-09-19T22:21:18.682Z",
  "networkType": "ethereum",
  "devdoc": {
    "kind": "dev",
    "methods": {
      "balanceOf(address,uint256)": {
        "details": "See {IERC1155-balanceOf}. Requirements: - `account` cannot be the zero address."
      },
      "balanceOfBatch(address[],uint256[])": {
        "details": "See {IERC1155-balanceOfBatch}. Requirements: - `accounts` and `ids` must have the same length."
      },
      "isApprovedForAll(address,address)": {
        "details": "See {IERC1155-isApprovedForAll}."
      },
      "safeBatchTransferFrom(address,address,uint256[],uint256[],bytes)": {
        "details": "See {IERC1155-safeBatchTransferFrom}."
      },
      "safeTransferFrom(address,address,uint256,uint256,bytes)": {
        "details": "See {IERC1155-safeTransferFrom}."
      },
      "setApprovalForAll(address,bool)": {
        "details": "See {IERC1155-setApprovalForAll}."
      },
      "supportsInterface(bytes4)": {
        "details": "See {IERC165-supportsInterface}."
      },
      "uri(uint256)": {
        "details": "See {IERC1155MetadataURI-uri}. This implementation returns the same URI for *all* token types. It relies on the token type ID substitution mechanism https://eips.ethereum.org/EIPS/eip-1155#metadata[defined in the EIP]. Clients calling this function must replace the `\\{id\\}` substring with the actual token type ID."
      }
    },
    "version": 1
  },
  "userdoc": {
    "kind": "user",
    "methods": {},
    "version": 1
  }
}